S0120000536C6176655F436F64652E737265633D
S11300000C9450000C94AE030C94D5030C94FC0394
S11300100C946D000C946D000C946D000C943405DC
S11300200C945B050C9482050C946D000C946D008B
S11300300C946D000C946D000C946D000C946D0088
S11300400C946D000C946D000C946D000C946D0078
S11300500C946D004C01560160016A017401950114
S1130060FE00FE00FE00FE00FE00FE00FE00FE009C
S1130070FE00FE0051015B0165016F0179017E0103
S1130080FE00FE00FE00FE00FE00FE00FE00FE007C
S1130090FE00FE000B01160121012C013701420173
S11300A011241FBECFE5D8E0DEBFCDBF10E0A0E62F
S11300B0B0E0E2E6FBE002C005900D92A83AB10779
S11300C0D9F720E0A8EAB0E001C01D92AB3BB2072B
S11300D0E1F70E94CB000C94AF050C9400000E9441
S11300E0AD0108950E94B8019695879596958795D8
S11300F008958091A8009091A900A091AA00B091C0
S1130100AB000196A11DB11D8093A8009093A90096
S1130110A093AA00B093AB008091A8009091A9008D
S1130120A091AA00B091AB000497A105B10591F587
S113013081E00E9472008093AD009091AE00891717
S1130140A8F061E08DE10E94CC0161E088E10E94A9
S1130150CC0160E089E10E94CC011092A8001092C9
S1130160A9001092AA001092AB00089560E08DE1FE
S11301700E94CC0160E088E10E94CC0161E089E149
S11301800E94CC011092A8001092A9001092AA001B
S11301901092AB000895CF93DF93CDB7DEB7669787
S11301A00FB6F894DEBF0FBECDBF0E9408030E94B5
S11301B0230419821A8282E08B831C8286E08D8359
S11301C083E08E8388E0E0EAF0E0DE011796019098
S11301D00D928A95E1F7FE013F9688E0DF011D92BA
S11301E08A95E9F7CE0101960E942B04CE0105966B
S11301F00E946F0089E790E00E942F0581E00E9431
S11302007D0490E0FC017197E632F105B8F7E65DF4
S1130210FF4F0C94A90586E00E944E02813011F430
S11302208FE401C086E40E947D04E8CF87E00E9449
S11302304E02813011F48FE401C086E40E947D04F3
S1130240DDCF80E10E944E02813011F48FE401C0C1
S113025086E40E947D04D2CF81E10E944E02813067
S113026011F48FE401C086E40E947D04C7CF82E1CB
S11302700E944E02813011F48FE401C086E40E9492
S11302807D04BCCF8091AC00813011F48FE401C0B7
S113029086E40E947D04B2CF61E086E00E94CC0136
S11302A0ADCF60E086E00E94CC01A8CF61E087E09A
S11302B00E94CC01A3CF60E087E00E94CC019ECFD6
S11302C061E080E10E94CC0199CF60E080E10E946E
S11302D0CC0194CF61E081E10E94CC018FCF60E03A
S11302E081E10E94CC018ACF61E082E10E94CC01CD
S11302F085CF60E082E10E94CC0180CF60E08DE197
S11303000E94CC0160E089E10E94CC0160E088E1B8
S11303100E94CC011092AC00CE010F960E94820480
S11303200E9427041092AE0069CF81E00E947D04F0
S11303308093AE00BFEF21EE84E0B15020408040B6
S1130340E1F700C00000CE0107960E9482040E94DB
S1130350230481E08093AC0051CFFC0191819295FC
S1130360990F990F907C97B98081806886B9089518
S113037097B1907E8F71892B87B986B1806486B9D5
S1130380349BFECF86B1806186B924B185B190E0FB
S1130390982F8827822B0895982F96959695969551
S11303A08770913021F130F09230F1F1933009F4FB
S11303B058C00895613069F44BB321E030E0B901CD
S11303C002C0660F771F8A95E2F7CB01842B8BBBA3
S11303D008954BB321E030E0B90102C0660F771FE6
S11303E08A95E2F7CB01809584238BBB0895613015
S11303F069F448B321E030E0B90102C0660F771F09
S11304008A95E2F7CB01842B88BB089548B321E099
S113041030E0B90102C0660F771F8A95E2F7CB017D
S11304208095842388BB0895613069F445B321E045
S113043030E0B90102C0660F771F8A95E2F7CB015D
S1130440842B85BB089545B321E030E0B90102C097
S1130450660F771F8A95E2F7CB018095842385BBCD
S11304600895613069F442B321E030E0B90102C07B
S1130470660F771F8A95E2F7CB01842B82BB089520
S113048042B321E030E0B90102C0660F771F8A95BC
S1130490E2F7CB018095842382BB0895982F96952B
S11304A096959695482F4770913081F028F09230B8
S11304B0B9F09330F9F028C099B3892F90E002C0C5
S11304C0959587954A95E2F78170089526B330E0B3
S11304D0C90102C0959587954A95E2F78170089500
S11304E023B330E0C90102C0959587954A95E2F798
S11304F08170089520B330E0C90102C095958795B5
S11305004A95E2F78170089580E00895982F9695B2
S1130510969596958770913021F130F09230F1F1F3
S1130520933009F458C00895613069F44AB321E066
S113053030E0B90102C0660F771F8A95E2F7CB015C
S1130540842B8ABB08954AB321E030E0B90102C08C
S1130550660F771F8A95E2F7CB01809584238ABBC7
S11305600895613069F447B321E030E0B90102C075
S1130570660F771F8A95E2F7CB01842B87BB08951A
S113058047B321E030E0B90102C0660F771F8A95B6
S1130590E2F7CB018095842387BB0895613069F429
S11305A044B321E030E0B90102C0660F771F8A9599
S11305B0E2F7CB01842B84BB089544B321E030E0FF
S11305C0B90102C0660F771F8A95E2F7CB018095C7
S11305D0842384BB0895613069F441B321E030E0A1
S11305E0B90102C0660F771F8A95E2F7CB01842B0D
S11305F081BB089541B321E030E0B90102C0660F28
S1130600771F8A95E2F7CB018095842381BB0895F7
S113061080E0A0C0982F969596959695282F2770E0
S1130620913061F138F0923009F44CC0933009F400
S11306306DC08FC0E82FF0E0EE0FFF1FE05AFF4FB0
S11306409081913069F49AB341E050E0BA0102C05C
S1130650660F771F2A95E2F79B01292B2ABB79C0E5
S11306609AB341E050E0BA0102C0660F771F2A95A1
S1130670E2F79B01209529232ABB6BC0E82FF0E009
S1130680EE0FFF1FE05AFF4F9081913069F497B34A
S113069041E050E0BA0102C0660F771F2A95E2F7E5
S11306A09B01292B27BB55C097B341E050E0BA0109
S11306B002C0660F771F2A95E2F79B012095292334
S11306C027BB47C0E82FF0E0EE0FFF1FE05AFF4FB3
S11306D09081913069F494B341E050E0BA0102C0D2
S11306E0660F771F2A95E2F79B01292B24BB31C0A3
S11306F094B341E050E0BA0102C0660F771F2A9517
S1130700E2F79B012095292324BB23C0E82FF0E0C6
S1130710EE0FFF1FE05AFF4F9081913069F491B3BF
S113072041E050E0BA0102C0660F771F2A95E2F754
S11307309B01292B21BB0DC091B341E050E0BA01CC
S113074002C0660F771F2A95E2F79B0120952923A3
S113075021BB8F5F803208F45DCF08951F920F9202
S11307600FB60F9211242F933F934F935F936F9380
S11307707F938F939F93AF93BF93EF93FF93E091F6
S1130780B300F091B4000995FF91EF91BF91AF913F
S11307909F918F917F916F915F914F913F912F9195
S11307A00F900FBE0F901F9018951F920F920FB6C7
S11307B00F9211242F933F934F935F936F937F93E3
S11307C08F939F93AF93BF93EF93FF93E091B10007
S11307D0F091B2000995FF91EF91BF91AF919F9174
S11307E08F917F916F915F914F913F912F910F90D6
S11307F00FBE0F901F9018951F920F920FB60F9275
S113080011242F933F934F935F936F937F938F9311
S11308109F93AF93BF93EF93FF93E091AF00F09159
S1130820B0000995FF91EF91BF91AF919F918F9186
S11308307F916F915F914F913F912F910F900FBED8
S11308400F901F9018958FB780688FBF08958FB74A
S11308508F778FBF0895CF93DF93EC01888188232E
S1130860C9F0813069F561E08CE00E94860261E0A4
S11308708DE00E94860260E08EE00E94860261E0C4
S11308808FE00E9486028DB180618DB98DB1806444
S11308908DB916C060E08CE00E94860260E08DE0B5
S11308A00E94860261E08EE00E94860260E08FE092
S11308B00E9486028DB18F7E8DB98DB180648DB911
S11308C02DB1998130E2939FC0011124822B8DB9FF
S11308D08B81813041F48EB181608EB99DB18A8162
S11308E0892B8DB907C08EB18E7F8EB99DB18A8157
S11308F0892B8DB9DF91CF9108958FB9779BFECF66
S11309008FB10895FC018081813099F028F0823004
S1130910E9F0833041F133C08FB58E7F8FBD8FB541
S11309208D7F8FBD8EB5877F8EBD8EB58F7E8EBD3C
S113093026C08FB58E7F8FBD8FB58D7F8FBD8EB551
S113094088608EBD8EB58F7E8EBD19C08FB58E7FAB
S11309508FBD8FB582608FBD8EB588608EBD8EB51C
S113096080618EBD0CC08FB58E7F8FBD8FB58260C8
S11309708FBD8EB5877F8EBD8EB580618EBD818122
S1130980823001F128F4882349F0813089F041C094
S1130990843061F108F1853099F13BC08EB58E7FCA
S11309A08EBD8EB58D7F8EBD8EB58B7F8EBD31C0D5
S11309B08EB581608EBD8EB58D7F8EBD8EB58B7FDD
S11309C08EBD27C08EB58E7F8EBD8EB582608EBDE6
S11309D08EB58B7F8EBD1DC08EB581608EBD8EB5EC
S11309E082608EBD8EB58B7F8EBD13C08EB58E7F1B
S11309F08EBD8EB58D7F8EBD8EB584608EBD09C0D3
S1130A008EB581608EBD8EB58D7F8EBD8EB58460B2
S1130A108EBD8281823059F0833081F0811114C0FF
S1130A208FB58F7B8FBD8FB58F778FBD0DC08FB581
S1130A308F7B8FBD8FB580688FBD06C08FB58F7BD0
S1130A408FBD8FB58F778FBD29B79781892F90E0A0
S1130A50880F991F880F991F822B89BF089590933F
S1130A60B6008093B50008951F920F920FB60F92AF
S1130A7011242F933F934F935F936F937F938F939F
S1130A809F93AF93BF93EF93FF93E091B900F091DD
S1130A90BA000995FF91EF91BF91AF919F918F910A
S1130AA07F916F915F914F913F912F910F900FBE66
S1130AB00F901F9018951F920F920FB60F9211244A
S1130AC02F933F934F935F936F937F938F939F9352
S1130AD0AF93BF93EF93FF93E091B700F091B80009
S1130AE00995FF91EF91BF91AF919F918F917F9164
S1130AF06F915F914F913F912F910F900FBE0F9087
S1130B001F9018951F920F920FB60F9211242F93D6
S1130B103F934F935F936F937F938F939F93AF9381
S1130B20BF93EF93FF93E091B500F091B600099560
S1130B30FF91EF91BF91AF919F918F917F916F91B1
S1130B405F914F913F912F910F900FBE0F901F9087
S1130B501895EE0FFF1F0590F491E02D0994F89479
S1050B60FFCFC1
S1130B62010101010101010101010101010101016F
S1130B72010101010101010101010101010101015F
S1130B82010101010101010101010101010101014F
S1130B92010101010101010101010101010101013F
S10B0BA2000300000000000143
S9030000FC
