S00D00004F435432332E73726563CC
S11300000C9432000C945D0C0C94840C0C94AB0C8A
S11300100C944F000C944F000C944F000C94CC0D96
S11300200C94F30D0C941A0E0C944F000C944F0086
S11300300C944F000C944F000C944F000C944F0000
S11300400C944F000C944F000C944F000C944F00F0
S11300500C944F003E07600777079207AA07C20770
S1130060DA070E0811241FBECFE5D8E0DEBFCDBFEE
S113007015E0A0E6B0E0E6EDF1E202C005900D92D5
S1130080A236B107D9F725E0A2E6B5E001C01D927A
S1130090AE36B207E1F70E94430A0C94E9100C94BF
S11300A00000CF92DF92EF92FF920F931F93CF93B2
S11300B0DF9300D000D0CDB7DEB7082F19821A82A3
S11300C01B821C82CE0101967C016C0110E0612F21
S11300D0802F0E943E08F60181936F011F5F143048
S11300E0B1F79E012B5F3F4F90E0F70181917F01B3
S11300F08F3F09F49F5FE216F306B9F781E094306D
S113010009F480E00F900F900F900F90DF91CF9142
S11301101F910F91FF90EF90DF90CF9008950F9370
S11301201F93CF93DF93D82F8B01C0E06C2F8D2FBB
S11301300E943E08F80181938F01FFEF20E782E0DF
S1130140F15020408040E1F700C00000CF5FC43090
S113015069F7DF91CF911F910F91089560E082EAD2
S11301600E943E088F3FB1F00E94F60980ED90E0B6
S11301700E94B4092FEF83EC99E021508040904015
S1130180E1F700C000000E94F60961E088E00E94E7
S1130190830AEACF08958F929F92BF92CF92DF9203
S11301A0EF92FF920F931F93CF93DF93CDB7DEB7F8
S11301B028970FB6F894DEBF0FBECDBF19821A82FE
S11301C01B821C821D821E821F821886BE016B5FE9
S11301D07F4F80EA0E948F002FEF80E792E021504A
S11301E080409040E1F700C000000F2EF3E3BF2EE3
S11301F0F02D6E01A9E0CA0ED11C0E94F60982E618
S113020091E00E94B4098E010F5F1F4F4801E12C59
S11302100E94A708F82E8823E1F00E946C09BFEF22
S1130220EAE6F3E0B150E040F040E1F700C000003E
S113023069E06E0D81E00E94CA098AE20E946C099D
S1130240D401FD924D01E394B4E0EB1609F481C0AE
S1130250DFCFE3E0EE15E0F67CC09191D8018D91FB
S11302608D01981301C02F5FCE16DF06B1F724303D
S113027019F50E94F6098AED90E00E94B409BFEFD7
S1130280EFE0F7E2B150E040F040E1F700C00000D9
S113029061E082E00E94CA098CEE90E00E94B409F9
S11302A02FEF8FE097E2215080409040E1F700C0AB
S11302B000000E94F60951C00E94F6098CEF90E0FC
S11302C00E94B409A1E3BA122CC00E94F6098CE082
S11302D091E00E94B40960E082E00E94CA098CE1C6
S11302E091E00E94B40941E360E082EA0E941E08A2
S11302F0BFEFE0E7F2E0B150E040F040E1F700C0CA
S1130300000061E088E00E94830A2FEF8DE292E210
S1130310215080409040E1F700C000000E94AE00F0
S11303201CC0BA9460E082E00E94CA098CE291E0A9
S11303300E94B4098B2D0E946C09AFEFBFE0E7E285
S1130340A150B040E040E1F700C000000E94F6096F
S113035054CFFE01359620E080CF28960FB6F8944E
S1130360DEBF0FBECDBFDF91CF911F910F91FF90E4
S1130370EF90DF90CF90BF909F908F9008958F92D1
S11303809F92AF92BF92CF92DF92EF92FF920F9320
S11303901F93CF93DF93CDB7DEB728970FB6F894AA
S11303A0DEBF0FBECDBF63E081E00E94CA098AE3CD
S11303B091E00E94B40963E082E00E94CA0985E4E6
S11303C091E00E94B4092FEF8BE49DE1215080401D
S11303D09040E1F700C000000E94F60980EA0E9404
S11303E051008111CBC01D821E821F821886198282
S11303F01A821B821C828EE491E00E94B409AFEF42
S1130400BBE4EDE1A150B040E040E1F700C00000E2
S11304100E94F6096E01F9E0CF0ED11C8FE591E040
S11304200E94B4095E0125E0A20EB11C750100E032
S11304300E94A708182F8823D1F00E946C098FEF1F
S11304409AE6A3E081509040A040E1F700C000008C
S11304506CE0600F81E00E94CA098AE20E946C0984
S1130460F70111937F010F5F043019F0E1CF0430DD
S1130470F8F20E94F6098CE691E00E94B4098E011C
S11304800F5F1F4F4801E12C0E94A708F82E882314
S1130490D9F00E946C09FFEF2AE683E0F150204076
S11304A08040E1F700C0000068E06E0D81E00E942A
S11304B0CA098AE20E946C09D401FD924D01E394B9
S11304C0B4E0EB1621F0E0CFE3E0EE15E8F60E948D
S11304D0F609F50120E09191D8018D918D019813D1
S11304E001C02F5FCE16DF06B1F7243031F510E0DE
S11304F0F50141915F01612F80EA0E941E08FFEF20
S113050023EC89E0F15020408040E1F700C0000076
S11305101F5F143069F785E791E00E94B4099FEFEB
S1130520ABE4BDE19150A040B040E1F700C0000051
S11305300E94F6090E94CB0038C085E891E00E9431
S1130540B409EFEFF3EC29E0E150F0402040E1F78B
S113055000C0000060E082E00E94CA0984E991E0E2
S11305600E94B4098FEF93ECA9E081509040A04021
S1130570E1F700C000000E94F60950CF0E94F6097E
S113058062E081E00E94CA098FE991E00E94B40907
S1130590BFEFEFE0F7E2B150E040F040E1F700C018
S11305A000000E94F6090E94CB0028960FB6F8942A
S11305B0DEBF0FBECDBFDF91CF911F910F91FF9092
S11305C0EF90DF90CF90BF90AF909F908F90089561
S11305D060E084EA0E943E082FEF30E792E0215069
S11305E030409040E1F700C000008F3F21F08AE5E1
S11305F090E00E94FA0908951F93CF93DF93D0E00F
S11306001D2F0E94F6098CEA91E00E94B4096D2F17
S113061082E00E94CA098CEB91E00E94B4090E9416
S1130620A7088823E1F3823309F48CC0833309F4E7
S11306300FC1813309F092C10E94F6092FEF80E7C0
S113064092E0215080409040E1F700C0000083E335
S11306500E94180D2FEF80E792E0215080409040D7
S1130660E1F700C0000081E00E94180D8F3489F585
S11306700E94F60984EC91E00E94B409612F82E0A3
S11306800E94CA098FEC91E00E94B4090E94A70855
S1130690C82F8823D9F32FEF81EE94E021508040B6
S11306A09040E1F700C00000C13319F0C23359F0A3
S11306B044C083E20E94180D80EE91E00E94180865
S11306C00E94C504E3CF89E90E94180D0E94C50465
S11306D034C0863489F50E94F60989EF91E00E94BE
S11306E0B409612F82E00E94CA0985E092E00E9469
S11306F0B4090E94A708C82F8823D9F32FEF81EEED
S113070094E0215080409040E1F700C00000C133E4
S113071019F0C23359F011C083E10E94180D85E12C
S113072092E00E9418080E94C504E3CF89E90E9460
S1130730180D0E94C50401C0C12F0E94F6090E9431
S1130740C5041CC10E94F6092FEF80E792E02150F6
S113075080409040E1F700C0000084E30E94180D3F
S11307602FEF80E792E0215080409040E1F700C0F5
S1130770000081E00E94180D8F3489F50E94F6096B
S113078084EC91E00E94B409612F82E00E94CA09BE
S11307908FEC91E00E94B4090E94A708C82F882317
S11307A0D9F32FEF81EE94E0215080409040E1F79F
S11307B000C00000C13319F0C23359F044C084E2D0
S11307C00E94180D8DE292E00E9418080E94C50450
S11307D0E3CF89E90E94180D0E94C50434C0863411
S11307E089F50E94F60989EF91E00E94B409612F0E
S11307F082E00E94CA0985E092E00E94B4090E9446
S1130800A708C82F8823D9F32FEF81EE94E0215055
S113081080409040E1F700C00000C13319F0C233BA
S113082059F011C084E10E94180D86E492E00E9400
S113083018080E94C504E3CF89E90E94180D0E949C
S1130840C504DDCFC12F0E94F6090E94C50496C0DD
S11308500E94F6092FEF80E792E0215080409040FB
S1130860E1F700C0000085E30E94180D2FEF80E738
S113087092E0215080409040E1F700C0000081E008
S11308800E94180D8F3489F50E94F60984EC91E0DA
S11308900E94B409612F82E00E94CA098FEC91E0A2
S11308A00E94B4090E94A708C82F8823D9F32FEF08
S11308B081EE94E0215080409040E1F700C00000B8
S11308C0C13319F0C23359F044C085E20E94180DB7
S11308D08EE592E00E9418080E94C504E3CF89E9DE
S11308E00E94180D0E94C50434C0863489F50E9404
S11308F0F60989EF91E00E94B409612F82E00E9419
S1130900CA0985E092E00E94B4090E94A708C82F92
S11309108823D9F32FEF81EE94E02150804090405A
S1130920E1F700C00000C13319F0C23359F011C01F
S113093085E10E94180D87E792E00E9418080E9442
S1130940C504E3CF89E90E94180D0E94C504DDCFD8
S1130950C12F0E94F6090E94C50410C00E94F60926
S11309608FE892E00E94B4092FEF89E698E12150C4
S113097080409040E1F700C0000043CECC2309F44E
S11309804ECEDF91CF911F9108950E94F6098DE913
S113099092E00E94B40960E082E00E94CA0985EAFC
S11309A092E00E94B4090E94A7088823E1F38133EE
S11309B019F0823331F00AC00E94F6090E94FA0449
S11309C0F2CF0E94F6090E94FC02EDCF0E94F609C4
S11309D08DEA92E00E94B4092FEF89E698E1215054
S11309E080409040E1F700C000000E94F6090E9498
S11309F0C5040895BF92CF92DF92EF92FF920F93B6
S1130A001F93CF93DF93D0E012E0F12E0D2FED2E44
S1130A10D12E0E94F6098CEA91E00E94B4096D2F50
S1130A20812F0E94CA0985E593E00E94B4090E94BF
S1130A30A7088823E1F3823309F48CC0833309F4D3
S1130A400FC1813309F0E5C10E94F6092FEF80E759
S1130A5092E0215080409040E1F700C0000081E323
S1130A600E94180D2FEF80E792E0215080409040C3
S1130A70E1F700C0000081E00E94180D8F3489F571
S1130A800E94F60984EC91E00E94B409602F8F2D36
S1130A900E94CA098FEC91E00E94B4090E94A70841
S1130AA0C82F8823D9F32FEF81EE94E021508040A2
S1130AB09040E1F700C00000C13319F0C23359F08F
S1130AC044C081E20E94180D86E693E00E94180853
S1130AD00E94C504E3CF89E90E94180D0E94C50451
S1130AE034C0863489F50E94F60989EF91E00E94AA
S1130AF0B409602F8F2D0E94CA0985E092E00E94FC
S1130B00B4090E94A708C82F8823D9F32FEF81EED8
S1130B1094E0215080409040E1F700C00000C133D0
S1130B2019F0C23359F011C081E10E94180D8FE70A
S1130B3093E00E9418080E94C504E3CF89E90E944B
S1130B40180D0E94C50401C0C02F0E94F6090E941E
S1130B50C5046FC10E94F6092FEF80E792E021508F
S1130B6080409040E1F700C0000082E30E94180D2D
S1130B702FEF80E792E0215080409040E1F700C0E1
S1130B80000081E00E94180D8F3489F50E94F60957
S1130B9084EC91E00E94B409602F8F2D0E94CA0951
S1130BA08FEC91E00E94B4090E94A708C82F882303
S1130BB0D9F32FEF81EE94E0215080409040E1F78B
S1130BC000C00000C13319F0C23359F044C082E2BE
S1130BD00E94180D87E993E00E9418080E94C5043A
S1130BE0E3CF89E90E94180D0E94C50434C08634FD
S1130BF089F50E94F60989EF91E00E94B409602FFB
S1130C008F2D0E94CA0985E092E00E94B4090E94D7
S1130C10A708C82F8823D9F32FEF81EE94E0215041
S1130C2080409040E1F700C00000C13319F0C233A6
S1130C3059F011C082E10E94180D80EB93E00E94EC
S1130C4018080E94C504E3CF89E90E94180D0E9488
S1130C50C504DDCFC02F0E94F6090E94C504E9C077
S1130C600E94F6092FEF80E792E0215080409040E7
S1130C70E1F700C0000086E30E94180D2FEF80E723
S1130C8092E0215080409040E1F700C0000081E0F4
S1130C900E94180D8F3489F50E94F60988EC93E0C0
S1130CA00E94B409602F8F2D0E94CA098FEC91E035
S1130CB00E94B4090E94A708C82F8823D9F32FEFF4
S1130CC081EE94E0215080409040E1F700C00000A4
S1130CD0C13319F0C23359F097C086E20E94180D4F
S1130CE088ED93E00E9418080E94C504E3CF89E9C7
S1130CF00E94180D0E94C50487C0863409F083C081
S1130D000E94F6098BEF93E00E94B409602F8F2DA7
S1130D100E94CA0985E092E00E94B4090E94A708D3
S1130D20C82F8823D9F32FEF81EE94E0215080401F
S1130D309040E1F700C00000C13321F0C23309F450
S1130D4058C05DC00E94F6098CE094E00E94B4098A
S1130D5060E670E081E00E94DB096BE081E00E94C4
S1130D60CA0981E00E946C0983E40E946C0969E06D
S1130D7081E00E94CA09BB24B394CE2C0E94A70828
S1130D80C82F882389F021E0B21205C00E946C09A3
S1130D90CC2EBD2CF3CF82E0B8120AC08C2F0E9457
S1130DA06C098C2FCE2D05C092E09B1538F701C03D
S1130DB08E2D9C2D990F9056C92ECC0CCC0C9C0DCD
S1130DC08053C92EC80E2FEF81EE94E0215080404D
S1130DD09040E1F700C0000086E10E94180D88E110
S1130DE094E00E9418088C2D0E94180D0E94C504DE
S1130DF006C089E90E94180D0E94C5048FCFCC2338
S1130E0009F48CCF01C0C02F0E94F6090E94C504CA
S1130E1010C00E94F6098FE892E00E94B4092FEFF7
S1130E2089E698E1215080409040E1F700C000003D
S1130E30F0CDCC2309F4FBCDDF91CF911F910F911D
S1130E40FF90EF90DF90CF90BF9008958AE394E0F5
S1130E500E9418088BE594E00E94180888E894E042
S1130E600E9418080E941B0890E0FC01F197E830EA
S1130E70F105C0F7E65DFF4F0C94E3102FEF33E26A
S1130E8084EF90E02150304080409040D9F700C07A
S1130E90000081E30E94180D8F3441F482EC94E049
S1130EA00E94180881E20E94180DDCCF8634D1F626
S1130EB085ED94E00E94180881E10E94180DD2CFBC
S1130EC082E30E94180D8F3441F482E20E94180DCF
S1130ED082EC94E00E941808C5CF863419F682E1AA
S1130EE00E94180D85ED94E00E941808BBCF86E39C
S1130EF00E94180D8F3441F486E20E94180D87EE8B
S1130F0094E00E941808AECF863409F0ABCF86E196
S1130F100E94180D88E10E94180D85E095E00E945A
S1130F201808A0CF83E30E94180D8F3441F483E2A4
S1130F300E94180D82EC94E00E94180893CF863426
S1130F4009F090CF83E10E94180D85ED94E00E9492
S1130F50180888CF84E30E94180D8F3441F484E28A
S1130F600E94180D82EC94E00E9418087BCF86340E
S1130F7009F078CF84E10E94180D85ED94E00E9479
S1130F80180870CF85E30E94180D8F3441F485E270
S1130F900E94180D82EC94E00E94180863CF8634F6
S1130FA009F060CF85E10E94180D85ED94E00E9460
S1130FB0180858CF60E084EA0E943E088F3FB9F4D5
S1130FC082E295E00E94100F8AE590E00E94FA09FF
S1130FD041E360E084EA0E941E082FEF33EC89E0CD
S1130FE0215030408040E1F700C000003BCF87E350
S1130FF095E00E94100F80E090E00E94FA094FEF04
S113100060E084EA0E941E089FEF23EC39E09150CF
S113101020403040E1F700C0000024CF8CE495E08C
S11310200E9418080E94BF0108950E94980E089516
S11310300E94100F08950E94260F08951F93CF93C6
S1131040DF93C82FD62F142F0E94450E883091F4B9
S11310508C2F8E7F0E945A0E883161F48D2F0E944E
S11310605A0E883239F4812F0E945A0E883211F4B4
S11310700E94880EDF91CF911F9108950F931F93C3
S1131080CF93DF931F92CDB7DEB7182F062F1982A7
S11310900E94450E8830E9F4812F8E7F0E945A0EFB
S11310A08831B9F4802F0E945A0E883291F40E943C
S11310B0450E803171F4812F81600E945A0E803474
S11310C041F4CE0101960E94700E883511F40E94FD
S11310D0880E89810F90DF91CF911F910F91089510
S11310E0EF92FF920F931F93CF93DF93C8E7D0E063
S11310F00F2EFCE7EF2EF0E0FF2EF02D8E0160E0C6
S113110089910E94380B61E0F80180810E94830A72
S1131110CE15DF0599F7CCE7D0E00F2EF0E8EF2EDF
S1131120F0E0FF2EF02D8E0161E089910E94380BD2
S113113061E0F80180810E94830ACE15DF0599F7EA
S1131140DF91CF911F910F91FF90EF9008956F92CF
S11311507F928F929F92AF92BF92CF92DF92EF9243
S1131160FF920F931F93CF93DF930CE710E0C12CF2
S1131170D12C4601580160E0F80180810E94830A65
S1131180C8E7D0E0612C712C730189910E94050B92
S1131190811114C0E301C858DF4F88810E94050BF8
S11311A08823D9F3C401880F991F880F991F885980
S11311B09F4FFC01EE0DFF1D808116C0FFEF6F1ADB
S11311C07F0A84E068167104F9F60F5F1F4F61E02F
S11311D0F50180810E94830AFFEFCF1ADF0A84E0C1
S11311E0C816D10431F680E0DF91CF911F910F91A1
S11311F0FF90EF90DF90CF90BF90AF909F908F9033
S11312007F906F900895CF93C82F60E089E00E948B
S1131210830A80E00E94BA0B8F709C2F907F682F06
S1131220692B80E00E94CC0B60E08BE00E94830A73
S11312308FE891E00197F1F700C0000061E08BE0D6
S11312400E94830A8FE19EE40197F1F700C0000039
S113125080E00E94BA0B8F7090E1C99F9001112425
S1131260682F622B80E00E94CC0B60E08BE00E9430
S1131270830A8FE891E00197F1F700C0000061E074
S11312808BE00E94830A8FE39FE10197F1F700C08E
S11312900000CF91089560E08AE00E94830A61E033
S11312A08BE00E94830A2FEF89EF90E02150804069
S11312B09040E1F700C0000083E30E94030982E349
S11312C00E94030988E20E94030986E00E94030940
S11312D08CE00E9403090895CF93C82F61E089E050
S11312E00E94830A80E00E94BA0B8F709C2F907F2B
S11312F0682F692B80E00E94CC0B60E08BE00E9499
S1131300830A8FE891E00197F1F700C0000061E0E3
S11313108BE00E94830A8FE19EE40197F1F700C0FD
S1131320000080E00E94BA0B8F7090E1C99F900189
S11313301124682F622B80E00E94CC0B60E08BE0CC
S11313400E94830A8FE891E00197F1F700C0000042
S113135061E08BE00E94830A8FE39FE10197F1F73C
S113136000C00000CF9108950F931F93CF93FC0109
S11313708081882359F08F01C0E00E946C09CF5FFF
S1131380F801EC0FF11D80818111F7CFCF911F91EE
S11313900F910895813019F0823039F00895862F25
S11313A08F7080680E9403090895862F8F70806C67
S11313B00E94030908950F931F93CF93DF938830FE
S11313C080F48B01880F880F880F805C0E940309CA
S11313D0E801085F1F4F89910E946C09C017D1076B
S11313E0D1F7DF91CF911F910F91089581E00E9471
S11313F0030908950F931F93CF93DF93CDB7DEB7FF
S113140028970FB6F894DEBF0FBECDBF8C0161E004
S11314108DE10E94380B87E893E10E94C90DB80161
S113142080E090E00E94C60F2CE137EC41EB5FE3D3
S11314300E94541020E030E04AE753E40E942B0F4E
S113144020E030E040E85FE30E942A0F0E94970FFB
S1131450CB010E94C60D88E0E0ECF0E0DE011196BD
S113146001900D928A95E1F7CE0101960E941D0D1F
S113147028960FB6F894DEBF0FBECDBFDF91CF9193
S11314801F910F910895CF93DF93CDB7DEB72C97BB
S11314900FB6F894DEBF0FBECDBF81E089831A82F8
S11314A082E08B831C820E94DC0B0E944B090E9409
S11314B0700886E60E94410ECE0101960E94D20C6D
S11314C088E0E8ECF0E0DE01159601900D928A9533
S11314D0E1F7CE0105960E94150860E088E10E94BC
S11314E0380B2FEF81EE94E0215080409040E1F7DB
S11314F000C000000E94AE000E94E8020E9426077D
S11315000E94C504FBCF982F977086958695869583
S1131510813021F130F08230F1F1833009F458C088
S11315200895613069F44BB321E030E0B90102C0A1
S1131530660F771F9A95E2F7CB01842B8BBB089536
S11315404BB321E030E0B90102C0660F771F9A95D2
S1131550E2F7CB01809584238BBB0895613069F455
S113156048B321E030E0B90102C0660F771F9A95B5
S1131570E2F7CB01842B88BB089548B321E030E027
S1131580B90102C0660F771F9A95E2F7CB018095E7
S1131590842388BB0895613069F445B321E030E0C9
S11315A0B90102C0660F771F9A95E2F7CB01842B2D
S11315B085BB089545B321E030E0B90102C0660F50
S11315C0771F9A95E2F7CB018095842385BB089514
S11315D0613069F442B321E030E0B90102C0660F22
S11315E0771F9A95E2F7CB01842B82BB089542B30F
S11315F021E030E0B90102C0660F771F9A95E2F747
S1131600CB018095842382BB0895282F277086956B
S113161086958695813079F028F08230A9F0833060
S1131620E1F024C089B390E002C0959587952A958E
S1131630E2F78170089586B390E002C0959587958E
S11316402A95E2F78170089583B390E002C09595DE
S113165087952A95E2F78170089580B390E002C0DF
S1131660959587952A95E2F78170089580E008950D
S1131670982F9770869586958695813021F130F064
S11316808230F1F1833009F458C00895613069F46F
S11316904AB321E030E0B90102C0660F771F9A9582
S11316A0E2F7CB01842B8ABB08954AB321E030E0F2
S11316B0B90102C0660F771F9A95E2F7CB018095B6
S11316C084238ABB0895613069F447B321E030E094
S11316D0B90102C0660F771F9A95E2F7CB01842BFC
S11316E087BB089547B321E030E0B90102C0660F1B
S11316F0771F9A95E2F7CB018095842387BB0895E1
S1131700613069F444B321E030E0B90102C0660FEE
S1131710771F9A95E2F7CB01842B84BB089544B3D9
S113172021E030E0B90102C0660F771F9A95E2F715
S1131730CB018095842384BB0895613069F441B35F
S113174021E030E0B90102C0660F771F9A95E2F7F5
S1131750CB01842B81BB089541B321E030E0B90172
S113176002C0660F771F9A95E2F7CB018095842318
S113177081BB0895813041F028F0823039F0833004
S113178039F008C08BB3089588B3089585B30895DC
S113179082B3089580E00895813041F028F08230CA
S11317A039F0833039F008956BBB089568BB089510
S11317B065BB089562BB0895E0E8F0E080E041E095
S11317C050E0282F2770982F9695969596959130EE
S11317D009F130F09230C1F1933009F44FC067C081
S11317E09081913059F49AB3BA0102C0660F771F01
S11317F02A95E2F79B01292B2ABB59C03AB3BA01B7
S113180002C0660F771F2A95E2F7962F90959323CF
S11318109ABB4DC09081913059F497B3BA0102C07C
S1131820660F771F2A95E2F79B01292B27BB3FC040
S113183037B3BA0102C0660F771F2A95E2F7962FD5
S11318409095932397BB33C09081913059F494B30E
S1131850BA0102C0660F771F2A95E2F79B01292B74
S113186024BB25C034B3BA0102C0660F771F2A9582
S1131870E2F7962F9095932394BB19C090819130F1
S113188059F491B3BA0102C0660F771F2A95E2F7A3
S11318909B01292B21BB0BC031B3BA0102C0660FD7
S11318A0771F2A95E2F7962F9095932391BB8F5F2C
S11318B03296803209F085CF08951F920F920FB6A9
S11318C00F9211242F933F934F935F936F937F93C2
S11318D08F939F93AF93BF93EF93FF93E09166052C
S11318E0F09167050995FF91EF91BF91AF919F9199
S11318F08F917F916F915F914F913F912F910F90B5
S11319000FBE0F901F9018951F920F920FB60F9253
S113191011242F933F934F935F936F937F938F93F0
S11319209F93AF93BF93EF93FF93E0916405F0917E
S113193065050995FF91EF91BF91AF919F918F91AB
S11319407F916F915F914F913F912F910F900FBEB7
S11319500F901F9018951F920F920FB60F9211249B
S11319602F933F934F935F936F937F938F939F93A3
S1131970AF93BF93EF93FF93E0916205F0916305FA
S11319800995FF91EF91BF91AF919F918F917F91B5
S11319906F915F914F913F912F910F900FBE0F90D8
S11319A01F901895CF93DF93EC0188818823A9F0C9
S11319B0813029F561E08CE00E94380B61E08DE014
S11319C00E94380B60E08EE00E94380B61E08FE0EB
S11319D00E94380B6C9A6E9A12C060E08CE00E94F0
S11319E0380B60E08DE00E94380B61E08EE00E94CD
S11319F0380B60E08FE00E94380B6C986E9A2DB122
S1131A00998130E2939FC0011124822B8DB98B817F
S1131A10813031F4709A9DB18A81892B8DB905C0CA
S1131A2070989DB18A81892B8DB9DF91CF910895EA
S1131A308FB9779BFECF8FB10895FC0180818130EF
S1131A4099F028F08230E9F0833041F133C08FB54A
S1131A508E7F8FBD8FB58D7F8FBD8EB5877F8EBDF9
S1131A608EB58F7E8EBD26C08FB58E7F8FBD8FB510
S1131A708D7F8FBD8EB588608EBD8EB58F7E8EBDF9
S1131A8019C08FB58E7F8FBD8FB582608FBD8EB527
S1131A9088608EBD8EB580618EBD0CC08FB58E7F83
S1131AA08FBD8FB582608FBD8EB5877F8EBD8EB59D
S1131AB080618EBD8181823001F128F4882349F050
S1131AC0813089F041C0843061F108F1853099F1A9
S1131AD03BC08EB58E7F8EBD8EB58D7F8EBD8EB58F
S1131AE08B7F8EBD31C08EB581608EBD8EB58D7FEE
S1131AF08EBD8EB58B7F8EBD27C08EB58E7F8EBD7D
S1131B008EB582608EBD8EB58B7F8EBD1DC08EB5A9
S1131B1081608EBD8EB582608EBD8EB58B7F8EBD8D
S1131B2013C08EB58E7F8EBD8EB58D7F8EBD8EB566
S1131B3084608EBD09C08EB581608EBD8EB58D7FEB
S1131B408EBD8EB584608EBD8281823059F0833023
S1131B5081F0811114C08FB58F7B8FBD8FB58F77C6
S1131B608FBD0DC08FB58F7B8FBD8FB580688FBD46
S1131B7006C08FB58F7B8FBD8FB58F778FBD99B71B
S1131B808781880F880F892B89BF08959BBD8ABDE3
S1131B90089597BD86BD08951F920F920FB60F92B8
S1131BA011242F933F934F935F936F937F938F935E
S1131BB09F93AF93BF93EF93FF93E0916C05F091E4
S1131BC06D050995FF91EF91BF91AF919F918F9111
S1131BD07F916F915F914F913F912F910F900FBE25
S1131BE00F901F9018951F920F920FB60F92112409
S1131BF02F933F934F935F936F937F938F939F9311
S1131C00AF93BF93EF93FF93E0916A05F0916B0557
S1131C100995FF91EF91BF91AF919F918F917F9122
S1131C206F915F914F913F912F910F900FBE0F9045
S1131C301F9018951F920F920FB60F9211242F9395
S1131C403F934F935F936F937F938F939F93AF9340
S1131C50BF93EF93FF93E0916805F09169050995AF
S1131C60FF91EF91BF91AF919F918F917F916F9170
S1131C705F914F913F912F910F900FBE0F901F9046
S1131C80189582B98EE080B9089586B7806286BFC0
S1131C9086B78F7E86BF86B78F7B86BF86B7846004
S1131CA086BF86B7806886BF06B607FEFDCF81B1C2
S1131CB0887F089583B986B78F7D86BF86B78F7E68
S1131CC086BF86B78F7B86BF86B7846086BF86B79C
S1131CD0806886BF06B607FEFDCF81B1887F089570
S1131CE0FC0196B79F7D96BF96B79F7E96BF96B729
S1131CF09F7B96BF96B7946096BF96B7906896BF41
S1131D0006B607FEFDCF83B1808381B1887F089535
S1131D1086B78F7D86BF86B7806186BF86B78F7B87
S1131D2086BF86B7846086BF86B7806886BF0895FD
S1131D30CF93DF93EC018A818130E9F4599A2881A9
S1131D403981C901A0E0B0E0880F991FAA1FBB1F09
S1131D50880F991FAA1FBB1F9C01AD01220F331FBF
S1131D60441F551F60E074E284EF90E00E94C110AC
S1131D702150310920C0599828813981C901A0E036
S1131D80B0E0880F991FAA1FBB1F880F991FAA1FB5
S1131D90BB1F9C01AD01220F331F441F551F220F8F
S1131DA0331F441F551F60E074E284EF90E00E94EB
S1131DB0C1102150310929B930BD9B81973041F4BC
S1131DC080B5826080BD80B5846080BD529A05C0B4
S1131DD080B5990F8068892B80BD80B59C81990F4F
S1131DE0990F990F8068892B80BD20B59D8130E1C2
S1131DF0939FC0011124922F9068892B80BD8E81FE
S1131E0080FD539A80FF53988F8180FD549A80FF00
S1131E105498DF91CF9108955D9BFECF8CB90895BE
S1131E200F931F93CF93FC018081882359F08F0176
S1131E30C0E00E940C0FCF5FF801EC0FF11D808110
S1131E408111F7CFCF911F910F9108955F9BFECF22
S1131E508CB108955058BB27AA270E94420F0C94B6
S1131E601A100E940C1038F00E94131020F039F45C
S1131E709F3F19F426F40C9409100EF4E095E7FB47
S1131E800C940310E92F0E942B1058F3BA17620721
S1131E9073078407950720F079F4A6F50C944D1088
S1131EA00EF4E0950B2EBA2FA02D0B01B901900171
S1131EB00C01CA01A0011124FF27591B99F0593FB5
S1131EC050F4503E68F11A16F040A22F232F342FFD
S1131ED04427585FF3CF469537952795A795F0404B
S1131EE05395C9F77EF41F16BA0B620B730B840B60
S1131EF0BAF09150A1F0FF0FBB1F661F771F881F18
S1131F00C2F70EC0BA0F621F731F841F48F487956F
S1131F1077956795B795F7959E3F08F0B0CF939561
S1131F20880F08F09927EE0F9795879508950E94DA
S1131F30331088F09F5798F0B92F9927B751B0F014
S1131F40E1F0660F771F881F991F1AF0BA95C9F739
S1131F5014C0B13091F00E944D10B1E008950C947A
S1131F604D10672F782F8827B85F39F0B93FCCF32D
S1131F70869577956795B395D9F73EF490958095B6
S1131F80709561957F4F8F4F9F4F0895E89409C0D6
S1131F9097FB3EF490958095709561957F4F8F4F98
S1131FA09F4F9923A9F0F92F96E9BB279395F695AE
S1131FB0879577956795B795F111F8CFFAF4BB0F2C
S1131FC011F460FF1BC06F5F7F4F8F4F9F4F16C090
S1131FD0882311F096E911C0772321F09EE8872F1A
S1131FE0762F05C0662371F096E8862F70E060E0D6
S1131FF02AF09A95660F771F881FDAF7880F96954F
S1132000879597F9089597F99F6780E870E060E0F5
S113201008959FEF80EC089500240A94161617067D
S113202018060906089500240A94121613061406C5
S113203005060895092E0394000C11F4882352F028
S1132040BB0F40F4BF2B11F460FF04C06F5F7F4FE0
S11320508F4F9F4F089557FD9058440F551F59F0C7
S11320605F3F71F04795880F97FB991F61F09F3F81
S113207079F087950895121613061406551FF2CFAA
S11320804695F1DF08C0161617061806991FF1CFFA
S113209086957105610508940895E894BB27662721
S11320A07727CB0197F908950E9467100C941A10B2
S11320B00E940C1038F00E94131020F0952311F0A8
S11320C00C9403100C94091011240C944E100E94CB
S11320D02B1070F3959FC1F3950F50E0551F629F2D
S11320E0F001729FBB27F00DB11D639FAA27F00D6D
S11320F0B11DAA1F649F6627B00DA11D661F829F94
S11321002227B00DA11D621F739FB00DA11D621F78
S1132110839FA00D611D221F749F3327A00D611D95
S1132120231F849F600D211D822F762F6A2F112477
S11321309F5750409AF0F1F088234AF0EE0FFF1FAA
S1132140BB1F661F771F881F91505040A9F79E3F01
S1132150510580F00C9403100C944E105F3FE4F38F
S1132160983ED4F3869577956795B795F795E79557
S11321709F5FC1F7FE2B880F911D9695879597F960
S11321800895A1E21A2EAA1BBB1BFD010DC0AA1FB4
S1132190BB1FEE1FFF1FA217B307E407F50720F0CC
S11321A0A21BB30BE40BF50B661F771F881F991F47
S11321B01A9469F760957095809590959B01AC0190
S11321C0BD01CF010895EE0FFF1F0590F491E02D9E
S10921D00994F894FFCF0E
S11321D607050700000000003738392F3435362A42
S11321E63132332D43303D2B1617000112131415CB
S11321F601010101010101010101010101010101C5
S113220601010101010101010101010101010101B4
S113221601010101010101010101010101010101A4
S11322260101010101010101010101010101010194
S113223602030200000000008025000300000101E3
S1132246414C41524D2121212100436F7272656335
S1132256742050617373776F7264210021486F6D27
S1132266655377656574486F6D65210057726F6EA7
S1132276672050617373776F7264210053797374A6
S1132286656D20426C6F636B6564210046697269F3
S11322966E6720416C61726D21212100547269615F
S11322A66C73206C6566743A2000536D6172742DEC
S11322B6486F6D650050726F6A65637421004C6FD8
S11322C667696E2066697273742074696D6500535C
S11322D6657450617373776F72643A00436F6E6608
S11322E669726D3A0050617373776F72642053613B
S11322F6766564210050617373206D69736D617432
S11323066368210054727920616761696E21005700
S1132316656C636F6D6520486F6D6500313A4C617D
S11323266D703120323A4C616D703200333A4C6133
S11323366D7033004C6564206973204F6E21003143
S11323463A5475726E6F666620323A6261636B0048
S11323560A4C616D70312C526F6F6D322069732097
S11323664F6666206E6F7721004C65642069732082
S11323764F66662100313A5475726E4F6E20323ABA
S11323866261636B000A4C616D70312C526F6F6D24
S113239632206973206F6E206E6F7721000A4C61BC
S11323A66D70322C526F6F6D32206973204F6666E2
S11323B6206E6F7721000A4C616D70322C526F6F5C
S11323C66D32206973206F6E206E6F7721000A4C80
S11323D6616D70332C526F6F6D32206973204F66B6
S11323E666206E6F7721000A4C616D70332C526F34
S11323F66F6D32206973206F6E206E6F77210057E0
S1132406726F6E672063686F6963652100313A52A3
S11324164F4F4D3100323A524F4F4D320057726F83
S11324266E672043686F6963652100446F6F72208D
S1132436697320636C6F73656421007072657373CE
S11324462031206F70656E007072657373203020C2
S113245672657475726E006F70656E696E6720645E
S11324666F6F72000A4D61696E20646F6F72206F20
S113247670656E6564210052657475726E20746FA2
S1132486206D656E752100446F6F72206973206F2D
S113249670656E6564210070726573732031206304
S11324A66C6F736500636C6F73696E6720646F6F1E
S11324B672000A4D61696E20646F6F7220636C6FDF
S11324C67365642100333A416972436F6E646974BB
S11324D6696F6E6572000A4C616D70312C526F6FB4
S11324E66D31206973204F6666206E6F7721000A6E
S11324F64C616D70312C526F6F6D31206973206F92
S11325066E206E6F7721000A4C616D70322C526F0B
S11325166F6D31206973204F6666206E6F772100D8
S11325260A4C616D70322C526F6F6D3120697320C5
S11325366F6E206E6F7721004169722D436F6E6452
S1132546206973204F6E21000A41697220636F6E01
S1132556646974696F6E65722C526F6F6D31206990
S113256673204F6666206E6F7721004169722D4392
S11325766F6E64206973204F66662100536574206C
S113258654656D703A5F5F000A41697220636F6E2D
S1132596646974696F6E65722C526F6F6D31206950
S11325A673206F6E206E6F7721000A0A536D617275
S11325B6742D486F6D652050726F6A6563740A41A5
S11325C6646D696E206D6F64650A00526F6F6D31BC
S11325D60A3131294C616D70310A3232294C616DF0
S11325E670320A3333294169722D436F6E646974FC
S11325F6696F6E65720A0A000A526F6F6D320A3489
S113260634294C616D70310A3535294C616D70324F
S11326160A3636294C616D70330A37294D61696E65
S11326262D446F6F720A3829557365722D4D6F6488
S113263665000A4C616D70205475726E6564204F96
S11326466666210A000A4C616D70205475726E65C7
S113265664206F6E210A000A41697220636F6E64FA
S11326666974696F6E6572205475726E6564204F65
S11326766666210A000A41697220636F6E64697492
S1132686696F6E6572205475726E6564206F6E2173
S11326960A000A4F70656E696E67204D61696E2087
S11326A6446F6F72210A000A436C6F73696E672068
S11326B64D61696E20446F6F72210A000A0A0A0A84
S11326C60A0A0A0A55736572206D6F6465204F6E97
S10526D62100DD
S9030000FC
