S00D00004F435432332E73726563CC
S11300000C9432000C94AF0C0C94D60C0C94FD0C94
S11300100C944F000C944F000C944F000C941E0E43
S11300200C94450E0C946C0E0C944F000C944F00E1
S11300300C944F000C944F000C944F000C944F0000
S11300400C944F000C944F000C944F000C944F00F0
S11300500C944F00FD0014012B0146015E01760152
S11300608E01C20111241FBECFE5D8E0DEBFCDBF93
S113007015E0A0E6B0E0EAE7F2E202C005900D92D6
S1130080A43CB107D9F725E0A4ECB5E001C01D926A
S1130090A03DB207E1F70E94950A0C943B110C9421
S11300A00000CF92DF92EF92FF920F931F93CF93B2
S11300B0DF9300D000D0CDB7DEB7082F19821A82A3
S11300C01B821C82CE0101967C016C0110E0612F21
S11300D0802F0E949008F60181936F011F5F1430F6
S11300E0B1F79E012B5F3F4F90E0F70181917F01B3
S11300F08F3F09F49F5FE216F306B9F781E094306D
S113010009F480E00F900F900F900F90DF91CF9142
S11301101F910F91FF90EF90DF90CF9008950F9370
S11301201F93CF93DF93D82F8B01C0E06C2F8D2FBB
S11301300E949008F80181938F01FFEF20E782E08D
S1130140F15020408040E1F700C00000CF5FC43090
S113015069F7DF91CF911F910F91089560E082EAD2
S11301600E9490088F3FB1F00E94480A80ED90E011
S11301700E94060A2FEF83EC99E0215080409040C2
S1130180E1F700C000000E94480A61E088E00E9494
S1130190D50AEACF089560E084EA0E9490082FEF20
S11301A030E792E0215030409040E1F700C0000079
S11301B08F3F21F08AE590E00E944C0A08950E9446
S11301C0480A8AED90E00E94060A88EE90E00E94B8
S11301D06A0889E091E00E946A0886E391E00E943F
S11301E06A080E946D0890E0FC01F197E830F1057F
S11301F0C0F7E65DFF4F0C94351181E30E946A0D50
S11302008F3441F480E791E00E946A0881E20E9401
S11302106A0DE7CF863429F783E891E00E946A08E3
S113022081E10E946A0DDDCF82E30E946A0D8F3462
S113023041F482E20E946A0D80E791E00E946A081C
S1130240D0CF863471F682E10E946A0D83E891E092
S11302500E946A08C6CF86E30E946A0D8F3441F477
S113026086E20E946A0D85E991E00E946A08B9CF8E
S1130270863409F0B6CF86E10E946A0D88E10E94B7
S11302806A0D83EB91E00E946A08ABCF83E30E947E
S11302906A0D8F3441F483E20E946A0D80E791E095
S11302A00E946A089ECF863409F09BCF83E10E94A6
S11302B06A0D83E891E00E946A0893CF84E30E9468
S11302C06A0D8F3441F484E20E946A0D80E791E064
S11302D00E946A0886CF863409F083CF84E10E94A5
S11302E06A0D83E891E00E946A087BCF85E30E944F
S11302F06A0D8F3441F485E20E946A0D80E791E033
S11303000E946A086ECF863409F06BCF85E10E94A3
S11303106A0D83E891E00E946A0863CF60E084EA92
S11303200E9490088F3FB9F480ED91E00E94620F23
S11303308AE590E00E944C0A41E360E084EA0E946E
S113034070082FEF83EC99E0215080409040E1F752
S113035000C0000046CF85EE91E00E94620F80E06D
S113036090E00E944C0A4FEF60E084EA0E9470081B
S11303702FEF83EC99E0215080409040E1F700C0DA
S113038000002FCF8AEF91E00E946A082FEF80E7E8
S113039092E0215080409040E1F700C000000E94AC
S11303A02F0308950E94480A80E192E00E94060A01
S11303B060E082E00E941C0A81E292E00E94060A48
S11303C00E94F9088823E1F3823371F018F4813331
S11303D031F037C0833369F0843381F032C00E9436
S11303E0480A0E946104ECCF0E94480A0E949406C5
S11303F0E7CF0E94480A0E94DF00E2CF0E94480A29
S113040081E392E00E94060A2FEF83EC99E02150E9
S113041080409040E1F700C0000060E082E00E946C
S11304201C0A83E492E00E94060A2FEF83EC99E011
S1130430215080409040E1F700C000000E94350246
S1130440BFCF0E94480A81E592E00E94060A2FEF7E
S113045087E893E1215080409040E1F700C000001C
S11304600E94480A0E94D20108958F929F92BF92DF
S1130470CF92DF92EF92FF920F931F93CF93DF936C
S1130480CDB7DEB728970FB6F894DEBF0FBECDBF49
S113049019821A821B821C821D821E821F82188668
S11304A0BE016B5F7F4F80EA0E948F002FEF80E7D1
S11304B092E0215080409040E1F700C000000F2EF0
S11304C0F3E3BF2EF02D6E01A9E0CA0ED11C0E94E9
S11304D0480A8AEF92E00E94060A8E010F5F1F4FBE
S11304E04801E12C0E94F908F82E8823E1F00E94CB
S11304F0BE09BFEFE0E7F2E0B150E040F040E1F7C1
S113050000C0000069E06E0D81E00E941C0A8AE2CE
S11305100E94BE09D401FD924D01E394B4E0EB16B0
S113052009F487C0DFCFE3E0EE15E0F682C09191D5
S1130530D8018D918D01981301C02F5FCE16DF066F
S1130540B1F7243029F50E94480A8FE592E00E9411
S1130550060ABFEFE7E8F3E1B150E040F040E1F70D
S113056000C0000060E082E00E941C0A81E792E083
S11305700E94060A2FEF89E698E1215080409040BE
S1130580E1F700C000000E94480A0E94D20155C051
S11305900E94480A81E892E00E94060AA1E3BA1286
S11305A030C00E94480A81E992E00E94060A60E095
S11305B082E00E941C0A81EA92E00E94060A81EB12
S11305C092E00E946A0841E360E082EA0E947008B7
S11305D0BFEFE0E7F2E0B150E040F040E1F700C0E7
S11305E0000061E088E00E94D50A2FEF87E893E1DC
S11305F0215080409040E1F700C000000E94AE000E
S11306001CC0BA9460E082E00E941C0A82EC92E072
S11306100E94060A8B2D0E94BE09AFEFB7E8E3E102
S1130620A150B040E040E1F700C000000E94480A39
S11306304ECFFE01359620E07ACF28960FB6F89477
S1130640DEBF0FBECDBFDF91CF911F910F91FF9001
S1130650EF90DF90CF90BF909F908F9008958F92EE
S11306609F92AF92BF92CF92DF92EF92FF920F933D
S11306701F93CF93DF93CDB7DEB728970FB6F894C7
S1130680DEBF0FBECDBF0E94480A2FEF86E791E080
S1130690215080409040E1F700C0000062E081E01A
S11306A00E941C0A80ED92E00E94060A64E082E047
S11306B00E941C0A8DED92E00E94060AAFEFB7E893
S11306C0E3E1A150B040E040E1F700C000000E9427
S11306D0480A80EA0E9451008111C9C01D821E820D
S11306E01F82188619821A821B821C8286EE92E06F
S11306F00E94060AFFEF27E883E1F1502040804082
S1130700E1F700C000000E94480A6E0199E0C90E9A
S1130710D11C87EF92E00E94060A5E01A5E0AA0EB2
S1130720B11C750100E00E94F908182F8823D1F04C
S11307300E94BE09BFEFE0E7F2E0B150E040F040B4
S1130740E1F700C000006CE0600F81E00E941C0A29
S11307508AE20E94BE09D7011D937D010F5F043018
S113076019F0E1CF0430F8F20E94480A84E093E0E3
S11307700E94060A8E010F5F1F4F4801E12C0E9460
S1130780F908F82E8823D9F00E94BE09BFEFE0E7EC
S1130790F2E0B150E040F040E1F700C0000068E052
S11307A06E0D81E00E941C0A8AE20E94BE09D401F7
S11307B0FD924D01E394B4E0EB1621F0E0CFE3E0C9
S11307C0EE15E8F60E94480AF50120E09191D8015F
S11307D08D918D01981301C02F5FCE16DF06B1F7FE
S11307E0243021F510E0F50141915F01612F80EA89
S11307F00E947008FFEF23EC89E0F1502040804014
S1130800E1F700C000001F5F143069F78DE093E04A
S11308100E94060A9FEFA7E8B3E19150A040B040C0
S1130820E1F700C000000E94480A38C08DE193E05F
S11308300E94060AEFEFF3EC29E0E150F04020407B
S1130840E1F700C0000060E082E00E941C0A8CE234
S113085093E00E94060A8FEF93ECA9E08150904048
S1130860A040E1F700C000000E94480A52CF0E9455
S1130870480A62E081E00E941C0A87E393E00E9438
S1130880060ABFEFE7E8F3E1B150E040F040E1F7DA
S113089000C000000E94480A0E94350228960FB644
S11308A0F894DEBF0FBECDBFDF91CF911F910F91A2
S11308B0FF90EF90DF90CF90BF90AF909F908F907C
S11308C00895AF92BF92CF92DF92EF92FF920F936F
S11308D01F93CF93DF93A12C02E0E02EDA2DDA2CC4
S11308E0B02E0E94480A84E493E00E94060A6A2D0E
S11308F0802F0E941C0A84E593E00E94060A0E944D
S1130900F9088823E1F3823309F491C018F48133A0
S113091041F0ECC1833309F410C1843309F4E1C11B
S1130920E5C10E94480A2FEF80E792E02150804001
S11309309040E1F700C0000081E30E946A0D2FEFB0
S113094080E792E0215080409040E1F700C0000031
S113095081E00E946A0D8F3489F50E94480A85E679
S113096093E00E94060A6D2F8E2D0E941C0A80E7D8
S113097093E00E94060A0E94F908C82F8823D9F33D
S11309802FEF81EE94E0215080409040E1F700C0C9
S11309900000C13319F0C23359F044C081E20E940F
S11309A06A0D81E893E00E946A080E946104E3CF23
S11309B089E90E946A0D0E94610434C0863489F575
S11309C00E94480A8AE993E00E94060A6D2F8E2D40
S11309D00E941C0A86EA93E00E94060A0E94F90813
S11309E0C82F8823D9F32FEF81EE94E02150804063
S11309F09040E1F700C00000C13319F0C23359F050
S1130A0011C081E10E946A0D86EB93E00E946A089E
S1130A100E946104E3CF89E90E946A0D0E94610487
S1130A2001C0CD2F0E94480A0E9461046FC10E9438
S1130A30480A2FEF80E792E0215080409040E1F790
S1130A4000C0000082E30E946A0D2FEF80E792E06D
S1130A50215080409040E1F700C0000081E00E94F6
S1130A606A0D8F3489F50E94480A85E693E00E9456
S1130A70060A6D2F8E2D0E941C0A80E793E00E94C7
S1130A80060A0E94F908C82F8823D9F32FEF81EEB4
S1130A9094E0215080409040E1F700C00000C13351
S1130AA019F0C23359F044C082E20E946A0D8EEC00
S1130AB093E00E946A080E946104E3CF89E90E94DE
S1130AC06A0D0E94610434C0863489F50E94480A84
S1130AD08AE993E00E94060A6D2F8E2D0E941C0A5B
S1130AE086EA93E00E94060A0E94F908C82F882328
S1130AF0D9F32FEF81EE94E0215080409040E1F74C
S1130B0000C00000C13319F0C23359F011C082E1B2
S1130B100E946A0D87EE93E00E946A080E946104B5
S1130B20E3CF89E90E946A0D0E946104DDCFCD2FD5
S1130B300E94480A0E946104E9C00E94480A2FEFFB
S1130B4080E792E0215080409040E1F700C000002F
S1130B5086E30E946A0D2FEF80E792E021508040E7
S1130B609040E1F700C0000081E00E946A0D8F34DC
S1130B7089F50E94480A8FEF93E00E94060A6D2FC0
S1130B808E2D0E941C0A80E793E00E94060A0E94B0
S1130B90F908C82F8823D9F32FEF81EE94E0215070
S1130BA080409040E1F700C00000C13319F0C23327
S1130BB059F092C086E20E946A0D8FE094E00E9490
S1130BC06A080E946104E3CF89E90E946A0D0E94C9
S1130BD0610482C0863409F07EC00E94480A82E320
S1130BE094E00E94060A6D2F8E2D0E941C0A86EA4C
S1130BF093E00E94060A0E94F908C82F8823D9F3BB
S1130C002FEF81EE94E0215080409040E1F700C046
S1130C100000C13321F0C23309F453C058C00E940C
S1130C20480A83E494E00E94060A60E670E081E0EA
S1130C300E942D0A6BE081E00E941C0A81E00E9460
S1130C40BE0983E40E94BE0969E081E00E941C0A97
S1130C5011E0CD2C0E94F908C82F882371F01130BF
S1130C6029F40E94BE09CC2E1B2DF4CF123049F476
S1130C700E94BE099C2FCD2D05C0133058F3982F28
S1130C8001C09D2D8C2D880F8056F82EFF0CFF0C73
S1130C90F80E9053F90E2FEF81EE94E0215080402E
S1130CA09040E1F700C0000086E10E946A0D8FE4E5
S1130CB094E00E946A088F2D0E946A0D0E946104CC
S1130CC006C089E90E946A0D0E94610494CFCC2376
S1130CD009F491CF01C0CD2F0E94480A0E946104FB
S1130CE015C00E94480A0E94D20113C00E94480AFB
S1130CF081E794E00E94060A2FEF89E698E12150EB
S1130D0080409040E1F700C00000EBCDCC2309F413
S1130D10F6CDDF91CF911F910F91FF90EF90DF906F
S1130D20CF90BF90AF9008951F93CF93DF9310E0BF
S1130D30D12F0E94480A84E493E00E94060A612F9E
S1130D4082E00E941C0A8FE794E00E94060A0E9437
S1130D50F9088823E1F3823309F491C018F481334C
S1130D6041F09EC1833309F410C1843309F493C163
S1130D7097C10E94480A2FEF80E792E021508040FB
S1130D809040E1F700C0000083E30E946A0D2FEF5A
S1130D9080E792E0215080409040E1F700C00000DD
S1130DA081E00E946A0D8F3489F50E94480A85E625
S1130DB093E00E94060A6D2F82E00E941C0A80E7DD
S1130DC093E00E94060A0E94F908C82F8823D9F3E9
S1130DD02FEF81EE94E0215080409040E1F700C075
S1130DE00000C13319F0C23359F044C083E20E94B9
S1130DF06A0D80E994E00E946A080E949406E3CF99
S1130E0089E90E946A0D0E94940634C0863489F5EB
S1130E100E94480A8AE993E00E94060A6D2F82E044
S1130E200E941C0A86EA93E00E94060A0E94F908BE
S1130E30C82F8823D9F32FEF81EE94E0215080400E
S1130E409040E1F700C00000C13319F0C23359F0FB
S1130E5011C083E10E946A0D89EA94E00E946A0845
S1130E600E949406E3CF89E90E946A0D0E949406C9
S1130E7001C0CD2F0E94480A0E94940621C10E94FD
S1130E80480A2FEF80E792E0215080409040E1F73C
S1130E9000C0000084E30E946A0D2FEF80E792E017
S1130EA0215080409040E1F700C0000081E00E94A2
S1130EB06A0D8F3489F50E94480A85E693E00E9402
S1130EC0060A6D2F82E00E941C0A80E793E00E94CC
S1130ED0060A0E94F908C82F8823D9F32FEF81EE60
S1130EE094E0215080409040E1F700C00000C133FD
S1130EF019F0C23359F044C084E20E946A0D81ECB7
S1130F0094E00E946A080E949406E3CF89E90E9453
S1130F106A0D0E94940634C0863489F50E94480AFA
S1130F208AE993E00E94060A6D2F82E00E941C0A5F
S1130F3086EA93E00E94060A0E94F908C82F8823D3
S1130F40D9F32FEF81EE94E0215080409040E1F7F7
S1130F5000C00000C13319F0C23359F011C084E15C
S1130F600E946A0D8AED94E00E946A080E94940629
S1130F70E3CF89E90E946A0D0E949406DDCFCD2F4C
S1130F800E94480A0E9494069BC00E94480A2FEFC0
S1130F9080E792E0215080409040E1F700C00000DB
S1130FA085E30E946A0D2FEF80E792E02150804094
S1130FB09040E1F700C0000081E00E946A0D8F3488
S1130FC089F50E94480A85E693E00E94060A6D2F7F
S1130FD082E00E941C0A80E793E00E94060A0E94B5
S1130FE0F908C82F8823D9F32FEF81EE94E021501C
S1130FF080409040E1F700C00000C13319F0C233D3
S113100059F044C085E20E946A0D82EF94E00E9488
S11310106A080E949406E3CF89E90E946A0D0E943F
S1131020940634C0863489F50E94480A8AE993E01C
S11310300E94060A6D2F82E00E941C0A86EA93E051
S11310400E94060A0E94F908C82F8823D9F32FEFBB
S113105081EE94E0215080409040E1F700C0000010
S1131060C13319F0C23359F011C085E10E946A0DF1
S11310708BE095E00E946A080E949406E3CF89E918
S11310800E946A0D0E949406DDCFCD2F0E94480A6B
S11310900E94940615C00E94480A0E94D20113C0FF
S11310A00E94480A81E794E00E94060A2FEF89E62D
S11310B098E1215080409040E1F700C0000039CE13
S11310C0CC2309F444CEDF91CF911F9108950E945F
S11310D0EA0E08950E94620F08950E94780F089501
S11310E01F93CF93DF93C82FD62F142F0E94970EF0
S11310F0883091F48C2F8E7F0E94AC0E883161F47D
S11311008D2F0E94AC0E883239F4812F0E94AC0ED0
S1131110883211F40E94DA0EDF91CF911F91089565
S11311200F931F93CF93DF931F92CDB7DEB7182F82
S1131130062F19820E94970E8830E9F4812F8E7F42
S11311400E94AC0E8831B9F4802F0E94AC0E883214
S113115091F40E94970E803171F4812F81600E9476
S1131160AC0E803441F4CE0101960E94C20E883543
S113117011F40E94DA0E89810F90DF91CF911F91B3
S11311800F910895EF92FF920F931F93CF93DF93E4
S1131190C8E7D0E00F2EFCE7EF2EF0E0FF2EF02D95
S11311A08E0160E089910E948A0B61E0F8018081E0
S11311B00E94D50ACE15DF0599F7CCE7D0E00F2EB3
S11311C0F0E8EF2EF0E0FF2EF02D8E0161E0899122
S11311D00E948A0B61E0F80180810E94D50ACE1535
S11311E0DF0599F7DF91CF911F910F91FF90EF9059
S11311F008956F927F928F929F92AF92BF92CF92F7
S1131200DF92EF92FF920F931F93CF93DF930CE73C
S113121010E0C12CD12C4601580160E0F801808116
S11312200E94D50AC8E7D0E0612C712C7301899122
S11312300E94570B811114C0E301C858DF4F888105
S11312400E94570B8823D9F3C401880F991F880F74
S1131250991F88599F4FFC01EE0DFF1D808116C018
S1131260FFEF6F1A7F0A84E068167104F9F60F5FC6
S11312701F4F61E0F50180810E94D50AFFEFCF1A6C
S1131280DF0A84E0C816D10431F680E0DF91CF9103
S11312901F910F91FF90EF90DF90CF90BF90AF9090
S11312A09F908F907F906F900895CF93C82F60E0A8
S11312B089E00E94D50A80E00E940C0C8F709C2F5C
S11312C0907F682F692B80E00E941E0C60E08BE009
S11312D00E94D50A8FE891E00197F1F700C0000061
S11312E061E08BE00E94D50A8FE19EE40197F1F75B
S11312F000C0000080E00E940C0C8F7090E1C99F38
S113130090011124682F622B80E00E941E0C60E083
S11313108BE00E94D50A8FE891E00197F1F700C0B5
S1131320000061E08BE00E94D50A8FE39FE1019702
S1131330F1F700C00000CF91089560E08AE00E94B8
S1131340D50A61E08BE00E94D50A2FEF89EF90E087
S1131350215080409040E1F700C0000083E30E94E8
S1131360550982E30E94550988E20E94550986E0E6
S11313700E9455098CE00E9455090895CF93C82F07
S113138061E089E00E94D50A80E00E940C0C8F7015
S11313909C2F907F682F692B80E00E941E0C60E0D8
S11313A08BE00E94D50A8FE891E00197F1F700C025
S11313B0000061E08BE00E94D50A8FE19EE4019772
S11313C0F1F700C0000080E00E940C0C8F7090E1E7
S11313D0C99F90011124682F622B80E00E941E0C8B
S11313E060E08BE00E94D50A8FE891E00197F1F765
S11313F000C0000061E08BE00E94D50A8FE39FE10A
S11314000197F1F700C00000CF9108950F931F9347
S1131410CF93FC018081882359F08F01C0E00E94A2
S1131420BE09CF5FF801EC0FF11D80818111F7CF68
S1131430CF911F910F910895813019F0823039F0C6
S11314400895862F8F7080680E9455090895862F0D
S11314508F70806C0E94550908950F931F93CF934A
S1131460DF93883080F48B01880F880F880F805CAD
S11314700E945509E801085F1F4F89910E94BE0927
S1131480C017D107D1F7DF91CF911F910F91089524
S113149081E00E94550908950F931F93CF93DF9322
S11314A0CDB7DEB728970FB6F894DEBF0FBECDBF19
S11314B08C0161E08DE10E948A0B87E893E10E9430
S11314C01B0EB80180E090E00E9418102CE137EC6C
S11314D041EB5FE30E94A61020E030E04AE753E4CA
S11314E00E947D0F20E030E040E85FE30E947C0F23
S11314F00E94E90FCB010E94180E88E0E0ECF0E0B6
S1131500DE01119601900D928A95E1F7CE010196C4
S11315100E946F0D28960FB6F894DEBF0FBECDBFA4
S1131520DF91CF911F910F910895CF93DF93CDB7A2
S1131530DEB72C970FB6F894DEBF0FBECDBF81E0A7
S113154089831A8282E08B831C820E942E0C0E9463
S11315509D090E94C20886E60E94930ECE01019660
S11315600E94240D88E0E8ECF0E0DE01159601907D
S11315700D928A95E1F7CE0105960E94670860E016
S113158088E10E948A0B2FEF81EE94E02150804085
S11315909040E1F700C000000E94AE000E94CB0022
S11315A00E94DF000E94D201FBCF982F977086958E
S11315B086958695813021F130F08230F1F18330C7
S11315C009F458C00895613069F44BB321E030E068
S11315D0B90102C0660F771F9A95E2F7CB01842BFD
S11315E08BBB08954BB321E030E0B90102C0660F14
S11315F0771F9A95E2F7CB01809584238BBB0895DE
S1131600613069F448B321E030E0B90102C0660FEB
S1131610771F9A95E2F7CB01842B88BB089548B3D2
S113162021E030E0B90102C0660F771F9A95E2F716
S1131630CB018095842388BB0895613069F445B358
S113164021E030E0B90102C0660F771F9A95E2F7F6
S1131650CB01842B85BB089545B321E030E0B9016B
S113166002C0660F771F9A95E2F7CB018095842319
S113167085BB0895613069F442B321E030E0B901DB
S113168002C0660F771F9A95E2F7CB01842B82BBC9
S1131690089542B321E030E0B90102C0660F771F1C
S11316A09A95E2F7CB018095842382BB0895282F75
S11316B02770869586958695813079F028F082305A
S11316C0A9F08330E1F024C089B390E002C095957D
S11316D087952A95E2F78170089586B390E002C059
S11316E0959587952A95E2F78170089583B390E0E4
S11316F002C0959587952A95E2F78170089580B385
S113170090E002C0959587952A95E2F78170089537
S113171080E00895982F97708695869586958130F8
S113172021F130F08230F1F1833009F458C008958A
S1131730613069F44AB321E030E0B90102C0660FB8
S1131740771F9A95E2F7CB01842B8ABB08954AB39D
S113175021E030E0B90102C0660F771F9A95E2F7E5
S1131760CB01809584238ABB0895613069F447B323
S113177021E030E0B90102C0660F771F9A95E2F7C5
S1131780CB01842B87BB089547B321E030E0B90136
S113179002C0660F771F9A95E2F7CB0180958423E8
S11317A087BB0895613069F444B321E030E0B901A6
S11317B002C0660F771F9A95E2F7CB01842B84BB96
S11317C0089544B321E030E0B90102C0660F771FE9
S11317D09A95E2F7CB018095842384BB0895613008
S11317E069F441B321E030E0B90102C0660F771F0C
S11317F09A95E2F7CB01842B81BB089541B321E094
S113180030E0B90102C0660F771F9A95E2F7CB0169
S11318108095842381BB0895813041F028F0823083
S113182039F0833039F008C08BB3089588B3089534
S113183085B3089582B3089580E00895813041F01E
S113184028F0823039F0833039F008956BBB089565
S113185068BB089565BB089562BB0895E0E8F0E0B5
S113186080E041E050E0282F2770982F96959695B8
S11318709695913009F130F09230C1F1933009F42A
S11318804FC067C09081913059F49AB3BA0102C035
S1131890660F771F2A95E2F79B01292B2ABB59C0B3
S11318A03AB3BA0102C0660F771F2A95E2F7962F62
S11318B0909593239ABB4DC09081913059F497B37E
S11318C0BA0102C0660F771F2A95E2F79B01292B04
S11318D027BB3FC037B3BA0102C0660F771F2A95F2
S11318E0E2F7962F9095932397BB33C09081913064
S11318F059F494B3BA0102C0660F771F2A95E2F730
S11319009B01292B24BB25C034B3BA0102C0660F46
S1131910771F2A95E2F7962F9095932394BB19C0CD
S11319209081913059F491B3BA0102C0660F771FC8
S11319302A95E2F79B01292B21BB0BC031B3BA01D5
S113194002C0660F771F2A95E2F7962F909593238E
S113195091BB8F5F3296803209F085CF08951F9234
S11319600F920FB60F9211242F933F934F935F93CF
S11319706F937F938F939F93AF93BF93EF93FF9353
S1131980E091C805F091C9050995FF91EF91BF91C8
S1131990AF919F918F917F916F915F914F913F9103
S11319A02F910F900FBE0F901F9018951F920F92BA
S11319B00FB60F9211242F933F934F935F936F931E
S11319C07F938F939F93AF93BF93EF93FF93E09194
S11319D0C605F091C7050995FF91EF91BF91AF91AD
S11319E09F918F917F916F915F914F913F912F9133
S11319F00F900FBE0F901F9018951F920F920FB665
S1131A000F9211242F933F934F935F936F937F9380
S1131A108F939F93AF93BF93EF93FF93E091C4058C
S1131A20F091C5050995FF91EF91BF91AF919F91F9
S1131A308F917F916F915F914F913F912F910F9073
S1131A400FBE0F901F901895CF93DF93EC01888100
S1131A508823A9F0813029F561E08CE00E948A0B8B
S1131A6061E08DE00E948A0B60E08EE00E948A0BA8
S1131A7061E08FE00E948A0B6C9A6E9A12C060E05B
S1131A808CE00E948A0B60E08DE00E948A0B61E08A
S1131A908EE00E948A0B60E08FE00E948A0B6C98B3
S1131AA06E9A2DB1998130E2939FC0011124822B4B
S1131AB08DB98B81813031F4709A9DB18A81892BE3
S1131AC08DB905C070989DB18A81892B8DB9DF913C
S1131AD0CF9108958FB9779BFECF8FB10895FC0104
S1131AE08081813099F028F08230E9F0833041F12F
S1131AF033C08FB58E7F8FBD8FB58D7F8FBD8EB573
S1131B00877F8EBD8EB58F7E8EBD26C08FB58E7FAE
S1131B108FBD8FB58D7F8FBD8EB588608EBD8EB520
S1131B208F7E8EBD19C08FB58E7F8FBD8FB58260BD
S1131B308FBD8EB588608EBD8EB580618EBD0CC0A4
S1131B408FB58E7F8FBD8FB582608FBD8EB5877F39
S1131B508EBD8EB580618EBD8181823001F128F405
S1131B60882349F0813089F041C0843061F108F163
S1131B70853099F13BC08EB58E7F8EBD8EB58D7F3D
S1131B808EBD8EB58B7F8EBD31C08EB581608EBD0E
S1131B908EB58D7F8EBD8EB58B7F8EBD27C08EB5E5
S1131BA08E7F8EBD8EB582608EBD8EB58B7F8EBDD1
S1131BB01DC08EB581608EBD8EB582608EBD8EB522
S1131BC08B7F8EBD13C08EB58E7F8EBD8EB58D7FFF
S1131BD08EBD8EB584608EBD09C08EB581608EBD0C
S1131BE08EB58D7F8EBD8EB584608EBD8281823030
S1131BF059F0833081F0811114C08FB58F7B8FBD74
S1131C008FB58F778FBD0DC08FB58F7B8FBD8FB58F
S1131C1080688FBD06C08FB58F7B8FBD8FB58F77E2
S1131C208FBD99B78781880F880F892B89BF089545
S1131C309BBD8ABD089597BD86BD08951F920F92DE
S1131C400FB60F9211242F933F934F935F936F938B
S1131C507F938F939F93AF93BF93EF93FF93E09101
S1131C60CE05F091CF050995FF91EF91BF91AF910A
S1131C709F918F917F916F915F914F913F912F91A0
S1131C800F900FBE0F901F9018951F920F920FB6D2
S1131C900F9211242F933F934F935F936F937F93EE
S1131CA08F939F93AF93BF93EF93FF93E091CC05F2
S1131CB0F091CD050995FF91EF91BF91AF919F915F
S1131CC08F917F916F915F914F913F912F910F90E1
S1131CD00FBE0F901F9018951F920F920FB60F9280
S1131CE011242F933F934F935F936F937F938F931D
S1131CF09F93AF93BF93EF93FF93E091CA05F09145
S1131D00CB050995FF91EF91BF91AF919F918F9171
S1131D107F916F915F914F913F912F910F900FBEE3
S1131D200F901F90189582B98EE080B9089586B7F8
S1131D30806286BF86B78F7E86BF86B78F7B86BF5D
S1131D4086B7846086BF86B7806886BF06B607FEFE
S1131D50FDCF81B1887F089583B986B78F7D86BF13
S1131D6086B78F7E86BF86B78F7B86BF86B7846033
S1131D7086BF86B7806886BF06B607FEFDCF81B1F1
S1131D80887F0895FC0196B79F7D96BF96B79F7E86
S1131D9096BF96B79F7B96BF96B7946096BF96B74B
S1131DA0906896BF06B607FEFDCF83B1808381B1EC
S1131DB0887F089586B78F7D86BF86B7806186BF8A
S1131DC086B78F7B86BF86B7846086BF86B78068F8
S1131DD086BF0895CF93DF93EC018A818130E9F4C3
S1131DE0599A28813981C901A0E0B0E0880F991F70
S1131DF0AA1FBB1F880F991FAA1FBB1F9C01AD01FF
S1131E00220F331F441F551F60E074E284EF90E0FB
S1131E100E9413112150310920C059982881398119
S1131E20C901A0E0B0E0880F991FAA1FBB1F880F4B
S1131E30991FAA1FBB1F9C01AD01220F331F441F12
S1131E40551F220F331F441F551F60E074E284EFB7
S1131E5090E00E9413112150310929B930BD9B81B2
S1131E60973041F480B5826080BD80B5846080BDC8
S1131E70529A05C080B5990F8068892B80BD80B5C2
S1131E809C81990F990F990F8068892B80BD20B58B
S1131E909D8130E1939FC0011124922F9068892B7A
S1131EA080BD8E8180FD539A80FF53988F8180FD81
S1131EB0549A80FF5498DF91CF9108955D9BFECF93
S1131EC08CB908950F931F93CF93FC0180818823CD
S1131ED059F08F01C0E00E945E0FCF5FF801EC0F54
S1131EE0F11D80818111F7CFCF911F910F9108953A
S1131EF05F9BFECF8CB108955058BB27AA270E9440
S1131F00940F0C946C100E945E1038F00E946510BF
S1131F1020F039F49F3F19F426F40C945B100EF46E
S1131F20E095E7FB0C945510E92F0E947D1058F3BF
S1131F30BA17620773078407950720F079F4A6F5AA
S1131F400C949F100EF4E0950B2EBA2FA02D0B01CC
S1131F50B90190010C01CA01A0011124FF27591BEA
S1131F6099F0593F50F4503E68F11A16F040A22FF0
S1131F70232F342F4427585FF3CF46953795279561
S1131F80A795F0405395C9F77EF41F16BA0B620B60
S1131F90730B840BBAF09150A1F0FF0FBB1F661FA7
S1131FA0771F881FC2F70EC0BA0F621F731F841FEA
S1131FB048F4879577956795B795F7959E3F08F010
S1131FC0B0CF9395880F08F09927EE0F97958795D2
S1131FD008950E94851088F09F5798F0B92F99278B
S1131FE0B751B0F0E1F0660F771F881F991F1AF000
S1131FF0BA95C9F714C0B13091F00E949F10B1E0B6
S113200008950C949F10672F782F8827B85F39F0B4
S1132010B93FCCF3869577956795B395D9F73EF498
S113202090958095709561957F4F8F4F9F4F089540
S1132030E89409C097FB3EF490958095709561955E
S11320407F4F8F4F9F4F9923A9F0F92F96E9BB2714
S11320509395F695879577956795B795F111F8CF90
S1132060FAF4BB0F11F460FF1BC06F5F7F4F8F4FFB
S11320709F4F16C0882311F096E911C0772321F0F1
S11320809EE8872F762F05C0662371F096E8862F89
S113209070E060E02AF09A95660F771F881FDAF7E0
S11320A0880F9695879597F9089597F99F6780E823
S11320B070E060E008959FEF80EC089500240A9496
S11320C01616170618060906089500240A9412160F
S11320D01306140605060895092E0394000C11F442
S11320E0882352F0BB0F40F4BF2B11F460FF04C0EF
S11320F06F5F7F4F8F4F9F4F089557FD9058440F48
S1132100551F59F05F3F71F04795880F97FB991F52
S113211061F09F3F79F0879508951216130614060F
S1132120551FF2CF4695F1DF08C01616170618069C
S1132130991FF1CF86957105610508940895E89477
S1132140BB2766277727CB0197F908950E94B9101A
S11321500C946C100E945E1038F00E94651020F000
S1132160952311F00C9455100C945B1011240C94CD
S1132170A0100E947D1070F3959FC1F3950F50E05D
S1132180551F629FF001729FBB27F00DB11D639F25
S1132190AA27F00DB11DAA1F649F6627B00DA11DCB
S11321A0661F829F2227B00DA11D621F739FB00D71
S11321B0A11D621F839FA00D611D221F749F3327E1
S11321C0A00D611D231F849F600D211D822F762F7A
S11321D06A2F11249F5750409AF0F1F088234AF057
S11321E0EE0FFF1FBB1F661F771F881F91505040C3
S11321F0A9F79E3F510580F00C9455100C94A01043
S11322005F3FE4F3983ED4F3869577956795B79549
S1132210F795E7959F5FC1F7FE2B880F911D969563
S1132220879597F90895A1E21A2EAA1BBB1BFD01FD
S11322300DC0AA1FBB1FEE1FFF1FA217B307E407A1
S1132240F50720F0A21BB30BE40BF50B661F771FF9
S1132250881F991F1A9469F76095709580959095D9
S11322609B01AC01BD01CF010895EE0FFF1F059046
S10D2270F491E02D0994F894FFCFD7
S113227A07050700000000003738392F3435362A9D
S113228A3132332D43303D2B161700011213141526
S113229A0101010101010101010101010101010120
S11322AA0101010101010101010101010101010110
S11322BA0101010101010101010101010101010100
S11322CA01010101010101010101010101010101F0
S11322DA020302000000000080250003000001013F
S11322EA414C41524D212121210041646D696E20E6
S11322FA6D6F6465206F6E000A0A536D6172742DE6
S113230A486F6D652050726F6A6563740A41646D23
S113231A696E206D6F64650A00526F6F6D310A3100
S113232A31294C616D70310A3232294C616D703237
S113233A0A3333294169722D436F6E646974696F74
S113234A6E65720A0A000A526F6F6D320A343429B2
S113235A4C616D70310A3535294C616D70320A361B
S113236A36294C616D70330A37294D61696E2D44E3
S113237A6F6F720A3829557365722D4D6F64650043
S113238A0A4C616D70205475726E6564204F6666DE
S113239A210A000A4C616D70205475726E656420BE
S11323AA6F6E210A000A41697220636F6E64697450
S11323BA696F6E6572205475726E6564204F666625
S11323CA210A000A41697220636F6E646974696F35
S11323DA6E6572205475726E6564206F6E210A00F0
S11323EA0A4F70656E696E67204D61696E20446F8D
S11323FA6F72210A000A436C6F73696E67204D611C
S113240A696E20446F6F72210A000A0A0A0A0A0ACC
S113241A0A0A55736572206D6F6465204F6E210038
S113242A313A524F4F4D312020323A524F4F4D32AA
S113243A00333A41646D696E2020343A4C6F636B01
S113244A004C6F636B696E672053797374656D2EE4
S113245A2E2E0053797374656D204C6F636B65641B
S113246A0057726F6E672043686F69636521004382
S113247A6F72726563742050617373776F7264212B
S113248A0021486F6D655377656574486F6D6521E2
S113249A0057726F6E672050617373776F7264218D
S11324AA0053797374656D20426C6F636B656421A4
S11324BA00466972696E6720416C61726D2121213F
S11324CA00416C61726D2074726967676572656434
S11324DA2100547269616C73206C6566743A200039
S11324EA536D617274202D20486F6D650050726FB0
S11324FA6A65637421004C6F67696E20666972733A
S113250A742074696D650053657450617373776FD1
S113251A72643A00436F6E6669726D3A0050617371
S113252A73776F7264205361766564210050617316
S113253A73206D69736D6174636821005472792024
S113254A616761696E210057656C636F6D65204828
S113255A6F6D6500313A4C616D703120323A4C61CD
S113256A6D703200333A414320202020343A5265B8
S113257A7475726E004C6564206973204F6E210075
S113258A313A5475726E6F666620323A6261636BD1
S113259A000A4C616D70312C526F6F6D3120697372
S11325AA204F6666206E6F7721004C65642069733C
S11325BA204F66662100313A5475726E4F6E20328E
S11325CA3A6261636B000A4C616D70312C526F6F11
S11325DA6D31206973206F6E206E6F7721000A4C6B
S11325EA616D70322C526F6F6D31206973204F66A2
S11325FA66206E6F7721000A4C616D70322C526F1F
S113260A6F6D31206973206F6E206E6F77210041E0
S113261A69722D436F6E64206973204F6E21000A1C
S113262A41697220636F6E646974696F6E65722C96
S113263A526F6F6D31206973204F6666206E6F7713
S113264A21004169722D436F6E64206973204F66BD
S113265A6621005365742054656D703A5F5F000A01
S113266A41697220636F6E646974696F6E65722C56
S113267A526F6F6D31206973206F6E206E6F7721F0
S113268A0057726F6E672063686F69636521003350
S113269A3A4C616D703320343A52657475726E0027
S11326AA0A4C616D70312C526F6F6D322069732040
S11326BA4F6666206E6F7721000A4C616D70312C6B
S11326CA526F6F6D32206973206F6E206E6F77219F
S11326DA000A4C616D70322C526F6F6D322069732F
S11326EA204F6666206E6F7721000A4C616D703246
S11326FA2C526F6F6D32206973206F6E206E6F7764
S113270A21000A4C616D70332C526F6F6D3220694F
S113271A73204F6666206E6F7721000A4C616D70D4
S113272A332C526F6F6D32206973206F6E206E6F77
S113273A772100446F6F7220697320636C6F73652D
S113274A64210070726573732031206F70656E00A6
S113275A707265737320302072657475726E004FDF
S113276A70656E696E6720446F6F72000A4D616905
S113277A6E20446F6F72206973204F70656E6564B2
S113278A210052657475726E20746F206D656E75C2
S113279A2100446F6F72206973206F70656E6564DF
S11327AA21007072657373203120636C6F73650046
S11327BA436C6F73696E6720446F6F72000A4D61D0
S11327CA696E20446F6F7220697320436C6F73655E
S10727DA6421000072
S9030000FC
