S00D00004F435432332E73726563CC
S11300000C9432000C94680C0C948F0C0C94B60C69
S11300100C944F000C944F000C944F000C94D70D8B
S11300200C94FE0D0C94250E0C944F000C944F0070
S11300300C944F000C944F000C944F000C944F0000
S11300400C944F000C944F000C944F000C944F00F0
S11300500C944F00200337034E0369038103990373
S1130060B103E50311241FBECFE5D8E0DEBFCDBF49
S113007015E0A0E6B0E0ECEEF1E202C005900D92CE
S1130080AA38B107D9F725E0AAE8B5E001C01D9266
S1130090A639B207E1F70E944E0A0C94F4100C94AE
S11300A00000CF92DF92EF92FF920F931F93CF93B2
S11300B0DF9300D000D0CDB7DEB7082F19821A82A3
S11300C01B821C82CE0101967C016C0110E0612F21
S11300D0802F0E944908F60181936F011F5F14303D
S11300E0B1F79E012B5F3F4F90E0F70181917F01B3
S11300F08F3F09F49F5FE216F306B9F781E094306D
S113010009F480E00F900F900F900F90DF91CF9142
S11301101F910F91FF90EF90DF90CF9008950F9370
S11301201F93CF93DF93D82F8B01C0E06C2F8D2FBB
S11301300E944908F80181938F01FFEF20E782E0D4
S1130140F15020408040E1F700C00000CF5FC43090
S113015069F7DF91CF911F910F91089560E082EAD2
S11301600E9449088F3FB1F00E94010A80ED90E09F
S11301700E94BF092FEF83EC99E02150804090400A
S1130180E1F700C000000E94010A61E088E00E94DB
S11301908E0AEACF08958F929F92BF92CF92DF92F8
S11301A0EF92FF920F931F93CF93DF93CDB7DEB7F8
S11301B028970FB6F894DEBF0FBECDBF19821A82FE
S11301C01B821C821D821E821F821886BE016B5FE9
S11301D07F4F80EA0E948F002FEF80E792E021504A
S11301E080409040E1F700C000000F2EF3E3BF2EE3
S11301F0F02D6E01A9E0CA0ED11C0E94010A83E70A
S113020091E00E94BF098E010F5F1F4F4801E12C4E
S11302100E94B208F82E8823E1F00E947709BFEF0C
S1130220EAE6F3E0B150E040F040E1F700C000003E
S113023069E06E0D81E00E94D5098AE20E94770987
S1130240D401FD924D01E394B4E0EB1609F485C0AA
S1130250DFCFE3E0EE15E0F680C09191D8018D91F7
S11302608D01981301C02F5FCE16DF06B1F724303D
S113027019F50E94010A8AED90E00E94BF09BFEFC0
S1130280EFE0F7E2B150E040F040E1F700C00000D9
S113029061E082E00E94D5098CEE90E00E94BF09E3
S11302A02FEF8FE097E2215080409040E1F700C0AB
S11302B000000E94010A55C00E94010A8CEF90E0E0
S11302C00E94BF09A1E3BA1230C00E94010A8CE067
S11302D091E00E94BF0960E082E00E94D5098CE1B0
S11302E091E00E94BF098CE291E00E94230841E35F
S11302F060E082EA0E942908BFEFE0E7F2E0B15033
S1130300E040F040E1F700C0000061E088E00E94B6
S11303108E0A2FEF8DE292E2215080409040E1F767
S113032000C000000E94AE001CC0BA9460E082E0ED
S11303300E94D5098DE391E00E94BF098B2D0E9494
S11303407709AFEFBFE0E7E2A150B040E040E1F74A
S113035000C000000E94010A50CFFE01359620E043
S11303607CCF28960FB6F894DEBF0FBECDBFDF91C9
S1130370CF911F910F91FF90EF90DF90CF90BF909E
S11303809F908F9008958F929F92AF92BF92CF9239
S1130390DF92EF92FF920F931F93CF93DF93CDB72A
S11303A0DEB728970FB6F894DEBF0FBECDBF0E940C
S11303B0010A63E081E00E94D5098BE491E00E9488
S11303C0BF0963E082E00E94D50986E591E00E94BE
S11303D0BF092FEF8BE49DE1215080409040E1F76D
S11303E000C000000E94010A80EA0E9451008111AD
S11303F0CBC01D821E821F82188619821A821B821C
S11304001C828FE591E00E94BF09AFEFBBE4EDE1F0
S1130410A150B040E040E1F700C000000E94010A92
S11304206E01F9E0CF0ED11C80E791E00E94BF0974
S11304305E0125E0A20EB11C750100E00E94B20825
S1130440182F8823D1F00E9477098FEF9AE6A3E052
S113045081509040A040E1F700C000006CE0600FC4
S113046081E00E94D5098AE20E947709F70111937D
S11304707F010F5F043019F0E1CF0430F8F20E94DD
S1130480010A8DE791E00E94BF098E010F5F1F4FA3
S11304904801E12C0E94B208F82E8823D9F00E946A
S11304A07709FFEF2AE683E0F15020408040E1F72E
S11304B000C0000068E06E0D81E00E94D5098AE268
S11304C00E947709D401FD924D01E394B4E0EB1648
S11304D021F0E0CFE3E0EE15E8F60E94010AF50111
S11304E020E09191D8018D918D01981301C02F5F67
S11304F0CE16DF06B1F7243031F510E0F501419155
S11305005F01612F80EA0E942908FFEF23EC89E054
S1130510F15020408040E1F700C000001F5F14301C
S113052069F786E891E00E94BF099FEFABE4BDE163
S11305309150A040B040E1F700C000000E94010AC1
S11305400E94CB0038C086E991E00E94BF09EFEF1A
S1130550F3EC29E0E150F0402040E1F700C0000056
S113056060E082E00E94D50985EA91E00E94BF091B
S11305708FEF93ECA9E081509040A040E1F700C0D8
S113058000000E94010A50CF0E94010A62E081E04B
S11305900E94D50980EB91E00E94BF09BFEFEFE014
S11305A0F7E2B150E040F040E1F700C000000E94E3
S11305B0010A0E94CB0028960FB6F894DEBF0FBE46
S11305C0CDBFDF91CF911F910F91FF90EF90DF90FE
S11305D0CF90BF90AF909F908F90089560E084EA91
S11305E00E9449082FEF30E792E0215030409040BC
S11305F0E1F700C000008F3F21F08AE590E00E94FF
S1130600050A08950E94010A8DEB91E00E94BF093A
S11306108BEC91E00E9423088CEE91E00E94230869
S113062089E192E00E9423080E94260890E0FC01E0
S1130630F197E830F105C0F7E65DFF4F0C94EE103A
S113064081E30E94230D8F3441F483E592E00E94FC
S1130650230881E20E94230DE7CF863429F786E63A
S113066092E00E94230881E10E94230DDDCF82E302
S11306700E94230D8F3441F482E20E94230D83E50E
S113068092E00E942308D0CF863471F682E10E9462
S1130690230D86E692E00E942308C6CF86E30E94DB
S11306A0230D8F3441F486E20E94230D88E792E003
S11306B00E942308B9CF863409F0B6CF86E10E94A0
S11306C0230D88E10E94230D86E992E00E9423080D
S11306D0ABCF83E30E94230D8F3441F483E20E9465
S11306E0230D83E592E00E9423089ECF863409F00F
S11306F09BCF83E10E94230D86E692E00E942308AB
S113070093CF84E30E94230D8F3441F484E20E944A
S1130710230D83E592E00E94230886CF863409F0F6
S113072083CF84E10E94230D86E692E00E94230891
S11307307BCF85E30E94230D8F3441F485E20E9430
S1130740230D83E592E00E9423086ECF863409F0DE
S11307506BCF85E10E94230D86E692E00E94230878
S113076063CF60E084EA0E9449088F3FB9F483EBC9
S113077092E00E941B0F8AE590E00E94050A41E383
S113078060E084EA0E9429082FEF83EC99E021506D
S113079080409040E1F700C0000046CF88EC92E032
S11307A00E941B0F80E090E00E94050A4FEF60E07A
S11307B084EA0E9429082FEF83EC99E021508040BD
S11307C09040E1F700C000002FCF8DED92E00E9431
S11307D023080E94C30108950E94010A83EF92E056
S11307E00E94BF0960E082E00E94D50984E093E0A2
S11307F00E94BF090E94B2088823E1F3823349F0C2
S1130800833361F0813399F40E94010A0E942B041E
S1130810F1CF0E94010A0E945706ECCF0E94010A00
S11308208DEB91E00E94BF090E940203E3CF0E9476
S1130830010A8CE093E00E94BF092FEF89E698E15A
S1130840215080409040E1F700C000000E94010A5E
S11308500E94EC030895BF92CF92DF92EF92FF9231
S11308600F931F93CF93DF93D0E012E0F12E0D2F5F
S1130870ED2ED12E0E94010A82EC93E00E94BF0962
S11308806D2F812F0E94D50982ED93E00E94BF094C
S11308900E94B2088823E1F3823309F48CC08333C5
S11308A009F40FC1813309F0E5C10E94010A2FEF59
S11308B080E792E0215080409040E1F700C00000C2
S11308C081E30E94230D2FEF80E792E021508040C6
S11308D09040E1F700C0000081E00E94230D8F34B6
S11308E089F50E94010A83EE93E00E94BF09602FFC
S11308F08F2D0E94D5098EEE93E00E94BF090E94BD
S1130900B208C82F8823D9F32FEF81EE94E0215049
S113091080409040E1F700C00000C13319F0C233B9
S113092059F044C081E20E94230D8FEF93E00E94AE
S113093023080E94EC03E3CF89E90E94230D0E945F
S1130940EC0334C0863489F50E94010A88E194E0FE
S11309500E94BF09602F8F2D0E94D50984E294E084
S11309600E94BF090E94B208C82F8823D9F32FEF31
S113097081EE94E0215080409040E1F700C00000F7
S1130980C13319F0C23359F011C081E10E94230D23
S113099084E394E00E9423080E94EC03E3CF89E9F6
S11309A00E94230D0E94EC0301C0C02F0E94010A83
S11309B00E94EC036FC10E94010A2FEF80E792E0CE
S11309C0215080409040E1F700C0000082E30E9483
S11309D0230D2FEF80E792E0215080409040E1F713
S11309E000C0000081E00E94230D8F3489F50E942D
S11309F0010A83EE93E00E94BF09602F8F2D0E94AD
S1130A00D5098EEE93E00E94BF090E94B208C82F58
S1130A108823D9F32FEF81EE94E021508040904059
S1130A20E1F700C00000C13319F0C23359F044C0EB
S1130A3082E20E94230D8CE494E00E9423080E9429
S1130A40EC03E3CF89E90E94230D0E94EC0334C038
S1130A50863489F50E94010A88E194E00E94BF0966
S1130A60602F8F2D0E94D50984E294E00E94BF0973
S1130A700E94B208C82F8823D9F32FEF81EE94E0A7
S1130A80215080409040E1F700C00000C13319F0CC
S1130A90C23359F011C082E10E94230D85E694E02F
S1130AA00E9423080E94EC03E3CF89E90E94230DEE
S1130AB00E94EC03DDCFC02F0E94010A0E94EC03C8
S1130AC0E9C00E94010A2FEF80E792E021508040A4
S1130AD09040E1F700C0000086E30E94230D2FEF51
S1130AE080E792E0215080409040E1F700C0000090
S1130AF081E00E94230D8F3489F50E94010A8DE75D
S1130B0094E00E94BF09602F8F2D0E94D5098EEEBC
S1130B1093E00E94BF090E94B208C82F8823D9F32A
S1130B202FEF81EE94E0215080409040E1F700C027
S1130B300000C13319F0C23359F097C086E20E9415
S1130B40230D8DE894E00E9423080E94EC03E3CF78
S1130B5089E90E94230D0E94EC0387C0863409F0C2
S1130B6083C00E94010A80EB94E00E94BF09602FB9
S1130B708F2D0E94D50984E294E00E94BF090E944F
S1130B80B208C82F8823D9F32FEF81EE94E02150C7
S1130B9080409040E1F700C00000C13321F0C2332F
S1130BA009F458C05DC00E94010A81EC94E00E94DF
S1130BB0BF0960E670E081E00E94E6096BE081E035
S1130BC00E94D50981E00E94770983E40E94770995
S1130BD069E081E00E94D509BB24B394CE2C0E9425
S1130BE0B208C82F882389F021E0B21205C00E9400
S1130BF07709CC2EBD2CF3CF82E0B8120AC08C2F1B
S1130C000E9477098C2FCE2D05C092E09B1538F7F2
S1130C1001C08E2D9C2D990F9056C92ECC0CCC0C56
S1130C209C0D8053C92EC80E2FEF81EE94E0215005
S1130C3080409040E1F700C0000086E10E94230D4F
S1130C408DEC94E00E9423088C2D0E94230D0E94B9
S1130C50EC0306C089E90E94230D0E94EC038FCFA8
S1130C60CC2309F48CCF01C0C02F0E94010A0E943A
S1130C70EC0310C00E94010A86E793E00E94BF09BA
S1130C802FEF89E698E1215080409040E1F700C0C1
S1130C900000F0CDCC2309F4FBCDDF91CF911F915F
S1130CA00F91FF90EF90DF90CF90BF9008951F9326
S1130CB0CF93DF93D0E01D2F0E94010A82EC93E0D2
S1130CC00E94BF096D2F82E00E94D5098FEE94E047
S1130CD00E94BF090E94B2088823E1F3823309F419
S1130CE08CC0833309F40FC1813309F092C10E948F
S1130CF0010A2FEF80E792E0215080409040E1F715
S1130D0000C0000083E30E94230D2FEF80E792E0F0
S1130D10215080409040E1F700C0000081E00E9433
S1130D20230D8F3489F50E94010A83EE93E00E941B
S1130D30BF09612F82E00E94D5098EEE93E00E94E4
S1130D40BF090E94B208C82F8823D9F32FEF81EE80
S1130D5094E0215080409040E1F700C00000C1338E
S1130D6019F0C23359F044C083E20E94230D87EF87
S1130D7094E00E9423080E94EC03E3CF89E90E94D7
S1130D80230D0E94EC0334C0863489F50E94010AC5
S1130D9088E194E00E94BF09612F82E00E94D50996
S1130DA084E294E00E94BF090E94B208C82F8823FD
S1130DB0D9F32FEF81EE94E0215080409040E1F789
S1130DC000C00000C13319F0C23359F011C083E1EF
S1130DD00E94230D80E195E00E9423080E94EC0309
S1130DE0E3CF89E90E94230D0E94EC0301C0C12FC7
S1130DF00E94010A0E94EC031CC10E94010A2FEF09
S1130E0080E792E0215080409040E1F700C000006C
S1130E1084E30E94230D2FEF80E792E0215080406D
S1130E209040E1F700C0000081E00E94230D8F3460
S1130E3089F50E94010A83EE93E00E94BF09612FA5
S1130E4082E00E94D5098EEE93E00E94BF090E94C1
S1130E50B208C82F8823D9F32FEF81EE94E02150F4
S1130E6080409040E1F700C00000C13319F0C23364
S1130E7059F044C084E20E94230D88E295E00E9468
S1130E8023080E94EC03E3CF89E90E94230D0E940A
S1130E90EC0334C0863489F50E94010A88E194E0A9
S1130EA00E94BF09612F82E00E94D50984E294E088
S1130EB00E94BF090E94B208C82F8823D9F32FEFDC
S1130EC081EE94E0215080409040E1F700C00000A2
S1130ED0C13319F0C23359F011C084E10E94230DCB
S1130EE081E495E00E9423080E94EC03E3CF89E9A2
S1130EF00E94230D0E94EC03DDCFC12F0E94010A42
S1130F000E94EC0396C00E94010A2FEF80E792E052
S1130F10215080409040E1F700C0000085E30E942A
S1130F20230D2FEF80E792E0215080409040E1F7BD
S1130F3000C0000081E00E94230D8F3489F50E94D7
S1130F40010A83EE93E00E94BF09612F82E00E94B0
S1130F50D5098EEE93E00E94BF090E94B208C82F03
S1130F608823D9F32FEF81EE94E021508040904004
S1130F70E1F700C00000C13319F0C23359F044C096
S1130F8085E20E94230D89E595E00E9423080E94D2
S1130F90EC03E3CF89E90E94230D0E94EC0334C0E3
S1130FA0863489F50E94010A88E194E00E94BF0911
S1130FB0612F82E00E94D50984E294E00E94BF0977
S1130FC00E94B208C82F8823D9F32FEF81EE94E052
S1130FD0215080409040E1F700C00000C13319F077
S1130FE0C23359F011C085E10E94230D82E795E0D8
S1130FF00E9423080E94EC03E3CF89E90E94230D99
S11310000E94EC03DDCFC12F0E94010A0E94EC0371
S113101010C00E94010A86E793E00E94BF092FEFE7
S113102089E698E1215080409040E1F700C000003B
S113103043CECC2309F44ECEDF91CF911F91089576
S11310400E94A30E08950E941B0F08950E94310F61
S113105008951F93CF93DF93C82FD62F142F0E9488
S1131060500E883091F48C2F8E7F0E94650E88314B
S113107061F48D2F0E94650E883239F4812F0E940D
S1131080650E883211F40E94930EDF91CF911F9167
S113109008950F931F93CF93DF931F92CDB7DEB7BD
S11310A0182F062F19820E94500E8830E9F4812FE0
S11310B08E7F0E94650E8831B9F4802F0E94650EE0
S11310C0883291F40E94500E803171F4812F816036
S11310D00E94650E803441F4CE0101960E947B0E7D
S11310E0883511F40E94930E89810F90DF91CF917E
S11310F01F910F910895EF92FF920F931F93CF9337
S1131100DF93C8E7D0E00F2EFCE7EF2EF0E0FF2ED0
S1131110F02D8E0160E089910E94430B61E0F8019B
S113112080810E948E0ACE15DF0599F7CCE7D0E0C6
S11311300F2EF0E8EF2EF0E0FF2EF02D8E0161E08F
S113114089910E94430B61E0F80180810E948E0A1C
S1131150CE15DF0599F7DF91CF911F910F91FF9085
S1131160EF9008956F927F928F929F92AF92BF9269
S1131170CF92DF92EF92FF920F931F93CF93DF935F
S11311800CE710E0C12CD12C4601580160E0F801B5
S113119080810E948E0AC8E7D0E0612C712C730113
S11311A089910E94100B811114C0E301C858DF4FCC
S11311B088810E94100B8823D9F3C401880F991FDA
S11311C0880F991F88599F4FFC01EE0DFF1D8081E8
S11311D016C0FFEF6F1A7F0A84E068167104F9F6EF
S11311E00F5F1F4F61E0F50180810E948E0AFFEFBF
S11311F0CF1ADF0A84E0C816D10431F680E0DF910B
S1131200CF911F910F91FF90EF90DF90CF90BF90FF
S1131210AF909F908F907F906F900895CF93C82F39
S113122060E089E00E948E0A80E00E94C50B8F7006
S11312309C2F907F682F692B80E00E94D70B60E081
S11312408BE00E948E0A8FE891E00197F1F700C0CD
S1131250000061E08BE00E948E0A8FE19EE401971A
S1131260F1F700C0000080E00E94C50B8F7090E190
S1131270C99F90011124682F622B80E00E94D70B34
S113128060E08BE00E948E0A8FE891E00197F1F70D
S113129000C0000061E08BE00E948E0A8FE39FE1B2
S11312A00197F1F700C00000CF91089560E08AE053
S11312B00E948E0A61E08BE00E948E0A2FEF89EF74
S11312C090E0215080409040E1F700C0000083E3AB
S11312D00E940E0982E30E940E0988E20E940E0910
S11312E086E00E940E098CE00E940E090895CF93B7
S11312F0C82F61E089E00E948E0A80E00E94C50B3D
S11313008F709C2F907F682F692B80E00E94D70BF1
S113131060E08BE00E948E0A8FE891E00197F1F77C
S113132000C0000061E08BE00E948E0A8FE19EE421
S11313300197F1F700C0000080E00E94C50B8F7098
S113134090E1C99F90011124682F622B80E00E94D4
S1131350D70B60E08BE00E948E0A8FE891E0019742
S1131360F1F700C0000061E08BE00E948E0A8FE379
S11313709FE10197F1F700C00000CF9108950F930A
S11313801F93CF93FC018081882359F08F01C0E023
S11313900E947709CF5FF801EC0FF11D8081811164
S11313A0F7CFCF911F910F910895813019F08230BA
S11313B039F00895862F8F7080680E940E09089571
S11313C0862F8F70806C0E940E0908950F931F93CF
S11313D0CF93DF93883080F48B01880F880F880FB8
S11313E0805C0E940E09E801085F1F4F89910E94EA
S11313F07709C017D107D1F7DF91CF911F910F91D2
S1131400089581E00E940E0908950F931F93CF93CE
S1131410DF93CDB7DEB728970FB6F894DEBF0FBEC3
S1131420CDBF8C0161E08DE10E94430B87E893E11D
S11314300E94D40DB80180E090E00E94D10F2CE10D
S113144037EC41EB5FE30E945F1020E030E04AE7B5
S113145053E40E94360F20E030E040E85FE30E944E
S1131460350F0E94A20FCB010E94D10D88E0E0EC61
S1131470F0E0DE01119601900D928A95E1F7CE011C
S113148001960E94280D28960FB6F894DEBF0FBE71
S1131490CDBFDF91CF911F910F910895CF93DF932B
S11314A0CDB7DEB72C970FB6F894DEBF0FBECDBF15
S11314B081E089831A8282E08B831C820E94E70B7D
S11314C00E9456090E947B0886E60E944C0ECE01BB
S11314D001960E94DD0C88E0E8ECF0E0DE01159650
S11314E001900D928A95E1F7CE0105960E9420089D
S11314F060E088E10E94430B2FEF81EE94E02150DD
S113150080409040E1F700C000000E94AE000E94BD
S1131510EE020E9402030E94EC03FBCF982F977007
S1131520869586958695813021F130F08230F1F1EF
S1131530833009F458C00895613069F44BB321E055
S113154030E0B90102C0660F771F9A95E2F7CB012C
S1131550842B8BBB08954BB321E030E0B90102C06A
S1131560660F771F9A95E2F7CB01809584238BBB96
S11315700895613069F448B321E030E0B90102C054
S1131580660F771F9A95E2F7CB01842B88BB0895E9
S113159048B321E030E0B90102C0660F771F9A9585
S11315A0E2F7CB018095842388BB0895613069F408
S11315B045B321E030E0B90102C0660F771F9A9568
S11315C0E2F7CB01842B85BB089545B321E030E0DD
S11315D0B90102C0660F771F9A95E2F7CB01809597
S11315E0842385BB0895613069F442B321E030E07F
S11315F0B90102C0660F771F9A95E2F7CB01842BDD
S113160082BB089542B321E030E0B90102C0660F05
S1131610771F9A95E2F7CB018095842382BB0895C6
S1131620282F2770869586958695813079F028F045
S11316308230A9F08330E1F024C089B390E002C085
S1131640959587952A95E2F78170089586B390E081
S113165002C0959587952A95E2F78170089583B322
S113166090E002C0959587952A95E2F781700895D8
S113167080B390E002C0959587952A95E2F7817032
S1131680089580E00895982F97708695869586959D
S1131690813021F130F08230F1F1833009F458C007
S11316A00895613069F44AB321E030E0B90102C021
S11316B0660F771F9A95E2F7CB01842B8ABB0895B6
S11316C04AB321E030E0B90102C0660F771F9A9552
S11316D0E2F7CB01809584238ABB0895613069F4D5
S11316E047B321E030E0B90102C0660F771F9A9535
S11316F0E2F7CB01842B87BB089547B321E030E0A8
S1131700B90102C0660F771F9A95E2F7CB01809565
S1131710842387BB0895613069F444B321E030E049
S1131720B90102C0660F771F9A95E2F7CB01842BAB
S113173084BB089544B321E030E0B90102C0660FD0
S1131740771F9A95E2F7CB018095842384BB089593
S1131750613069F441B321E030E0B90102C0660FA1
S1131760771F9A95E2F7CB01842B81BB089541B38F
S113177021E030E0B90102C0660F771F9A95E2F7C5
S1131780CB018095842381BB0895813041F028F0FA
S1131790823039F0833039F008C08BB3089588B3B0
S11317A0089585B3089582B3089580E00895813043
S11317B041F028F0823039F0833039F008956BBB62
S11317C0089568BB089565BB089562BB0895E0E879
S11317D0F0E080E041E050E0282F2770982F9695A4
S11317E096959695913009F130F09230C1F193308D
S11317F009F44FC067C09081913059F49AB3BA018B
S113180002C0660F771F2A95E2F79B01292B2ABB9A
S113181059C03AB3BA0102C0660F771F2A95E2F79E
S1131820962F909593239ABB4DC09081913059F493
S113183097B3BA0102C0660F771F2A95E2F79B019E
S1131840292B27BB3FC037B3BA0102C0660F771FED
S11318502A95E2F7962F9095932397BB33C09081F6
S1131860913059F494B3BA0102C0660F771F2A95D8
S1131870E2F79B01292B24BB25C034B3BA0102C073
S1131880660F771F2A95E2F7962F9095932394BBC2
S113189019C09081913059F491B3BA0102C0660F16
S11318A0771F2A95E2F79B01292B21BB0BC031B38B
S11318B0BA0102C0660F771F2A95E2F7962F90951A
S11318C0932391BB8F5F3296803209F085CF0895C0
S11318D01F920F920FB60F9211242F933F934F93A1
S11318E05F936F937F938F939F93AF93BF93EF9384
S11318F0FF93E0918E05F0918F050995FF91EF918B
S1131900BF91AF919F918F917F916F915F914F9113
S11319103F912F910F900FBE0F901F9018951F921B
S11319200F920FB60F9211242F933F934F935F930F
S11319306F937F938F939F93AF93BF93EF93FF9393
S1131940E0918C05F0918D050995FF91EF91BF9180
S1131950AF919F918F917F916F915F914F913F9143
S11319602F910F900FBE0F901F9018951F920F92FA
S11319700FB60F9211242F933F934F935F936F935E
S11319807F938F939F93AF93BF93EF93FF93E091D4
S11319908A05F0918B050995FF91EF91BF91AF9165
S11319A09F918F917F916F915F914F913F912F9173
S11319B00F900FBE0F901F901895CF93DF93EC01FB
S11319C088818823A9F0813029F561E08CE00E94A8
S11319D0430B61E08DE00E94430B60E08EE00E94C7
S11319E0430B61E08FE00E94430B6C9A6E9A12C025
S11319F060E08CE00E94430B60E08DE00E94430BAA
S1131A0061E08EE00E94430B60E08FE00E94430B94
S1131A106C986E9A2DB1998130E2939FC001112484
S1131A20822B8DB98B81813031F4709A9DB18A817A
S1131A30892B8DB905C070989DB18A81892B8DB988
S1131A40DF91CF9108958FB9779BFECF8FB1089521
S1131A50FC018081813099F028F08230E9F08330F4
S1131A6041F133C08FB58E7F8FBD8FB58D7F8FBD14
S1131A708EB5877F8EBD8EB58F7E8EBD26C08FB509
S1131A808E7F8FBD8FB58D7F8FBD8EB588608EBDE7
S1131A908EB58F7E8EBD19C08FB58E7F8FBD8FB5ED
S1131AA082608FBD8EB588608EBD8EB580618EBD1F
S1131AB00CC08FB58E7F8FBD8FB582608FBD8EB504
S1131AC0877F8EBD8EB580618EBD8181823001F1AC
S1131AD028F4882349F0813089F041C0843061F1D1
S1131AE008F1853099F13BC08EB58E7F8EBD8EB5E1
S1131AF08D7F8EBD8EB58B7F8EBD31C08EB58160DE
S1131B008EBD8EB58D7F8EBD8EB58B7F8EBD27C06D
S1131B108EB58E7F8EBD8EB582608EBD8EB58B7F69
S1131B208EBD1DC08EB581608EBD8EB582608EBDAA
S1131B308EB58B7F8EBD13C08EB58E7F8EBD8EB558
S1131B408D7F8EBD8EB584608EBD09C08EB58160DB
S1131B508EBD8EB58D7F8EBD8EB584608EBD828127
S1131B60823059F0833081F0811114C08FB58F7B9E
S1131B708FBD8FB58F778FBD0DC08FB58F7B8FBD18
S1131B808FB580688FBD06C08FB58F7B8FBD8FB535
S1131B908F778FBD99B78781880F880F892B89BF6D
S1131BA008959BBD8ABD089597BD86BD08951F9273
S1131BB00F920FB60F9211242F933F934F935F937D
S1131BC06F937F938F939F93AF93BF93EF93FF9301
S1131BD0E0919405F09195050995FF91EF91BF91DE
S1131BE0AF919F918F917F916F915F914F913F91B1
S1131BF02F910F900FBE0F901F9018951F920F9268
S1131C000FB60F9211242F933F934F935F936F93CB
S1131C107F938F939F93AF93BF93EF93FF93E09141
S1131C209205F09193050995FF91EF91BF91AF91C2
S1131C309F918F917F916F915F914F913F912F91E0
S1131C400F900FBE0F901F9018951F920F920FB612
S1131C500F9211242F933F934F935F936F937F932E
S1131C608F939F93AF93BF93EF93FF93E09190056E
S1131C70F09191050995FF91EF91BF91AF919F91DB
S1131C808F917F916F915F914F913F912F910F9021
S1131C900FBE0F901F90189582B98EE080B90895F9
S1131CA086B7806286BF86B78F7E86BF86B78F7BF6
S1131CB086BF86B7846086BF86B7806886BF06B64F
S1131CC007FEFDCF81B1887F089583B986B78F7DE4
S1131CD086BF86B78F7E86BF86B78F7B86BF86B763
S1131CE0846086BF86B7806886BF06B607FEFDCFD0
S1131CF081B1887F0895FC0196B79F7D96BF96B702
S1131D009F7E96BF96B79F7B96BF96B7946096BF0B
S1131D1096B7906896BF06B607FEFDCF83B1808361
S1131D2081B1887F089586B78F7D86BF86B780612D
S1131D3086BF86B78F7B86BF86B7846086BF86B72B
S1131D40806886BF0895CF93DF93EC018A81813048
S1131D50E9F4599A28813981C901A0E0B0E0880FDB
S1131D60991FAA1FBB1F880F991FAA1FBB1F9C0185
S1131D70AD01220F331F441F551F60E074E284EF4E
S1131D8090E00E94CC102150310920C0599828813C
S1131D903981C901A0E0B0E0880F991FAA1FBB1FB9
S1131DA0880F991FAA1FBB1F9C01AD01220F331F6F
S1131DB0441F551F220F331F441F551F60E074E258
S1131DC084EF90E00E94CC102150310929B930BD34
S1131DD09B81973041F480B5826080BD80B584607A
S1131DE080BD529A05C080B5990F8068892B80BD4B
S1131DF080B59C81990F990F990F8068892B80BDBC
S1131E0020B59D8130E1939FC0011124922F9068E9
S1131E10892B80BD8E8180FD539A80FF53988F81DA
S1131E2080FD549A80FF5498DF91CF9108955D9B73
S1131E30FECF8CB908950F931F93CF93FC0180813B
S1131E40882359F08F01C0E00E94170FCF5FF8017B
S1131E50EC0FF11D80818111F7CFCF911F910F916C
S1131E6008955F9BFECF8CB108955058BB27AA27D5
S1131E700E944D0F0C9425100E94171038F00E94F8
S1131E801E1020F039F49F3F19F426F40C9414101A
S1131E900EF4E095E7FB0C940E10E92F0E94361027
S1131EA058F3BA17620773078407950720F079F48B
S1131EB0A6F50C9458100EF4E0950B2EBA2FA02D15
S1131EC00B01B90190010C01CA01A0011124FF27E3
S1131ED0591B99F0593F50F4503E68F11A16F040DE
S1131EE0A22F232F342F4427585FF3CF46953795DD
S1131EF02795A795F0405395C9F77EF41F16BA0BA2
S1131F00620B730B840BBAF09150A1F0FF0FBB1F4F
S1131F10661F771F881FC2F70EC0BA0F621F731F98
S1131F20841F48F4879577956795B795F7959E3FF5
S1131F3008F0B0CF9395880F08F09927EE0F979586
S1131F40879508950E943E1088F09F5798F0B92F06
S1131F509927B751B0F0E1F0660F771F881F991FDA
S1131F601AF0BA95C9F714C0B13091F00E94581014
S1131F70B1E008950C945810672F782F8827B85F24
S1131F8039F0B93FCCF3869577956795B395D9F732
S1131F903EF490958095709561957F4F8F4F9F4F3C
S1131FA00895E89409C097FB3EF490958095709548
S1131FB061957F4F8F4F9F4F9923A9F0F92F96E991
S1131FC0BB279395F695879577956795B795F11106
S1131FD0F8CFFAF4BB0F11F460FF1BC06F5F7F4FA3
S1131FE08F4F9F4F16C0882311F096E911C07723B5
S1131FF021F09EE8872F762F05C0662371F096E8BE
S1132000862F70E060E02AF09A95660F771F881F8C
S1132010DAF7880F9695879597F9089597F99F674A
S113202080E870E060E008959FEF80EC089500245C
S11320300A941616170618060906089500240A9429
S113204012161306140605060895092E0394000CAF
S113205011F4882352F0BB0F40F4BF2B11F460FF3E
S113206004C06F5F7F4F8F4F9F4F089557FD905867
S1132070440F551F59F05F3F71F04795880F97FB48
S1132080991F61F09F3F79F0879508951216130602
S11320901406551FF2CF4695F1DF08C01616170631
S11320A01806991FF1CF8695710561050894089566
S11320B0E894BB2766277727CB0197F908950E94F8
S11320C072100C9425100E94171038F00E941E10F4
S11320D020F0952311F00C940E100C94141011247C
S11320E00C9459100E94361070F3959FC1F3950F0C
S11320F050E0551F629FF001729FBB27F00DB11D88
S1132100639FAA27F00DB11DAA1F649F6627B00D17
S1132110A11D661F829F2227B00DA11D621F739F00
S1132120B00DA11D621F839FA00D611D221F749F0E
S11321303327A00D611D231F849F600D211D822F55
S1132140762F6A2F11249F5750409AF0F1F088237C
S11321504AF0EE0FFF1FBB1F661F771F881F9150A9
S11321605040A9F79E3F510580F00C940E100C943A
S113217059105F3FE4F3983ED4F3869577956795BD
S1132180B795F795E7959F5FC1F7FE2B880F911DD3
S11321909695879597F90895A1E21A2EAA1BBB1B61
S11321A0FD010DC0AA1FBB1FEE1FFF1FA217B3071F
S11321B0E407F50720F0A21BB30BE40BF50B661F35
S11321C0771F881F991F1A9469F7609570958095F9
S11321D090959B01AC01BD01CF010895EE0FFF1F47
S10F21E00590F491E02D0994F894FFCFD1
S11321EC07050700000000003738392F3435362A2C
S11321FC3132332D43303D2B1617000112131415B5
S113220C01010101010101010101010101010101AE
S113221C010101010101010101010101010101019E
S113222C010101010101010101010101010101018E
S113223C010101010101010101010101010101017E
S113224C02030200000000008025000300000101CD
S113225C414C41524D2121212100436F727265631F
S113226C742050617373776F7264210021486F6D11
S113227C655377656574486F6D65210057726F6E91
S113228C672050617373776F726421005379737490
S113229C656D20426C6F636B6564210046697269DD
S11322AC6E6720416C61726D21212100416C617259
S11322BC6D20747269676765726564210054726974
S11322CC616C73206C6566743A2000536D61727492
S11322DC2D486F6D650050726F6A65637421004CF4
S11322EC6F67696E2066697273742074696D65001A
S11322FC53657450617373776F72643A00436F6EF5
S113230C6669726D3A0050617373776F726420530F
S113231C61766564210050617373206D69736D611E
S113232C746368210054727920616761696E2100BD
S113233C57656C636F6D6520486F6D650041646D06
S113234C696E206D6F6465206F6E000A0A536D61AF
S113235C72742D486F6D652050726F6A6563740AD0
S113236C41646D696E206D6F64650A00526F6F6D08
S113237C310A3131294C616D70310A3232294C6188
S113238C6D70320A3333294169722D436F6E64695F
S113239C74696F6E65720A0A000A526F6F6D320AA5
S11323AC3434294C616D70310A3535294C616D70AA
S11323BC320A3636294C616D70330A37294D6169FE
S11323CC6E2D446F6F720A3829557365722D4D6FDB
S11323DC6465000A4C616D70205475726E656420DE
S11323EC4F6666210A000A4C616D70205475726E3A
S11323FC6564206F6E210A000A41697220636F6E56
S113240C646974696F6E6572205475726E656420AC
S113241C4F6666210A000A41697220636F6E646913
S113242C74696F6E6572205475726E6564206F6E7C
S113243C210A000A4F70656E696E67204D61696EE2
S113244C20446F6F72210A000A436C6F73696E67C4
S113245C204D61696E20446F6F72210A000A0A0ACA
S113246C0A0A0A0A0A55736572206D6F6465204F57
S113247C6E2100313A524F4F4D312020333A416492
S113248C6D696E00323A524F4F4D320057726F6E77
S113249C672043686F6963652100446F6F7220691C
S11324AC7320636C6F7365642100707265737320A1
S11324BC31206F70656E00707265737320302072FA
S11324CC657475726E006F70656E696E6720646FEB
S11324DC6F72000A4D61696E20646F6F72206F70A9
S11324EC656E6564210052657475726E20746F207C
S11324FC6D656E75210057726F6E672063686F6926
S113250C63652100446F6F72206973206F70656E70
S113251C656421007072657373203120636C6F7372
S113252C6500636C6F73696E6720646F6F72000A69
S113253C4D61696E20646F6F7220636C6F73656498
S113254C2100313A4C616D703120323A4C616D701E
S113255C3200333A416972436F6E646974696F6E09
S113256C6572004C6564206973204F6E2100313A0A
S113257C5475726E6F666620323A6261636B000A40
S113258C4C616D70312C526F6F6D31206973204F1B
S113259C6666206E6F7721004C6564206973204F4A
S11325AC66662100313A5475726E4F6E20323A626F
S11325BC61636B000A4C616D70312C526F6F6D311D
S11325CC206973206F6E206E6F7721000A4C616D49
S11325DC70322C526F6F6D31206973204F666620F8
S11325EC6E6F7721000A4C616D70322C526F6F6DD7
S11325FC31206973206F6E206E6F772100416972F0
S113260C2D436F6E64206973204F6E21000A41695B
S113261C7220636F6E646974696F6E65722C526F8D
S113262C6F6D31206973204F6666206E6F772100C1
S113263C4169722D436F6E64206973204F66662165
S113264C005365742054656D703A5F5F000A4169EC
S113265C7220636F6E646974696F6E65722C526F4D
S113266C6F6D31206973206F6E206E6F772100338C
S113267C3A4C616D7033000A4C616D70312C526FA1
S113268C6F6D32206973204F6666206E6F77210060
S113269C0A4C616D70312C526F6F6D32206973204E
S11326AC6F6E206E6F7721000A4C616D70322C5264
S11326BC6F6F6D32206973204F6666206E6F7721C1
S11326CC000A4C616D70322C526F6F6D322069733D
S11326DC206F6E206E6F7721000A4C616D70332C65
S11326EC526F6F6D32206973204F6666206E6F7760
S11326FC21000A4C616D70332C526F6F6D3220695E
S10D270C73206F6E206E6F772100BA
S9030000FC
