S00D00004F435432332E73726563CC
S11300000C945F000C942F0E0C94560E0C947D0EE1
S11300100C947C000C947C000C947C000C949E0F3B
S11300200C94C50F0C94EC0F0C947C000C947C0085
S11300300C947C000C947C000C947C000C947C004C
S11300400C947C000C947C000C947C000C947C003C
S11300500C947C0063017A019101AC01C401DC01C0
S1130060F40157015701570157015701570157012F
S113007057015701570157015701570157015701BC
S113008057015701570157015701570157015701AC
S1130090570157015701570157015701570157019C
S11300A0570157015701570157015701570157018C
S11300B0570157017F029D02BE02670228021124E4
S11300C01FBECFE5D8E0DEBFCDBF17E0A0E6B0E0AD
S11300D0EAE7F5E202C005900D92A43BB107D9F717
S11300E027E0A4EBB7E001C01D92A03CB207E1F702
S11300F00E94170C0C94BB120C940000CF92DF9258
S1130100EF92FF920F931F93CF93DF9300D000D011
S1130110CDB7DEB7082F19821A821B821C82CE014A
S113012001967C016C0110E0612F802F0E94120A5D
S1130130F60181936F011F5F1430B1F79E012B5FAD
S11301403F4F90E0F70181917F018F3F09F49F5F5A
S1130150E216F306B9F781E0943009F480E00F90D9
S11301600F900F900F90DF91CF911F910F91FF90FF
S1130170EF90DF90CF9008950F931F93CF93DF9369
S1130180D82F8B01C0E06C2F8D2F0E94120AF8012A
S113019081938F01FFEF20E782E0F15020408040FF
S11301A0E1F700C00000CF5FC43069F7DF91CF9161
S11301B01F910F91089560E082EA0E94120A8F3F16
S11301C0B1F00E94CA0B80ED90E00E94880B2FEFE3
S11301D083EC99E0215080409040E1F700C000009A
S11301E00E94CA0B61E088E00E94550CEACF089592
S11301F060E084EA0E94120A2FEF30E792E0215077
S113020030409040E1F700C000008F3F21F08AE5C4
S113021090E00E94CE0B0895CF9380EA0E947E0066
S1130220C1E0813009F0C0E088EA0E947E0081309C
S113023009F4CF5F8C2FCF9108950E94CA0B8AEDE9
S113024090E00E94880B0E947B0A8823E1F38133AB
S113025019F0823369F0089580EA0E944B038AEE14
S113026090E00E94EC0987E091E00E94EC09089577
S113027088EA0E944B0381E291E00E94EC098EE33C
S113028091E00E94EC090895CF930E94CA0B88E57F
S113029091E00E94880B86E691E00E94EC0987E8D1
S11302A091E00E94EC0984ED91E00E94EC090E9427
S11302B0EF0990E0FC01F197E533F105C0F7E65D45
S11302C0FF4F0C94B51281E30E94EA0E8F3441F47F
S11302D088E892E00E94EC0981E20E94EA0EE7CFEE
S11302E0863429F78BE992E00E94EC0981E10E94AF
S11302F0EA0EDDCF82E30E94EA0E8F3441F482E2FB
S11303000E94EA0E88E892E00E94EC09D0CF86347D
S113031071F682E10E94EA0E8BE992E00E94EC09F8
S1130320C6CF86E30E94EA0E8F3441F486E20E942F
S1130330EA0E8DEA92E00E94EC09B9CF863409F006
S1130340B6CF86E10E94EA0E88E10E94EA0E8BECA9
S113035092E00E94EC09ABCF83E30E94EA0E8F3453
S113036041F483E20E94EA0E88E892E00E94EC09DC
S11303709ECF863409F09BCF83E10E94EA0E8BE97D
S113038092E00E94EC0993CF84E30E94EA0E8F343A
S113039041F484E20E94EA0E88E892E00E94EC09AB
S11303A086CF863409F083CF84E10E94EA0E8BE97C
S11303B092E00E94EC097BCF85E30E94EA0E8F3421
S11303C041F485E20E94EA0E88E892E00E94EC097A
S11303D06ECF863409F06BCF85E10E94EA0E8BE97B
S11303E092E00E94EC0963CF60E084EA0E94120A62
S11303F08F3FB9F488EE92E00E94E2108AE590E023
S11304000E94CE0B41E360E084EA0E94F2092FEFE0
S113041083EC99E0215080409040E1F700C0000057
S113042046CF8DEF92E00E94E21080E090E00E94BF
S1130430CE0B4FEF60E084EA0E94F2092FEF83ECC9
S113044099E0215080409040E1F700C000002FCF98
S11304500E940C01811105C082E193E00E94EC0925
S113046026CF813071F580EA0E947E00C82F88EA89
S11304700E947E00C13089F487E091E00E94EC097B
S11304802FEF80E792E0215080409040E1F700C0D8
S1130490000080EA0E948D0892C0813009F08FC06C
S11304A08EE391E00E94EC092FEF80E792E0215067
S11304B080409040E1F700C0000088EA0E948D0867
S11304C07EC0823009F07BC00E941D0178C00E946A
S11304D00C01811105C08FE393E00E94EC09E7CE83
S11304E0813029F48BE593E00E94EC09E0CE823060
S11304F009F0DDCE88E793E00E94EC09D8CE0E9493
S11305000C01823029F485E993E00E94EC09CFCEF6
S113051080EA0E947E00813041F480EB93E00E94E7
S1130520EC0988EA0E948D084AC088EC93E00E9496
S1130530EC0980EA0E948D0842C080EA0E947E0095
S11305408130B9F4C0E04FEF6C2F80EA0E94F209C9
S11305502FEF83EC99E0215080409040E1F700C0F8
S11305600000CF5FC43079F780EE93E00E94EC097D
S11305709ECE80E094E00E94EC0999CE88EA0E9425
S11305807E008130B9F4C0E04FEF6C2F88EA0E94FE
S1130590F2092FEF83EC99E0215080409040E1F77D
S11305A000C00000CF5FC43079F781E294E00E947C
S11305B0EC097DCE81E494E00E94EC0978CECF91E1
S11305C00895CF93C82F0E94CA0B82E694E00E943C
S11305D0880B60E082E00E949E0B83E794E00E9417
S11305E0880B0E947B0A8823E1F3823379F018F4A4
S11305F0813331F03AC0833379F0843391F035C0DC
S11306000E94CA0B8C2F0E945F04EBCF0E94CA0B7E
S11306108C2F0E94A706E5CF0E94CA0B0E944401BA
S1130620E0CF0E94CA0B83E894E00E94880B2FEF6E
S113063083EC99E0215080409040E1F700C0000035
S113064060E082E00E949E0B85E994E00E94880BA2
S11306502FEF83EC99E0215080409040E1F700C0F7
S113066000008C2F0E944B03BCCF0E94CA0B83EA6C
S113067094E00E94880B2FEF87E893E1215080409B
S11306809040E1F700C000000E94CA0B8C2F0E942A
S1130690E102CF9108958F929F92AF92BF92CF9231
S11306A0DF92EF92FF920F931F93CF93DF93CDB717
S11306B0DEB728970FB6F894DEBF0FBECDBFA82EC5
S11306C019821A821B821C821D821E821F82188636
S11306D0BE016B5F7F4F0E94BC002FEF80E792E06A
S11306E0215080409040E1F700C000000F2EF3E35A
S11306F0BF2EF02D6E01A9E0CA0ED11C0E94CA0BB8
S11307008BE497E00E94880B60E082E00E949E0BDD
S1130710B0EAAB1205C081EB94E00E94880B07C0DD
S1130720E8EAAE1204C081EC94E00E94880B69E010
S113073081E00E949E0B8E010F5F1F4F4801E12C48
S11307400E947B0AF82E8823E1F00E94400BFFEF01
S113075020E782E0F15020408040E1F700C0000033
S113076069E06E0D81E00E949E0B8AE20E94400BBC
S1130770D401FD924D01E394B4E0EB1609F488C072
S1130780DFCFE3E0EE15E0F683C09191D8018D91BF
S11307908D01981301C02F5FCE16DF06B1F7243008
S11307A031F50E94CA0B81ED94E00E94880BBFEFE3
S11307B0E7E8F3E1B150E040F040E1F700C00000A9
S11307C060E082E00E949E0B83EE94E00E94880B1E
S11307D02FEF89E698E1215080409040E1F700C076
S11307E000000E94CA0B8A2D0E94E10255C00E949B
S11307F0CA0B83EF94E00E94880BA1E3BA1230C0C5
S11308000E94CA0B83E095E00E94880B60E082E0BE
S11308100E949E0B83E195E00E94880B83E295E0A1
S11308200E94EC0941E360E082EA0E94F209BFEF12
S1130830E0E7F2E0B150E040F040E1F700C0000032
S113084061E088E00E94550C2FEF87E893E1215086
S113085080409040E1F700C000000E94DB001CC013
S1130860BA9460E082E00E949E0B84E395E00E94CB
S1130870880B8B2D0E94400BAFEFB7E8E3E1A1504A
S1130880B040E040E1F700C000000E94CA0B36CF40
S1130890FE01359620E079CF28960FB6F894DEBF96
S11308A00FBECDBFDF91CF911F910F91FF90EF90BD
S11308B0DF90CF90BF90AF909F908F9008959F92BC
S11308C0AF92BF92CF92DF92EF92FF920F931F935A
S11308D0CF93DF93D82F912C6894FF24F1F8DF2C69
S11308E0192DC92CAF2C0E94CA0B82E495E00E94FA
S11308F0880B692D8F2D0E949E0B82E595E00E9446
S1130900880B0E947B0A8823E1F3823309F496C0A2
S113091018F4813341F0FCC1833309F41AC18433E0
S113092009F4F0C1F5C10E94CA0B2FEF80E792E0F1
S1130930215080409040E1F700C0000081E30E9414
S1130940EA0E2FEF80E792E0215080409040E1F7DB
S113095000C0000081E00E94EA0E8F3499F50E94E5
S1130960CA0B83E695E00E94880B612F8D2D0E94AF
S11309709E0B8EE695E00E94880B0E947B0AC82F8E
S11309808823D9F32FEF81EE94E0215080409040EA
S1130990E1F700C00000C13319F0C23361F048C070
S11309A081E20E94EA0E8FE795E00E94EC098D2F08
S11309B00E945F04E2CF89E90E94EA0E8D2F0E9413
S11309C05F0436C0863499F50E94CA0B88E995E025
S11309D00E94880B612F8D2D0E949E0B84EA95E066
S11309E00E94880B0E947B0AC82F8823D9F32FEF1B
S11309F081EE94E0215080409040E1F700C0000077
S1130A00C13319F0C23361F013C081E10E94EA0ED0
S1130A1084EB95E00E94EC098D2F0E945F04E2CFE5
S1130A2089E90E94EA0E8D2F0E945F0401C0C12F44
S1130A300E94CA0B8D2F0E945F047AC10E94CA0BC8
S1130A402FEF80E792E0215080409040E1F700C012
S1130A50000082E30E94EA0E2FEF80E792E021502B
S1130A6080409040E1F700C0000081E00E94EA0E5F
S1130A708F3499F50E94CA0B83E695E00E94880B97
S1130A80612F8D2D0E949E0B8EE695E00E94880BAF
S1130A900E947B0AC82F8823D9F32FEF81EE94E0BC
S1130AA0215080409040E1F700C00000C13319F0AC
S1130AB0C23361F048C082E20E94EA0E8CEC95E0F9
S1130AC00E94EC098D2F0E945F04E2CF89E90E9405
S1130AD0EA0E8D2F0E945F0436C0863499F50E9479
S1130AE0CA0B88E995E00E94880B612F8D2D0E9426
S1130AF09E0B84EA95E00E94880B0E947B0AC82F13
S1130B008823D9F32FEF81EE94E021508040904068
S1130B10E1F700C00000C13319F0C23361F013C023
S1130B2082E10E94EA0E85EE95E00E94EC098D2F89
S1130B300E945F04E2CF89E90E94EA0E8D2F0E9491
S1130B405F04DBCFC12F0E94CA0B8D2F0E945F046C
S1130B50EFC00E94CA0B2FEF80E792E02150804043
S1130B609040E1F700C0000086E30E94EA0E2FEFF8
S1130B7080E792E0215080409040E1F700C00000FF
S1130B8081E00E94EA0E8F3499F50E94CA0B8DEF22
S1130B9095E00E94880B612F8D2D0E949E0B8EE69E
S1130BA095E00E94880B0E947B0AC82F8823D9F302
S1130BB02FEF81EE94E0215080409040E1F700C097
S1130BC00000C13319F0C23361F096C086E20E947E
S1130BD0EA0E8DE096E00E94EC098D2F0E945F04DE
S1130BE0E2CF89E90E94EA0E8D2F0E945F0484C03F
S1130BF0863409F080C00E94CA0B80E396E00E940C
S1130C00880B612F8D2D0E949E0B84EA95E00E9433
S1130C10880B0E947B0AC82F8823D9F32FEF81EE1B
S1130C2094E0215080409040E1F700C00000C133BF
S1130C3021F0C23309F454C05AC00E94CA0B81E4A3
S1130C4096E00E94880B60E670E081E00E94AF0BA2
S1130C506BE081E00E949E0B81E00E94400B83E4E4
S1130C600E94400B69E081E00E949E0B01E0BC2CD5
S1130C700E947B0AC82F882371F0013029F40E9456
S1130C80400BBC2E0A2DF4CF023049F40E94400BD5
S1130C909C2FCC2D05C0033058F3982F01C09C2DF8
S1130CA08B2D880F8056E82EEE0CEE0CE80E905338
S1130CB0E90E2FEF81EE94E0215080409040E1F75F
S1130CC000C0000086E10E94EA0E8DE496E00E94D6
S1130CD0EC098E2D0E94EA0E8D2F0E945F0407C03E
S1130CE089E90E94EA0E8D2F0E945F0492CFCC23E3
S1130CF009F48FCF01C0C12F0E94CA0B8D2F0E940F
S1130D005F0416C00E94CA0B8D2F0E94E10213C01B
S1130D100E94CA0B8FE696E00E94880B2FEF89E6AB
S1130D2098E1215080409040E1F700C00000DBCD05
S1130D30CC2309F4E6CDDF91CF911F910F91FF9061
S1130D40EF90DF90CF90BF90AF909F9008950F9356
S1130D501F93CF93DF93D82F00E0102F0E94CA0B6C
S1130D6082E495E00E94880B602F82E00E949E0B33
S1130D708DE796E00E94880B0E947B0A8823E1F3AA
S1130D80823309F496C018F4813341F0AEC1833341
S1130D9009F41AC1843309F4A2C1A7C10E94CA0B81
S1130DA02FEF80E792E0215080409040E1F700C0AF
S1130DB0000083E30E94EA0E2FEF80E792E02150C7
S1130DC080409040E1F700C0000081E00E94EA0EFC
S1130DD08F3499F50E94CA0B83E695E00E94880B34
S1130DE0612F82E00E949E0B8EE695E00E94880BA4
S1130DF00E947B0AC82F8823D9F32FEF81EE94E059
S1130E00215080409040E1F700C00000C13319F048
S1130E10C23361F048C083E20E94EA0E8EE896E095
S1130E200E94EC098D2F0E94A706E2CF89E90E9457
S1130E30EA0E8D2F0E94A70636C0863499F50E94CB
S1130E40CA0B88E995E00E94880B612F82E00E941A
S1130E509E0B84EA95E00E94880B0E947B0AC82FAF
S1130E608823D9F32FEF81EE94E021508040904005
S1130E70E1F700C00000C13319F0C23361F013C0C0
S1130E8083E10E94EA0E87EA96E00E94EC098D2F26
S1130E900E94A706E2CF89E90E94EA0E8D2F0E94E4
S1130EA0A70601C0C12F0E94CA0B8D2F0E94A7065E
S1130EB02CC10E94CA0B2FEF80E792E021508040A2
S1130EC09040E1F700C0000084E30E94EA0E2FEF97
S1130ED080E792E0215080409040E1F700C000009C
S1130EE081E00E94EA0E8F3499F50E94CA0B83E6D2
S1130EF095E00E94880B612F82E00E949E0B8EE693
S1130F0095E00E94880B0E947B0AC82F8823D9F39E
S1130F102FEF81EE94E0215080409040E1F700C033
S1130F200000C13319F0C23361F048C084E20E946A
S1130F30EA0E8FEB96E00E94EC098D2F0E94A70623
S1130F40E2CF89E90E94EA0E8D2F0E94A70636C0DF
S1130F50863499F50E94CA0B88E995E00E94880BB3
S1130F60612F82E00E949E0B84EA95E00E94880B28
S1130F700E947B0AC82F8823D9F32FEF81EE94E0D7
S1130F80215080409040E1F700C00000C13319F0C7
S1130F90C23361F013C084E10E94EA0E88ED96E04A
S1130FA00E94EC098D2F0E94A706E2CF89E90E94D6
S1130FB0EA0E8D2F0E94A706DBCFC12F0E94CA0B19
S1130FC08D2F0E94A706A1C00E94CA0B2FEF80E7B5
S1130FD092E0215080409040E1F700C0000085E39A
S1130FE00E94EA0E2FEF80E792E02150804090406B
S1130FF0E1F700C0000081E00E94EA0E8F3499F509
S11310000E94CA0B83E695E00E94880B612F82E060
S11310100E949E0B8EE695E00E94880B0E947B0A3C
S1131020C82F8823D9F32FEF81EE94E0215080401C
S11310309040E1F700C00000C13319F0C23361F001
S113104048C085E20E94EA0E80EF96E00E94EC0917
S11310508D2F0E94A706E2CF89E90E94EA0E8D2F08
S11310600E94A70636C0863499F50E94CA0B88E907
S113107095E00E94880B612F82E00E949E0B84EA17
S113108095E00E94880B0E947B0AC82F8823D9F31D
S11310902FEF81EE94E0215080409040E1F700C0B2
S11310A00000C13319F0C23361F013C085E10E941E
S11310B0EA0E89E097E00E94EC098D2F0E94A706B2
S11310C0E2CF89E90E94EA0E8D2F0E94A706DBCFAA
S11310D0C12F0E94CA0B8D2F0E94A70616C00E9422
S11310E0CA0B8D2F0E94E10213C00E94CA0B8FE627
S11310F096E00E94880B2FEF89E698E1215080400A
S11311009040E1F700C0000029CECC2309F434CE8E
S1131110DF91CF911F910F9108957F928F929F92AB
S1131120AF92BF92CF92DF92EF92FF920F931F93F1
S1131130CF93DF93CDB7DEB728970FB6F894DEBF11
S11311400FBECDBF782E0E94CA0B2FEF86E791E029
S1131150215080409040E1F700C0000062E081E04F
S11311600E949E0B81E297E00E94880B64E082E07B
S11311700E949E0B8EE297E00E94880BAFEFB7E8C7
S1131180E3E1A150B040E040E1F700C000000E945C
S1131190CA0B872D0E947E008111EFC01D821E8222
S11311A01F82188619821A821B821C8287E397E0A9
S11311B00E94880BFFEF27E883E1F1502040804034
S11311C0E1F700C000000E94CA0B6E0199E0C90E4D
S11311D0D11C88E497E00E94880BA0EA7A1213C01D
S11311E060E082E00E949E0B81EB94E00E94880BF9
S11311F06CE081E00E949E0B5E01B5E0AB0EB11C79
S1131200750100E010C0E8EA7E12F6CF60E082E0EB
S11312100E949E0B81EC94E00E94880B6CE081E0BC
S11312200E949E0BE9CF0E947B0A182F8823D1F0DD
S11312300E94400BFFEF20E782E0F1502040804005
S1131240E1F700C000006CE0600F81E00E949E0B9B
S11312508AE20E94400BD7011D937D010F5F043089
S113126019F0E1CF0430F8F20E94CA0B85E597E04B
S11312700E94880B8E010F5F1F4F4801E12C0E94D2
S11312807B0AF82E8823D9F00E94400BBFEFE0E7D9
S1131290F2E0B150E040F040E1F700C0000068E047
S11312A06E0D81E00E949E0B8AE20E94400BD401E5
S11312B0FD924D01E394B4E0EB1621F0E0CFE3E0BE
S11312C0EE15E8F60E94CA0BF50120E09191D801D1
S11312D08D918D01981301C02F5FCE16DF06B1F7F3
S11312E0243051F510E0F50141915F01612F872D04
S11312F00E94F209FFEF23EC89E0F1502040804086
S1131300E1F700C000001F5F143069F78EE597E035
S11313100E94880B9FEFA7E8B3E19150A040B04032
S1131320E1F700C000000E94CA0B8EE697E00E941D
S1131330EC090E94440139C08DE897E00E94880BB3
S1131340EFEFF3EC29E0E150F0402040E1F700C07A
S1131350000060E082E00E949E0B8CE997E00E940E
S1131360880B8FEF93ECA9E081509040A040E1F707
S113137000C000000E94CA0B2CCF0E94CA0B62E07E
S113138081E00E949E0B87EA97E00E94880BBFEFE2
S1131390E7E8F3E1B150E040F040E1F700C00000BD
S11313A00E94CA0B872D0E944B0328960FB6F8940F
S11313B0DEBF0FBECDBFDF91CF911F910F91FF9084
S11313C0EF90DF90CF90BF90AF909F908F907F90E1
S11313D008950E946A1008950E94E21008950E94E0
S11313E0F81008951F93CF93DF93C82FD62F142F8F
S11313F00E941710883091F48C2F8E7F0E942C103D
S1131400883161F48D2F0E942C10883239F4812F99
S11314100E942C10883211F40E945A10DF91CF914F
S11314201F9108950F931F93CF93DF931F92CDB70E
S1131430DEB7182F062F19820E9417108830E9F49E
S1131440812F8E7F0E942C108831B9F4802F0E9446
S11314502C10883291F40E941710803171F4812F7E
S113146081600E942C10803441F4CE0101960E94C8
S11314704210883511F40E945A1089810F90DF912F
S1131480CF911F910F910895EF92FF920F931F93A5
S1131490CF93DF93C8E7D0E00F2EFCE7EF2EF0E008
S11314A0FF2EF02D8E0160E089910E940A0D61E00B
S11314B0F80180810E94550CCE15DF0599F7CCE721
S11314C0D0E00F2EF0E8EF2EF0E0FF2EF02D8E018D
S11314D061E089910E940A0D61E0F80180810E9417
S11314E0550CCE15DF0599F7DF91CF911F910F9120
S11314F0FF90EF9008956F927F928F929F92AF9298
S1131500BF92CF92DF92EF92FF920F931F93CF93EC
S1131510DF930CE710E0C12CD12C4601580160E0A8
S1131520F80180810E94550CC8E7D0E0612C712C31
S1131530730189910E94D70C811114C0E301C8582A
S1131540DF4F88810E94D70C8823D9F3C401880F08
S1131550991F880F991F88599F4FFC01EE0DFF1D9D
S1131560808116C0FFEF6F1A7F0A84E06816710449
S1131570F9F60F5F1F4F61E0F50180810E94550C61
S1131580FFEFCF1ADF0A84E0C816D10431F680E0F9
S1131590DF91CF911F910F91FF90EF90DF90CF904B
S11315A0BF90AF909F908F907F906F900895CF934E
S11315B0C82F60E089E00E94550C80E00E948C0DE9
S11315C08F709C2F907F682F692B80E00E949E0D66
S11315D060E08BE00E94550C8FE891E00197F1F7F1
S11315E000C0000061E08BE00E94550C8FE19EE496
S11315F00197F1F700C0000080E00E948C0D8F700D
S113160090E1C99F90011124682F622B80E00E9411
S11316109E0D60E08BE00E94550C8FE891E00197ED
S1131620F1F700C0000061E08BE00E94550C8FE3ED
S11316309FE10197F1F700C00000CF91089560E0A9
S11316408AE00E94550C61E08BE00E94550C2FEF5C
S113165089EF90E0215080409040E1F700C0000005
S113166083E30E94D70A82E30E94D70A88E20E9499
S1131670D70A86E00E94D70A8CE00E94D70A089510
S1131680CF93C82F61E089E00E94550C80E00E944E
S11316908C0D8F709C2F907F682F692B80E00E94A7
S11316A09E0D60E08BE00E94550C8FE891E001975D
S11316B0F1F700C0000061E08BE00E94550C8FE15F
S11316C09EE40197F1F700C0000080E00E948C0DB9
S11316D08F7090E1C99F90011124682F622B80E0E4
S11316E00E949E0D60E08BE00E94550C8FE891E013
S11316F00197F1F700C0000061E08BE00E94550CF7
S11317008FE39FE10197F1F700C00000CF910895A6
S11317100F931F93CF93FC018081882359F08F018D
S1131720C0E00E94400BCF5FF801EC0FF11D8081F7
S11317308111F7CFCF911F910F910895813019F046
S1131740823039F00895862F8F7080680E94D70AFE
S11317500895862F8F70806C0E94D70A08950F9386
S11317601F93CF93DF93883080F48B01880F880F09
S1131770880F805C0E94D70AE801085F1F4F899197
S11317800E94400BC017D107D1F7DF91CF911F9171
S11317900F91089581E00E94D70A08950F931F9333
S11317A0CF93DF93CDB7DEB728970FB6F894DEBF9B
S11317B00FBECDBF8C0161E08DE10E940A0D87E868
S11317C093E10E949B0FB80180E090E00E94981181
S11317D02CE137EC41EB5FE30E94261220E030E07D
S11317E04AE753E40E94FD1020E030E040E85FE364
S11317F00E94FC100E946911CB010E94980F88E09E
S1131800E0ECF0E0DE01119601900D928A95E1F78B
S1131810CE0101960E94EF0E28960FB6F894DEBF13
S11318200FBECDBFDF91CF911F910F910895CF933C
S1131830DF93CDB7DEB72C970FB6F894DEBF0FBE9B
S1131840CDBF81E089831A8282E08B831C820E944F
S1131850AE0D0E941F0B0E94440A86E60E941310DC
S1131860CE0101960E94A40E88E0E8ECF0E0DE01CF
S1131870159601900D928A95E1F7CE0105960E9486
S1131880E90960E088E10E940A0D2FEF81EE94E0FF
S1131890215080409040E1F700C000000E94DB002E
S11318A00E94F8000E944401FDCF982F97708695FE
S11318B086958695813021F130F08230F1F18330C4
S11318C009F458C00895613069F44BB321E030E065
S11318D0B90102C0660F771F9A95E2F7CB01842BFA
S11318E08BBB08954BB321E030E0B90102C0660F11
S11318F0771F9A95E2F7CB01809584238BBB0895DB
S1131900613069F448B321E030E0B90102C0660FE8
S1131910771F9A95E2F7CB01842B88BB089548B3CF
S113192021E030E0B90102C0660F771F9A95E2F713
S1131930CB018095842388BB0895613069F445B355
S113194021E030E0B90102C0660F771F9A95E2F7F3
S1131950CB01842B85BB089545B321E030E0B90168
S113196002C0660F771F9A95E2F7CB018095842316
S113197085BB0895613069F442B321E030E0B901D8
S113198002C0660F771F9A95E2F7CB01842B82BBC6
S1131990089542B321E030E0B90102C0660F771F19
S11319A09A95E2F7CB018095842382BB0895282F72
S11319B02770869586958695813079F028F0823057
S11319C0A9F08330E1F024C089B390E002C095957A
S11319D087952A95E2F78170089586B390E002C056
S11319E0959587952A95E2F78170089583B390E0E1
S11319F002C0959587952A95E2F78170089580B382
S1131A0090E002C0959587952A95E2F78170089534
S1131A1080E00895982F97708695869586958130F5
S1131A2021F130F08230F1F1833009F458C0089587
S1131A30613069F44AB321E030E0B90102C0660FB5
S1131A40771F9A95E2F7CB01842B8ABB08954AB39A
S1131A5021E030E0B90102C0660F771F9A95E2F7E2
S1131A60CB01809584238ABB0895613069F447B320
S1131A7021E030E0B90102C0660F771F9A95E2F7C2
S1131A80CB01842B87BB089547B321E030E0B90133
S1131A9002C0660F771F9A95E2F7CB0180958423E5
S1131AA087BB0895613069F444B321E030E0B901A3
S1131AB002C0660F771F9A95E2F7CB01842B84BB93
S1131AC0089544B321E030E0B90102C0660F771FE6
S1131AD09A95E2F7CB018095842384BB0895613005
S1131AE069F441B321E030E0B90102C0660F771F09
S1131AF09A95E2F7CB01842B81BB089541B321E091
S1131B0030E0B90102C0660F771F9A95E2F7CB0166
S1131B108095842381BB0895813041F028F0823080
S1131B2039F0833039F008C08BB3089588B3089531
S1131B3085B3089582B3089580E00895813041F01B
S1131B4028F0823039F0833039F008956BBB089562
S1131B5068BB089565BB089562BB0895E0E8F0E0B2
S1131B6080E041E050E0282F2770982F96959695B5
S1131B709695913009F130F09230C1F1933009F427
S1131B804FC067C09081913059F49AB3BA0102C032
S1131B90660F771F2A95E2F79B01292B2ABB59C0B0
S1131BA03AB3BA0102C0660F771F2A95E2F7962F5F
S1131BB0909593239ABB4DC09081913059F497B37B
S1131BC0BA0102C0660F771F2A95E2F79B01292B01
S1131BD027BB3FC037B3BA0102C0660F771F2A95EF
S1131BE0E2F7962F9095932397BB33C09081913061
S1131BF059F494B3BA0102C0660F771F2A95E2F72D
S1131C009B01292B24BB25C034B3BA0102C0660F43
S1131C10771F2A95E2F7962F9095932394BB19C0CA
S1131C209081913059F491B3BA0102C0660F771FC5
S1131C302A95E2F79B01292B21BB0BC031B3BA01D2
S1131C4002C0660F771F2A95E2F7962F909593238B
S1131C5091BB8F5F3296803209F085CF08951F9231
S1131C600F920FB60F9211242F933F934F935F93CC
S1131C706F937F938F939F93AF93BF93EF93FF9350
S1131C80E091B807F091B9070995FF91EF91BF91E1
S1131C90AF919F918F917F916F915F914F913F9100
S1131CA02F910F900FBE0F901F9018951F920F92B7
S1131CB00FB60F9211242F933F934F935F936F931B
S1131CC07F938F939F93AF93BF93EF93FF93E09191
S1131CD0B607F091B7070995FF91EF91BF91AF91C6
S1131CE09F918F917F916F915F914F913F912F9130
S1131CF00F900FBE0F901F9018951F920F920FB662
S1131D000F9211242F933F934F935F936F937F937D
S1131D108F939F93AF93BF93EF93FF93E091B40797
S1131D20F091B5070995FF91EF91BF91AF919F9104
S1131D308F917F916F915F914F913F912F910F9070
S1131D400FBE0F901F901895CF93DF93EC018881FD
S1131D508823A9F0813029F561E08CE00E940A0D06
S1131D6061E08DE00E940A0D60E08EE00E940A0DA1
S1131D7061E08FE00E940A0D6C9A6E9A12C060E0D6
S1131D808CE00E940A0D60E08DE00E940A0D61E083
S1131D908EE00E940A0D60E08FE00E940A0D6C98AC
S1131DA06E9A2DB1998130E2939FC0011124822B48
S1131DB08DB98B81813031F4709A9DB18A81892BE0
S1131DC08DB905C070989DB18A81892B8DB9DF9139
S1131DD0CF9108958FB9779BFECF8FB10895FC0101
S1131DE08081813099F028F08230E9F0833041F12C
S1131DF033C08FB58E7F8FBD8FB58D7F8FBD8EB570
S1131E00877F8EBD8EB58F7E8EBD26C08FB58E7FAB
S1131E108FBD8FB58D7F8FBD8EB588608EBD8EB51D
S1131E208F7E8EBD19C08FB58E7F8FBD8FB58260BA
S1131E308FBD8EB588608EBD8EB580618EBD0CC0A1
S1131E408FB58E7F8FBD8FB582608FBD8EB5877F36
S1131E508EBD8EB580618EBD8181823001F128F402
S1131E60882349F0813089F041C0843061F108F160
S1131E70853099F13BC08EB58E7F8EBD8EB58D7F3A
S1131E808EBD8EB58B7F8EBD31C08EB581608EBD0B
S1131E908EB58D7F8EBD8EB58B7F8EBD27C08EB5E2
S1131EA08E7F8EBD8EB582608EBD8EB58B7F8EBDCE
S1131EB01DC08EB581608EBD8EB582608EBD8EB51F
S1131EC08B7F8EBD13C08EB58E7F8EBD8EB58D7FFC
S1131ED08EBD8EB584608EBD09C08EB581608EBD09
S1131EE08EB58D7F8EBD8EB584608EBD828182302D
S1131EF059F0833081F0811114C08FB58F7B8FBD71
S1131F008FB58F778FBD0DC08FB58F7B8FBD8FB58C
S1131F1080688FBD06C08FB58F7B8FBD8FB58F77DF
S1131F208FBD99B78781880F880F892B89BF089542
S1131F309BBD8ABD089597BD86BD08951F920F92DB
S1131F400FB60F9211242F933F934F935F936F9388
S1131F507F938F939F93AF93BF93EF93FF93E091FE
S1131F60BE07F091BF070995FF91EF91BF91AF9123
S1131F709F918F917F916F915F914F913F912F919D
S1131F800F900FBE0F901F9018951F920F920FB6CF
S1131F900F9211242F933F934F935F936F937F93EB
S1131FA08F939F93AF93BF93EF93FF93E091BC07FD
S1131FB0F091BD070995FF91EF91BF91AF919F916A
S1131FC08F917F916F915F914F913F912F910F90DE
S1131FD00FBE0F901F9018951F920F920FB60F927D
S1131FE011242F933F934F935F936F937F938F931A
S1131FF09F93AF93BF93EF93FF93E091BA07F09150
S1132000BB070995FF91EF91BF91AF919F918F917C
S11320107F916F915F914F913F912F910F900FBEE0
S11320200F901F90189582B98EE080B9089586B7F5
S1132030806286BF86B78F7E86BF86B78F7B86BF5A
S113204086B7846086BF86B7806886BF06B607FEFB
S1132050FDCF81B1887F089583B986B78F7D86BF10
S113206086B78F7E86BF86B78F7B86BF86B7846030
S113207086BF86B7806886BF06B607FEFDCF81B1EE
S1132080887F0895FC0196B79F7D96BF96B79F7E83
S113209096BF96B79F7B96BF96B7946096BF96B748
S11320A0906896BF06B607FEFDCF83B1808381B1E9
S11320B0887F089586B78F7D86BF86B7806186BF87
S11320C086B78F7B86BF86B7846086BF86B78068F5
S11320D086BF0895CF93DF93EC018A818130E9F4C0
S11320E0599A28813981C901A0E0B0E0880F991F6D
S11320F0AA1FBB1F880F991FAA1FBB1F9C01AD01FC
S1132100220F331F441F551F60E074E284EF90E0F8
S11321100E9493122150310920C059982881398195
S1132120C901A0E0B0E0880F991FAA1FBB1F880F48
S1132130991FAA1FBB1F9C01AD01220F331F441F0F
S1132140551F220F331F441F551F60E074E284EFB4
S113215090E00E9493122150310929B930BD9B812E
S1132160973041F480B5826080BD80B5846080BDC5
S1132170529A05C080B5990F8068892B80BD80B5BF
S11321809C81990F990F990F8068892B80BD20B588
S11321909D8130E1939FC0011124922F9068892B77
S11321A080BD8E8180FD539A80FF53988F8180FD7E
S11321B0549A80FF5498DF91CF9108955D9BFECF90
S11321C08CB908950F931F93CF93FC0180818823CA
S11321D059F08F01C0E00E94DE10CF5FF801EC0FD0
S11321E0F11D80818111F7CFCF911F910F91089537
S11321F05F9BFECF8CB108955058BB27AA270E943D
S113220014110C94EC110E94DE1138F00E94E511B7
S113221020F039F49F3F19F426F40C94DB110EF4EA
S1132220E095E7FB0C94D511E92F0E94FD1158F3BA
S1132230BA17620773078407950720F079F4A6F5A7
S11322400C941F120EF4E0950B2EBA2FA02D0B0147
S1132250B90190010C01CA01A0011124FF27591BE7
S113226099F0593F50F4503E68F11A16F040A22FED
S1132270232F342F4427585FF3CF4695379527955E
S1132280A795F0405395C9F77EF41F16BA0B620B5D
S1132290730B840BBAF09150A1F0FF0FBB1F661FA4
S11322A0771F881FC2F70EC0BA0F621F731F841FE7
S11322B048F4879577956795B795F7959E3F08F00D
S11322C0B0CF9395880F08F09927EE0F97958795CF
S11322D008950E94051288F09F5798F0B92F992706
S11322E0B751B0F0E1F0660F771F881F991F1AF0FD
S11322F0BA95C9F714C0B13091F00E941F12B1E031
S113230008950C941F12672F782F8827B85F39F02F
S1132310B93FCCF3869577956795B395D9F73EF495
S113232090958095709561957F4F8F4F9F4F08953D
S1132330E89409C097FB3EF490958095709561955B
S11323407F4F8F4F9F4F9923A9F0F92F96E9BB2711
S11323509395F695879577956795B795F111F8CF8D
S1132360FAF4BB0F11F460FF1BC06F5F7F4F8F4FF8
S11323709F4F16C0882311F096E911C0772321F0EE
S11323809EE8872F762F05C0662371F096E8862F86
S113239070E060E02AF09A95660F771F881FDAF7DD
S11323A0880F9695879597F9089597F99F6780E820
S11323B070E060E008959FEF80EC089500240A9493
S11323C01616170618060906089500240A9412160C
S11323D01306140605060895092E0394000C11F43F
S11323E0882352F0BB0F40F4BF2B11F460FF04C0EC
S11323F06F5F7F4F8F4F9F4F089557FD9058440F45
S1132400551F59F05F3F71F04795880F97FB991F4F
S113241061F09F3F79F0879508951216130614060C
S1132420551FF2CF4695F1DF08C016161706180699
S1132430991FF1CF86957105610508940895E89474
S1132440BB2766277727CB0197F908950E94391295
S11324500C94EC110E94DE1138F00E94E51120F07A
S1132460952311F00C94D5110C94DB1111240C94C8
S113247020120E94FD1170F3959FC1F3950F50E057
S1132480551F629FF001729FBB27F00DB11D639F22
S1132490AA27F00DB11DAA1F649F6627B00DA11DC8
S11324A0661F829F2227B00DA11D621F739FB00D6E
S11324B0A11D621F839FA00D611D221F749F3327DE
S11324C0A00D611D231F849F600D211D822F762F77
S11324D06A2F11249F5750409AF0F1F088234AF054
S11324E0EE0FFF1FBB1F661F771F881F91505040C0
S11324F0A9F79E3F510580F00C94D5110C9420123D
S11325005F3FE4F3983ED4F3869577956795B79546
S1132510F795E7959F5FC1F7FE2B880F911D969560
S1132520879597F90895A1E21A2EAA1BBB1BFD01FA
S11325300DC0AA1FBB1FEE1FFF1FA217B307E4079E
S1132540F50720F0A21BB30BE40BF50B661F771FF6
S1132550881F991F1A9469F76095709580959095D6
S11325609B01AC01BD01CF010895EE0FFF1F059043
S10D2570F491E02D0994F894FFCFD4
S113257A07050700000000003738392F3435362A9A
S113258A3132332D43303D2B161700011213141523
S113259A010101010101010101010101010101011D
S11325AA010101010101010101010101010101010D
S11325BA01010101010101010101010101010101FD
S11325CA01010101010101010101010101010101ED
S11325DA020302000000000080250003000001013C
S11325EA414C41524D2121212100313A55736572E2
S11325FA3120323A5573657232000A557365722076
S113260A4F6E65206973206E6F7720696E20636F41
S113261A6E74726F6C21000A0A0A0A0A0A0A0A55B7
S113262A736572204F6E65206D6F6465204F6E214D
S113263A000A557365722054776F206973206E6F90
S113264A7720696E20636F6E74726F6C21000A0AB8
S113265A0A0A0A0A0A0A557365722054776F206DAA
S113266A6F6465204F6E210041646D696E206D6F41
S113267A6465206F6E000A0A536D6172742D486F87
S113268A6D652050726F6A6563740A41646D696E80
S113269A206D6F64650A00526F6F6D310A313129FA
S11326AA4C616D70310A3232294C616D70320A33D1
S11326BA33294169722D436F6E646974696F6E655B
S11326CA720A0A5F5F5F5F5F5F5F5F5F5F5F5F5FA3
S11326DA5F5F5F5F5F5F5F5F5F5F5F5F5F5F5F5FFC
S11326EA5F5F5F000A526F6F6D320A3434294C619E
S11326FA6D70310A3535294C616D70320A363629C6
S113270A4C616D70330A37294D61696E2D446F6FC0
S113271A720A0A5F5F5F5F5F5F5F5F5F5F5F5F5F52
S113272A5F5F5F5F5F5F5F5F5F5F5F5F5F5F5F5FAB
S113273A5F5F5F0A4E756D6265720A612952656749
S113274A697374657220557365720A622944656CEB
S113275A6574652055736572204F6E650A63294452
S113276A656C65746520557365722054776F0A64C5
S113277A294E756D626572206F662072656769738A
S113278A74657265642075736572730A6529557375
S113279A65722D4D6F6465000A4C616D7020547525
S11327AA726E6564204F6666210A000A4C616D7078
S11327BA205475726E6564206F6E210A000A41699D
S11327CA7220636F6E646974696F6E6572205475E2
S11327DA726E6564204F6666210A000A4169722096
S11327EA636F6E646974696F6E6572205475726E74
S11327FA6564206F6E210A000A4F70656E696E6700
S113280A204D61696E20446F6F72210A000A436C7D
S113281A6F73696E67204D61696E20446F6F722110
S113282A0A000A4E6F20526567697374657265649B
S113283A2055736572732C207265676973746572A7
S113284A2061207573657220666972737421000AA7
S113285A4E6F207573657273205265676973746568
S113286A726564212028302F3229000A4F6E6520B0
S113287A75736572732052656769737465726564EA
S113288A212028312F3229000A54776F2075736565
S113289A72732052656769737465726564212028AE
S11328AA322F3229000A416C6C20757365727320C9
S11328BA6172652072656769737465726564210063
S11328CA0A52656769737465722055736572205478
S11328DA776F204E6F7721000A52656769737465B2
S11328EA722075736572204F6E65204E6F772100D2
S11328FA0A55736572204F6E652064656C6574654C
S113290A64207375636365737366756C6C792100EF
S113291A0A55736572204F6E65206973206E6F7451
S113292A20726567697374657265642079657421B8
S113293A000A557365722054776F2064656C657458
S113294A6564207375636365737366756C6C79214A
S113295A000A557365722054776F206973206E6F6D
S113296A7420726567697374657265642079657425
S113297A2100313A524F4F4D312020323A524F4FB3
S113298A4D3200333A41646D696E2020343A4C6FFB
S113299A636B004C6F636B696E672053797374655C
S11329AA6D2E2E2E0053797374656D204C6F636BF4
S11329BA65640057726F6E672043686F69636521A7
S11329CA002A2A2A2A2A55534552312A2A2A2A2AE5
S11329DA002A2A2A2A2A55534552322A2A2A2A2AD4
S11329EA00436F72726563742050617373776F72F8
S11329FA64210021486F6D655377656574486F6D6E
S1132A0A65210057726F6E672050617373776F7216
S1132A1A64210053797374656D20426C6F636B652E
S1132A2A642100466972696E6720416C61726D2186
S1132A3A212100416C61726D207472696767657245
S1132A4A65642100547269616C73206C6566743A1A
S1132A5A2000313A4C616D703120323A4C616D700C
S1132A6A3200333A414320202020343A52657475A7
S1132A7A726E004C6564206973204F6E2100313AEE
S1132A8A5475726E6F666620323A6261636B000A2D
S1132A9A4C616D70312C526F6F6D31206973204F08
S1132AAA6666206E6F7721004C6564206973204F37
S1132ABA66662100313A5475726E4F6E20323A625C
S1132ACA61636B000A4C616D70312C526F6F6D310A
S1132ADA206973206F6E206E6F7721000A4C616D36
S1132AEA70322C526F6F6D31206973204F666620E5
S1132AFA6E6F7721000A4C616D70322C526F6F6DC4
S1132B0A31206973206F6E206E6F772100416972DC
S1132B1A2D436F6E64206973204F6E21000A416948
S1132B2A7220636F6E646974696F6E65722C526F7A
S1132B3A6F6D31206973204F6666206E6F772100AE
S1132B4A4169722D436F6E64206973204F66662152
S1132B5A005365742054656D703A5F5F000A4169D9
S1132B6A7220636F6E646974696F6E65722C526F3A
S1132B7A6F6D31206973206F6E206E6F7721005755
S1132B8A726F6E672063686F6963652100333A4C1C
S1132B9A616D703320343A52657475726E000A4C52
S1132BAA616D70312C526F6F6D32206973204F66DC
S1132BBA66206E6F7721000A4C616D70312C526F5A
S1132BCA6F6D32206973206F6E206E6F7721000A51
S1132BDA4C616D70322C526F6F6D32206973204FC5
S1132BEA6666206E6F7721000A4C616D70322C5232
S1132BFA6F6F6D32206973206F6E206E6F772100BC
S1132C0A0A4C616D70332C526F6F6D3220697320D8
S1132C1A4F6666206E6F7721000A4C616D70332C03
S1132C2A526F6F6D32206973206F6E206E6F772139
S1132C3A00536D617274202D20486F6D65005072C7
S1132C4A6F6A65637421004C6F67696E20666972E6
S1132C5A73742074696D6500536574506173737776
S1132C6A6F72643A00436F6E6669726D3A0050611E
S1132C7A7373776F726420536176656421000A5511
S1132C8A736572205265676973746572656420732B
S1132C9A75636365737366756C6C7921005061732F
S1132CAA73206D69736D61746368210054727920AD
S1132CBA616761696E210057656C636F6D652048B1
S1072CCA6F6D6500C1
S9030000FC
