S00D00004F435432332E73726563CC
S11300000C9432000C94590D0C94800D0C94A70D93
S11300100C944F000C944F000C944F000C94C80E99
S11300200C94EF0E0C94160F0C944F000C944F008C
S11300300C944F000C944F000C944F000C944F0000
S11300400C944F000C944F000C944F000C944F00F0
S11300500C944F003A085C0873088E08A608BE0882
S1130060D6080A0911241FBECFE5D8E0DEBFCDBFF4
S113007015E0A0E6B0E0EEECF3E202C005900D92CC
S1130080AE36B107D9F725E0AEE6B5E001C01D9262
S1130090AA37B207E1F70E943F0B0C94E5110C94C8
S11300A00000CF92DF92EF92FF920F931F93CF93B2
S11300B0DF9300D000D0CDB7DEB7082F19821A82A3
S11300C01B821C82CE0101967C016C0110E0612F21
S11300D0802F0E943A09F60181936F011F5F14304B
S11300E0B1F79E012B5F3F4F90E0F70181917F01B3
S11300F08F3F09F49F5FE216F306B9F781E094306D
S113010009F480E00F900F900F900F90DF91CF9142
S11301101F910F91FF90EF90DF90CF9008950F9370
S11301201F93CF93DF93D82F8B01C0E06C2F8D2FBB
S11301300E943A09F80181938F01FFEF20E782E0E2
S1130140F15020408040E1F700C00000CF5FC43090
S113015069F7DF91CF911F910F91089560E082EAD2
S11301600E943A098F3FB1F00E94F20A80ED90E0BC
S11301700E94B00A2FEF83EC99E021508040904018
S1130180E1F700C000000E94F20A61E088E00E94EA
S11301907F0BEACF08958F929F92BF92CF92DF9206
S11301A0EF92FF920F931F93CF93DF93CDB7DEB7F8
S11301B028970FB6F894DEBF0FBECDBF19821A82FE
S11301C01B821C821D821E821F821886BE016B5FE9
S11301D07F4F80EA0E948F002FEF80E792E021504A
S11301E080409040E1F700C000000F2EF3E3BF2EE3
S11301F0F02D6E01A9E0CA0ED11C0E94F20A82E61B
S113020091E00E94B00A8E010F5F1F4F4801E12C5C
S11302100E94A309F82E8823E1F00E94680ABFEF28
S1130220EAE6F3E0B150E040F040E1F700C000003E
S113023069E06E0D81E00E94C60A8AE20E94680AA3
S1130240D401FD924D01E394B4E0EB1609F481C0AE
S1130250DFCFE3E0EE15E0F67CC09191D8018D91FB
S11302608D01981301C02F5FCE16DF06B1F724303D
S113027019F50E94F20A8AED90E00E94B00ABFEFDD
S1130280EFE0F7E2B150E040F040E1F700C00000D9
S113029061E082E00E94C60A8CEE90E00E94B00AFF
S11302A02FEF8FE097E2215080409040E1F700C0AB
S11302B000000E94F20A51C00E94F20A8CEF90E002
S11302C00E94B00AA1E3BA122CC00E94F20A8CE088
S11302D091E00E94B00A60E082E00E94C60A8CE1CC
S11302E091E00E94B00A41E360E082EA0E941A09A8
S11302F0BFEFE0E7F2E0B150E040F040E1F700C0CA
S1130300000061E088E00E947F0B2FEF8DE292E213
S1130310215080409040E1F700C000000E94AE00F0
S11303201CC0BA9460E082E00E94C60A8CE291E0AC
S11303300E94B00A8B2D0E94680AAFEFBFE0E7E28B
S1130340A150B040E040E1F700C000000E94F20A72
S113035054CFFE01359620E080CF28960FB6F8944E
S1130360DEBF0FBECDBFDF91CF911F910F91FF90E4
S1130370EF90DF90CF90BF909F908F9008958F92D1
S11303809F92AF92BF92CF92DF92EF92FF920F9320
S11303901F93CF93DF93CDB7DEB728970FB6F894AA
S11303A0DEBF0FBECDBF63E081E00E94C60A8AE3D0
S11303B091E00E94B00A63E082E00E94C60A85E4EC
S11303C091E00E94B00A2FEF8BE49DE12150804020
S11303D09040E1F700C000000E94F20A80EA0E9407
S11303E051008111CBC01D821E821F821886198282
S11303F01A821B821C828EE491E00E94B00AAFEF45
S1130400BBE4EDE1A150B040E040E1F700C00000E2
S11304100E94F20A6E01F9E0CF0ED11C8FE591E043
S11304200E94B00A5E0125E0A20EB11C750100E035
S11304300E94A309182F8823D1F00E94680A8FEF25
S11304409AE6A3E081509040A040E1F700C000008C
S11304506CE0600F81E00E94C60A8AE20E94680A8A
S1130460F70111937F010F5F043019F0E1CF0430DD
S1130470F8F20E94F20A8CE691E00E94B00A8E0122
S11304800F5F1F4F4801E12C0E94A309F82E882317
S1130490D9F00E94680AFFEF2AE683E0F150204079
S11304A08040E1F700C0000068E06E0D81E00E942A
S11304B0C60A8AE20E94680AD401FD924D01E394BF
S11304C0B4E0EB1621F0E0CFE3E0EE15E8F60E948D
S11304D0F20AF50120E09191D8018D918D019813D4
S11304E001C02F5FCE16DF06B1F7243031F510E0DE
S11304F0F50141915F01612F80EA0E941A09FFEF23
S113050023EC89E0F15020408040E1F700C0000076
S11305101F5F143069F785E791E00E94B00A9FEFEE
S1130520ABE4BDE19150A040B040E1F700C0000051
S11305300E94F20A0E94CB0038C085E891E00E9434
S1130540B00AEFEFF3EC29E0E150F0402040E1F78E
S113055000C0000060E082E00E94C60A84E991E0E5
S11305600E94B00A8FEF93ECA9E081509040A04024
S1130570E1F700C000000E94F20A50CF0E94F20A84
S113058062E081E00E94C60A8FE991E00E94B00A0D
S1130590BFEFEFE0F7E2B150E040F040E1F700C018
S11305A000000E94F20A0E94CB0028960FB6F8942D
S11305B0DEBF0FBECDBFDF91CF911F910F91FF9092
S11305C0EF90DF90CF90BF90AF909F908F90089561
S11305D060E084EA0E943A092FEF30E792E021506C
S11305E030409040E1F700C000008F3F21F08AE5E1
S11305F090E00E94F60A08951F93CF93DF93D0E012
S11306001D2F0E94F20A8CEA91E00E94B00A6D2F1D
S113061082E00E94C60A8CEB91E00E94B00A0E941C
S1130620A3098823E1F3823309F48CC0833309F4EA
S11306300FC1813309F092C10E94F20A2FEF80E7C3
S113064092E0215080409040E1F700C0000083E335
S11306500E94140E2FEF80E792E0215080409040DA
S1130660E1F700C0000081E00E94140E8F3489F588
S11306700E94F20A84EC91E00E94B00A612F82E0A9
S11306800E94C60A8FEC91E00E94B00A0E94A3095E
S1130690C82F8823D9F32FEF81EE94E021508040B6
S11306A09040E1F700C00000C13319F0C23359F0A3
S11306B044C083E20E94140E80EE91E00E9414096B
S11306C00E94C504E3CF89E90E94140E0E94C50468
S11306D034C0863489F50E94F20A89EF91E00E94C1
S11306E0B00A612F82E00E94C60A85E092E00E946F
S11306F0B00A0E94A309C82F8823D9F32FEF81EEF3
S113070094E0215080409040E1F700C00000C133E4
S113071019F0C23359F011C083E10E94140E85E12F
S113072092E00E9414090E94C504E3CF89E90E9463
S1130730140E0E94C50401C0C12F0E94F20A0E9437
S1130740C5041CC10E94F20A2FEF80E792E02150F9
S113075080409040E1F700C0000084E30E94140E42
S11307602FEF80E792E0215080409040E1F700C0F5
S1130770000081E00E94140E8F3489F50E94F20A71
S113078084EC91E00E94B00A612F82E00E94C60AC4
S11307908FEC91E00E94B00A0E94A309C82F88231D
S11307A0D9F32FEF81EE94E0215080409040E1F79F
S11307B000C00000C13319F0C23359F044C084E2D0
S11307C00E94140E8DE292E00E9414090E94C50456
S11307D0E3CF89E90E94140E0E94C50434C0863414
S11307E089F50E94F20A89EF91E00E94B00A612F14
S11307F082E00E94C60A85E092E00E94B00A0E944C
S1130800A309C82F8823D9F32FEF81EE94E0215058
S113081080409040E1F700C00000C13319F0C233BA
S113082059F011C084E10E94140E86E492E00E9403
S113083014090E94C504E3CF89E90E94140E0E94A2
S1130840C504DDCFC12F0E94F20A0E94C50496C0E0
S11308500E94F20A2FEF80E792E0215080409040FE
S1130860E1F700C0000085E30E94140E2FEF80E73B
S113087092E0215080409040E1F700C0000081E008
S11308800E94140E8F3489F50E94F20A84EC91E0E0
S11308900E94B00A612F82E00E94C60A8FEC91E0A8
S11308A00E94B00A0E94A309C82F8823D9F32FEF0E
S11308B081EE94E0215080409040E1F700C00000B8
S11308C0C13319F0C23359F044C085E20E94140EBA
S11308D08EE592E00E9414090E94C504E3CF89E9E1
S11308E00E94140E0E94C50434C0863489F50E9407
S11308F0F20A89EF91E00E94B00A612F82E00E941F
S1130900C60A85E092E00E94B00A0E94A309C82F9B
S11309108823D9F32FEF81EE94E02150804090405A
S1130920E1F700C00000C13319F0C23359F011C01F
S113093085E10E94140E87E792E00E9414090E9448
S1130940C504E3CF89E90E94140E0E94C504DDCFDB
S1130950C12F0E94F20A0E94C50410C00E94F20A2C
S11309608FE892E00E94B00A2FEF89E698E12150C7
S113097080409040E1F700C0000043CECC2309F44E
S11309804ECEDF91CF911F9108950E94F20A8DE916
S113099092E00E94B00A60E082E00E94C60A8DEAFA
S11309A092E00E94B00A0E94A3098823E1F38233F3
S11309B049F0833361F0813379F40E94F20A0E9492
S11309C0F605F1CF0E94F20A0E94FC02ECCF0E94CD
S11309D0F20A0E94FE04E7CF0E94F20A89EB92E039
S11309E00E94B00A2FEF89E698E1215080409040A0
S11309F0E1F700C000000E94F20A08950E94F20A82
S1130A0060E084EA0E943A092FEF30E792E0215037
S1130A1030409040E1F700C000008F3F09F073C000
S1130A200E94F20A87EC92E00E94B00A2FEF3FE0A6
S1130A3087E2215030408040E1F700C000000E946E
S1130A40F20A87ED92E00E94B00A60E082E00E9420
S1130A50C60A84EE92E00E94B00A9FEF29EF30E0CC
S1130A60915020403040E1F700C000000E94A309EB
S1130A708823E1F3803319F18133A9F50E94F20A46
S1130A8083EF92E00E94B00A80E093E00E94140990
S1130A908AE590E00E94F60A41E360E084EA0E945D
S1130AA01A098FEF9DE222E2815090402040E1F745
S1130AB000C000000E94F20A0E94C504D7CF0E9421
S1130AC0F20A83E193E00E94B00A3FEF87E893E1E2
S1130AD0315080409040E1F700C000000E94F20ACB
S1130AE00E94C504C3CF0E94F20A8FE892E00E94DC
S1130AF0B00A2FEF39E688E1215030408040E1F719
S1130B0000C000009CCF0E94F20A83E293E00E949E
S1130B10B00A9FEF2FE037E2915020403040E1F7D8
S1130B2000C000000E94F20A83E393E00E94B00A2E
S1130B3060E082E00E94C60A84EE92E00E94B00A5D
S1130B408FEF99EF20E0815090402040E1F700C002
S1130B5000000E94A3098823E1F3803319F1813353
S1130B60A9F50E94F20A81E493E00E94B00A8EE49F
S1130B7093E00E94140980E090E00E94F60A4FEF8F
S1130B8060E084EA0E941A093FEF8DE292E231505C
S1130B9080409040E1F700C000000E94F20A0E94E9
S1130BA0C504D7CF0E94F20A83E193E00E94B00A01
S1130BB02FEF37E883E1215030408040E1F700C057
S1130BC000000E94F20A0E94C504C3CF0E94F20AE8
S1130BD08FE892E00E94B00A9FEF29E638E1915035
S1130BE020403040E1F700C000009CCFBF92CF927C
S1130BF0DF92EF92FF920F931F93CF93DF93D0E096
S1130C0012E0F12E0D2FED2ED12E0E94F20A8CEA65
S1130C1091E00E94B00A6D2F812F0E94C60A81E6DE
S1130C2093E00E94B00A0E94A3098823E1F382336F
S1130C3009F48CC0833309F40FC1813309F0E5C191
S1130C400E94F20A2FEF80E792E02150804090400A
S1130C50E1F700C0000081E30E94140E2FEF80E74B
S1130C6092E0215080409040E1F700C0000081E014
S1130C700E94140E8F3489F50E94F20A84EC91E0EC
S1130C800E94B00A602F8F2D0E94C60A8FEC91E05B
S1130C900E94B00A0E94A309C82F8823D9F32FEF1A
S1130CA081EE94E0215080409040E1F700C00000C4
S1130CB0C13319F0C23359F044C081E20E94140ECA
S1130CC082E793E00E9414090E94C504E3CF89E9F6
S1130CD00E94140E0E94C50434C0863489F50E9413
S1130CE0F20A89EF91E00E94B00A602F8F2D0E94D2
S1130CF0C60A85E092E00E94B00A0E94A309C82FA8
S1130D008823D9F32FEF81EE94E021508040904066
S1130D10E1F700C00000C13319F0C23359F011C02B
S1130D2081E10E94140E8BE893E00E9414090E9452
S1130D30C504E3CF89E90E94140E0E94C50401C0D2
S1130D40C02F0E94F20A0E94C5046FC10E94F20AD9
S1130D502FEF80E792E0215080409040E1F700C0FF
S1130D60000082E30E94140E2FEF80E792E02150EE
S1130D7080409040E1F700C0000081E00E94140E22
S1130D808F3489F50E94F20A84EC91E00E94B00A43
S1130D90602F8F2D0E94C60A8FEC91E00E94B00A4A
S1130DA00E94A309C82F8823D9F32FEF81EE94E082
S1130DB0215080409040E1F700C00000C13319F099
S1130DC0C23359F044C082E20E94140E83EA93E0D5
S1130DD00E9414090E94C504E3CF89E90E94140EFD
S1130DE00E94C50434C0863489F50E94F20A89EF52
S1130DF091E00E94B00A602F8F2D0E94C60A85E000
S1130E0092E00E94B00A0E94A309C82F8823D9F354
S1130E102FEF81EE94E0215080409040E1F700C034
S1130E200000C13319F0C23359F011C082E10E94AD
S1130E30140E8CEB93E00E9414090E94C504E3CFC6
S1130E4089E90E94140E0E94C504DDCFC02F0E94C0
S1130E50F20A0E94C504E9C00E94F20A2FEF80E75B
S1130E6092E0215080409040E1F700C0000086E30A
S1130E700E94140E2FEF80E792E0215080409040B2
S1130E80E1F700C0000081E00E94140E8F3489F560
S1130E900E94F20A84ED93E00E94B00A602F8F2D25
S1130EA00E94C60A8FEC91E00E94B00A0E94A30936
S1130EB0C82F8823D9F32FEF81EE94E0215080408E
S1130EC09040E1F700C00000C13319F0C23359F07B
S1130ED097C086E20E94140E84EE93E00E941409E7
S1130EE00E94C504E3CF89E90E94140E0E94C50440
S1130EF087C0863409F083C00E94F20A87E094E038
S1130F000E94B00A602F8F2D0E94C60A85E092E0ED
S1130F100E94B00A0E94A309C82F8823D9F32FEF97
S1130F2081EE94E0215080409040E1F700C0000041
S1130F30C13321F0C23309F458C05DC00E94F20AE3
S1130F4088E194E00E94B00A60E670E081E00E94CB
S1130F50D70A6BE081E00E94C60A81E00E94680A19
S1130F6083E40E94680A69E081E00E94C60ABB2407
S1130F70B394CE2C0E94A309C82F882389F021E0C2
S1130F80B21205C00E94680ACC2EBD2CF3CF82E0B9
S1130F90B8120AC08C2F0E94680A8C2FCE2D05C06F
S1130FA092E09B1538F701C08E2D9C2D990F905619
S1130FB0C92ECC0CCC0C9C0D8053C92EC80E2FEF1F
S1130FC081EE94E0215080409040E1F700C00000A1
S1130FD086E10E94140E84E294E00E9414098C2D90
S1130FE00E94140E0E94C50406C089E90E94140ED2
S1130FF00E94C5048FCFCC2309F48CCF01C0C02F2D
S11310000E94F20A0E94C50410C00E94F20A8FE8EE
S113101092E00E94B00A2FEF89E698E121508040C7
S11310209040E1F700C00000F0CDCC2309F4FBCDE3
S1131030DF91CF911F910F91FF90EF90DF90CF90B0
S1131040BF90089586E494E00E94140987E694E032
S11310500E94140984E994E00E9414090E9417096B
S113106090E0FC01F197E830F105C0F7E65DFF4F31
S11310700C94DF112FEF33E284EF90E021503040E5
S113108080409040D9F700C0000081E30E94140E14
S11310908F3441F48EEC94E00E94140981E20E94A2
S11310A0140EDCCF8634D1F681EE94E00E9414094C
S11310B081E10E94140ED2CF82E30E94140E8F3479
S11310C041F482E20E94140E8EEC94E00E94140912
S11310D0C5CF863419F682E10E94140E81EE94E0A5
S11310E00E941409BBCF86E30E94140E8F3441F48E
S11310F086E20E94140E83EF94E00E941409AECF9E
S1131100863409F0ABCF86E10E94140E88E10E9478
S1131110140E81E195E00E941409A0CF83E30E949C
S1131120140E8F3441F483E20E94140E8EEC94E08A
S11311300E94140993CF863409F090CF83E10E9472
S1131140140E81EE94E00E94140988CF84E30E9477
S1131150140E8F3441F484E20E94140E8EEC94E059
S11311600E9414097BCF863409F078CF84E10E9471
S1131170140E81EE94E00E94140970CF85E30E945E
S1131180140E8F3441F485E20E94140E8EEC94E028
S11311900E94140963CF863409F060CF85E10E9470
S11311A0140E81EE94E00E94140958CF60E084EAA2
S11311B00E943A098F3FB9F48EE295E00E940C1028
S11311C08AE590E00E94F60A41E360E084EA0E9426
S11311D01A092FEF33EC89E0215030408040E1F7C9
S11311E000C000003BCF83E495E00E940C1080E037
S11311F090E00E94F60A4FEF60E084EA0E941A0928
S11312009FEF23EC39E0915020403040E1F700C0DB
S1131210000024CF88E595E00E9414090E94BF01D4
S113122008950E94940F08950E940C1008950E943E
S1131230221008951F93CF93DF93C82FD62F142F16
S11312400E94410F883091F48C2F8E7F0E94560F9C
S1131250883161F48D2F0E94560F883239F4812F22
S11312600E94560F883211F40E94840FDF91CF91AF
S11312701F9108950F931F93CF93DF931F92CDB7C0
S1131280DEB7182F062F19820E94410F8830E9F427
S1131290812F8E7F0E94560F8831B9F4802F0E94CF
S11312A0560F883291F40E94410F803171F4812FDE
S11312B081600E94560F803441F4CE0101960E9451
S11312C06C0F883511F40E94840F89810F90DF918F
S11312D0CF911F910F910895EF92FF920F931F9357
S11312E0CF93DF93C8E7D0E00F2EFCE7EF2EF0E0BA
S11312F0FF2EF02D8E0160E089910E94340C61E094
S1131300F80180810E947F0BCE15DF0599F7CCE7A9
S1131310D0E00F2EF0E8EF2EF0E0FF2EF02D8E013E
S113132061E089910E94340C61E0F80180810E949F
S11313307F0BCE15DF0599F7DF91CF911F910F91A8
S1131340FF90EF9008956F927F928F929F92AF9249
S1131350BF92CF92DF92EF92FF920F931F93CF939E
S1131360DF930CE710E0C12CD12C4601580160E05A
S1131370F80180810E947F0BC8E7D0E0612C712CBA
S1131380730189910E94010C811114C0E301C858B2
S1131390DF4F88810E94010C8823D9F3C401880F90
S11313A0991F880F991F88599F4FFC01EE0DFF1D4F
S11313B0808116C0FFEF6F1A7F0A84E068167104FB
S11313C0F9F60F5F1F4F61E0F50180810E947F0BEA
S11313D0FFEFCF1ADF0A84E0C816D10431F680E0AB
S11313E0DF91CF911F910F91FF90EF90DF90CF90FD
S11313F0BF90AF909F908F907F906F900895CF9300
S1131400C82F60E089E00E947F0B80E00E94B60C48
S11314108F709C2F907F682F692B80E00E94C80CEE
S113142060E08BE00E947F0B8FE891E00197F1F779
S113143000C0000061E08BE00E947F0B8FE19EE41E
S11314400197F1F700C0000080E00E94B60C8F7095
S113145090E1C99F90011124682F622B80E00E94C3
S1131460C80C60E08BE00E947F0B8FE891E001974D
S1131470F1F700C0000061E08BE00E947F0B8FE376
S11314809FE10197F1F700C00000CF91089560E05B
S11314908AE00E947F0B61E08BE00E947F0B2FEFBC
S11314A089EF90E0215080409040E1F700C00000B7
S11314B083E30E94FF0982E30E94FF0988E20E94FD
S11314C0FF0986E00E94FF098CE00E94FF0908954D
S11314D0CF93C82F61E089E00E947F0B80E00E94D7
S11314E0B60C8F709C2F907F682F692B80E00E9430
S11314F0C80C60E08BE00E947F0B8FE891E00197BD
S1131500F1F700C0000061E08BE00E947F0B8FE1E7
S11315109EE40197F1F700C0000080E00E94B60C41
S11315208F7090E1C99F90011124682F622B80E095
S11315300E94C80C60E08BE00E947F0B8FE891E072
S11315400197F1F700C0000061E08BE00E947F0B7F
S11315508FE39FE10197F1F700C00000CF91089558
S11315600F931F93CF93FC018081882359F08F013F
S1131570C0E00E94680ACF5FF801EC0FF11D808182
S11315808111F7CFCF911F910F910895813019F0F8
S1131590823039F00895862F8F7080680E94FF0989
S11315A00895862F8F70806C0E94FF0908950F9311
S11315B01F93CF93DF93883080F48B01880F880FBB
S11315C0880F805C0E94FF09E801085F1F4F899122
S11315D00E94680AC017D107D1F7DF91CF911F91FC
S11315E00F91089581E00E94FF0908950F931F93BE
S11315F0CF93DF93CDB7DEB728970FB6F894DEBF4D
S11316000FBECDBF8C0161E08DE10E94340C87E8F0
S113161093E10E94C50EB80180E090E00E94C210E0
S11316202CE137EC41EB5FE30E94501120E030E005
S11316304AE753E40E94271020E030E040E85FE3EB
S11316400E9426100E949310CB010E94C20E88E0D3
S1131650E0ECF0E0DE01119601900D928A95E1F73D
S1131660CE0101960E94190E28960FB6F894DEBF9B
S11316700FBECDBFDF91CF911F910F910895CF93EE
S1131680DF93CDB7DEB72C970FB6F894DEBF0FBE4D
S1131690CDBF81E089831A8282E08B831C820E9401
S11316A0D80C0E94470A0E946C0986E60E943D0FEE
S11316B0CE0101960E94CE0D88E0E8ECF0E0DE0158
S11316C0159601900D928A95E1F7CE0105960E9438
S11316D0110960E088E10E94340C2FEF81EE94E060
S11316E0215080409040E1F700C000000E94AE000D
S11316F00E94E8020E9422080E94C504FBCF982F92
S11317009770869586958695813021F130F08230E8
S1131710F1F1833009F458C00895613069F44BB392
S113172021E030E0B90102C0660F771F9A95E2F715
S1131730CB01842B8BBB08954BB321E030E0B9017E
S113174002C0660F771F9A95E2F7CB018095842338
S11317508BBB0895613069F448B321E030E0B901EE
S113176002C0660F771F9A95E2F7CB01842B88BBE2
S1131770089548B321E030E0B90102C0660F771F35
S11317809A95E2F7CB018095842388BB0895613054
S113179069F445B321E030E0B90102C0660F771F58
S11317A09A95E2F7CB01842B85BB089545B321E0DC
S11317B030E0B90102C0660F771F9A95E2F7CB01BA
S11317C08095842385BB0895613069F442B321E098
S11317D030E0B90102C0660F771F9A95E2F7CB019A
S11317E0842B82BB089542B321E030E0B90102C0EA
S11317F0660F771F9A95E2F7CB018095842382BB0D
S11318000895282F2770869586958695813079F0DE
S113181028F08230A9F08330E1F024C089B390E04D
S113182002C0959587952A95E2F78170089586B34D
S113183090E002C0959587952A95E2F78170089506
S113184083B390E002C0959587952A95E2F781705D
S1131850089580B390E002C0959587952A95E2F7A4
S11318608170089580E00895982F977086958695E5
S11318708695813021F130F08230F1F1833009F422
S113188058C00895613069F44AB321E030E0B901E9
S113189002C0660F771F9A95E2F7CB01842B8ABBAF
S11318A008954AB321E030E0B90102C0660F771F02
S11318B09A95E2F7CB01809584238ABB0895613021
S11318C069F447B321E030E0B90102C0660F771F25
S11318D09A95E2F7CB01842B87BB089547B321E0A7
S11318E030E0B90102C0660F771F9A95E2F7CB0189
S11318F08095842387BB0895613069F444B321E063
S113190030E0B90102C0660F771F9A95E2F7CB0168
S1131910842B84BB089544B321E030E0B90102C0B4
S1131920660F771F9A95E2F7CB018095842384BBD9
S11319300895613069F441B321E030E0B90102C097
S1131940660F771F9A95E2F7CB01842B81BB08952C
S113195041B321E030E0B90102C0660F771F9A95C8
S1131960E2F7CB018095842381BB0895813041F057
S113197028F0823039F0833039F008C08BB30895F1
S113198088B3089585B3089582B3089580E00895D7
S1131990813041F028F0823039F0833039F00895F5
S11319A06BBB089568BB089565BB089562BB089539
S11319B0E0E8F0E080E041E050E0282F2770982F25
S11319C0969596959695913009F130F09230C1F143
S11319D0933009F44FC067C09081913059F49AB3A1
S11319E0BA0102C0660F771F2A95E2F79B01292BE3
S11319F02ABB59C03AB3BA0102C0660F771F2A95B1
S1131A00E2F7962F909593239ABB4DC09081913025
S1131A1059F497B3BA0102C0660F771F2A95E2F70B
S1131A209B01292B27BB3FC037B3BA0102C0660F05
S1131A30771F2A95E2F7962F9095932397BB33C08F
S1131A409081913059F494B3BA0102C0660F771FA4
S1131A502A95E2F79B01292B24BB25C034B3BA0194
S1131A6002C0660F771F2A95E2F7962F909593236D
S1131A7094BB19C09081913059F491B3BA0102C05A
S1131A80660F771F2A95E2F79B01292B21BB0BC018
S1131A9031B3BA0102C0660F771F2A95E2F7962F79
S1131AA09095932391BB8F5F3296803209F085CF56
S1131AB008951F920F920FB60F9211242F933F9304
S1131AC04F935F936F937F938F939F93AF93BF9342
S1131AD0EF93FF93E0917205F09173050995FF91DF
S1131AE0EF91BF91AF919F918F917F916F915F9192
S1131AF04F913F912F910F900FBE0F901F9018950B
S1131B001F920F920FB60F9211242F933F934F936E
S1131B105F936F937F938F939F93AF93BF93EF9351
S1131B20FF93E0917005F09171050995FF91EF9194
S1131B30BF91AF919F918F917F916F915F914F91E1
S1131B403F912F910F900FBE0F901F9018951F92E9
S1131B500F920FB60F9211242F933F934F935F93DD
S1131B606F937F938F939F93AF93BF93EF93FF9361
S1131B70E0916E05F0916F050995FF91EF91BF918A
S1131B80AF919F918F917F916F915F914F913F9111
S1131B902F910F900FBE0F901F901895CF93DF9346
S1131BA0EC0188818823A9F0813029F561E08CE07B
S1131BB00E94340C61E08DE00E94340C60E08EE001
S1131BC00E94340C61E08FE00E94340C6C9A6E9A8F
S1131BD012C060E08CE00E94340C60E08DE00E9452
S1131BE0340C61E08EE00E94340C60E08FE00E94CF
S1131BF0340C6C986E9A2DB1998130E2939FC00198
S1131C001124822B8DB98B81813031F4709A9DB16E
S1131C108A81892B8DB905C070989DB18A81892BE1
S1131C208DB9DF91CF9108958FB9779BFECF8FB196
S1131C300895FC018081813099F028F08230E9F028
S1131C40833041F133C08FB58E7F8FBD8FB58D7FCB
S1131C508FBD8EB5877F8EBD8EB58F7E8EBD26C01F
S1131C608FB58E7F8FBD8FB58D7F8FBD8EB588600C
S1131C708EBD8EB58F7E8EBD19C08FB58E7F8FBD04
S1131C808FB582608FBD8EB588608EBD8EB5806144
S1131C908EBD0CC08FB58E7F8FBD8FB582608FBD1A
S1131CA08EB5877F8EBD8EB580618EBD8181823079
S1131CB001F128F4882349F0813089F041C084304F
S1131CC061F108F1853099F13BC08EB58E7F8EBDF0
S1131CD08EB58D7F8EBD8EB58B7F8EBD31C08EB59A
S1131CE081608EBD8EB58D7F8EBD8EB58B7F8EBD92
S1131CF027C08EB58E7F8EBD8EB582608EBD8EB5AB
S1131D008B7F8EBD1DC08EB581608EBD8EB5826009
S1131D108EBD8EB58B7F8EBD13C08EB58E7F8EBD6E
S1131D208EB58D7F8EBD8EB584608EBD09C08EB597
S1131D3081608EBD8EB58D7F8EBD8EB584608EBD67
S1131D408281823059F0833081F0811114C08FB5C3
S1131D508F7B8FBD8FB58F778FBD0DC08FB58F7B78
S1131D608FBD8FB580688FBD06C08FB58F7B8FBD4B
S1131D708FB58F778FBD99B78781880F880F892B8F
S1131D8089BF08959BBD8ABD089597BD86BD0895FA
S1131D901F920F920FB60F9211242F933F934F93DC
S1131DA05F936F937F938F939F93AF93BF93EF93BF
S1131DB0FF93E0917805F09179050995FF91EF91F2
S1131DC0BF91AF919F918F917F916F915F914F914F
S1131DD03F912F910F900FBE0F901F9018951F9257
S1131DE00F920FB60F9211242F933F934F935F934B
S1131DF06F937F938F939F93AF93BF93EF93FF93CF
S1131E00E0917605F09177050995FF91EF91BF91E7
S1131E10AF919F918F917F916F915F914F913F917E
S1131E202F910F900FBE0F901F9018951F920F9235
S1131E300FB60F9211242F933F934F935F936F9399
S1131E407F938F939F93AF93BF93EF93FF93E0910F
S1131E507405F09175050995FF91EF91BF91AF91CC
S1131E609F918F917F916F915F914F913F912F91AE
S1131E700F900FBE0F901F90189582B98EE080B915
S1131E80089586B7806286BF86B78F7E86BF86B781
S1131E908F7B86BF86B7846086BF86B7806886BF1F
S1131EA006B607FEFDCF81B1887F089583B986B752
S1131EB08F7D86BF86B78F7E86BF86B78F7B86BFB2
S1131EC086B7846086BF86B7806886BF06B607FE7D
S1131ED0FDCF81B1887F0895FC0196B79F7D96BFA1
S1131EE096B79F7E96BF96B79F7B96BF96B7946032
S1131EF096BF96B7906896BF06B607FEFDCF83B12E
S1131F00808381B1887F089586B78F7D86BF86B729
S1131F10806186BF86B78F7B86BF86B7846086BFA5
S1131F2086B7806886BF0895CF93DF93EC018A81DA
S1131F308130E9F4599A28813981C901A0E0B0E0DF
S1131F40880F991FAA1FBB1F880F991FAA1FBB1FA9
S1131F509C01AD01220F331F441F551F60E074E242
S1131F6084EF90E00E94BD112150310920C059989E
S1131F7028813981C901A0E0B0E0880F991FAA1F08
S1131F80BB1F880F991FAA1FBB1F9C01AD01220F05
S1131F90331F441F551F220F331F441F551F60E07A
S1131FA074E284EF90E00E94BD112150310929B9F7
S1131FB030BD9B81973041F480B5826080BD80B58F
S1131FC0846080BD529A05C080B5990F8068892BC2
S1131FD080BD80B59C81990F990F990F8068892BDA
S1131FE080BD20B59D8130E1939FC0011124922FC3
S1131FF09068892B80BD8E8180FD539A80FF539811
S11320008F8180FD549A80FF5498DF91CF91089579
S11320105D9BFECF8CB908950F931F93CF93FC0162
S11320208081882359F08F01C0E00E940810CF5F9F
S1132030F801EC0FF11D80818111F7CFCF911F9131
S11320400F9108955F9BFECF8CB108955058BB2724
S1132050AA270E943E100C9416110E94081138F011
S11320600E940F1120F039F49F3F19F426F40C94C8
S113207005110EF4E095E7FB0C94FF10E92F0E9484
S1132080271158F3BA17620773078407950720F0DE
S113209079F4A6F50C9449110EF4E0950B2EBA2FA1
S11320A0A02D0B01B90190010C01CA01A00111245A
S11320B0FF27591B99F0593F50F4503E68F11A1606
S11320C0F040A22F232F342F4427585FF3CF469597
S11320D037952795A795F0405395C9F77EF41F16B9
S11320E0BA0B620B730B840BBAF09150A1F0FF0F83
S11320F0BB1F661F771F881FC2F70EC0BA0F621F6F
S1132100731F841F48F4879577956795B795F7955E
S11321109E3F08F0B0CF9395880F08F09927EE0FF3
S11321209795879508950E942F1188F09F5798F0EE
S1132130B92F9927B751B0F0E1F0660F771F881FC8
S1132140991F1AF0BA95C9F714C0B13091F00E94E2
S11321504911B1E008950C944911672F782F88270D
S1132160B85F39F0B93FCCF3869577956795B39509
S1132170D9F73EF490958095709561957F4F8F4F78
S11321809F4F0895E89409C097FB3EF4909580957D
S1132190709561957F4F8F4F9F4F9923A9F0F92F29
S11321A096E9BB279395F695879577956795B795A7
S11321B0F111F8CFFAF4BB0F11F460FF1BC06F5F8D
S11321C07F4F8F4F9F4F16C0882311F096E911C09F
S11321D0772321F09EE8872F762F05C0662371F0C0
S11321E096E8862F70E060E02AF09A95660F771FD4
S11321F0881FDAF7880F9695879597F9089597F9C8
S11322009F6780E870E060E008959FEF80EC089598
S113221000240A94161617061806090608950024C1
S11322200A9412161306140605060895092E03943B
S1132230000C11F4882352F0BB0F40F4BF2B11F4AF
S113224060FF04C06F5F7F4F8F4F9F4F089557FD0E
S11322509058440F551F59F05F3F71F04795880F10
S113226097FB991F61F09F3F79F0879508951216A7
S113227013061406551FF2CF4695F1DF08C0161653
S113228017061806991FF1CF869571056105089404
S11322900895E894BB2766277727CB0197F908951B
S11322A00E9463110C9416110E94081138F00E94C8
S11322B00F1120F0952311F00C94FF100C940511CC
S11322C011240C944A110E94271170F3959FC1F3B5
S11322D0950F50E0551F629FF001729FBB27F00DD0
S11322E0B11D639FAA27F00DB11DAA1F649F662725
S11322F0B00DA11D661F829F2227B00DA11D621F74
S1132300739FB00DA11D621F839FA00D611D221F2D
S1132310749F3327A00D611D231F849F600D211D11
S1132320822F762F6A2F11249F5750409AF0F1F094
S113233088234AF0EE0FFF1FBB1F661F771F881FFD
S113234091505040A9F79E3F510580F00C94FF1026
S11323500C944A115F3FE4F3983ED4F38695779545
S11323606795B795F795E7959F5FC1F7FE2B880FA3
S1132370911D9695879597F90895A1E21A2EAA1BA7
S1132380BB1BFD010DC0AA1FBB1FEE1FFF1FA21721
S1132390B307E407F50720F0A21BB30BE40BF50B1E
S11323A0661F771F881F991F1A9469F760957095A7
S11323B0809590959B01AC01BD01CF010895EE0F6E
S11123C0FF1F0590F491E02D0994F894FFCFCF
S11323CE07050700000000003738392F3435362A48
S11323DE3132332D43303D2B1617000112131415D1
S11323EE01010101010101010101010101010101CB
S11323FE01010101010101010101010101010101BB
S113240E01010101010101010101010101010101AA
S113241E010101010101010101010101010101019A
S113242E02030200000000008025000300000101E9
S113243E414C41524D2121212100436F727265633B
S113244E742050617373776F7264210021486F6D2D
S113245E655377656574486F6D65210057726F6EAD
S113246E672050617373776F7264210053797374AC
S113247E656D20426C6F636B6564210046697269F9
S113248E6E6720416C61726D212121005472696165
S113249E6C73206C6566743A2000536D6172742DF2
S11324AE486F6D650050726F6A65637421004C6FDE
S11324BE67696E2066697273742074696D65005362
S11324CE657450617373776F72643A00436F6E660E
S11324DE69726D3A0050617373776F726420536141
S11324EE766564210050617373206D69736D617438
S11324FE6368210054727920616761696E21005707
S113250E656C636F6D6520486F6D6500313A4C6183
S113251E6D703120323A4C616D703200333A4C6139
S113252E6D7033004C6564206973204F6E21003149
S113253E3A5475726E6F666620323A6261636B004E
S113254E0A4C616D70312C526F6F6D32206973209D
S113255E4F6666206E6F7721004C65642069732088
S113256E4F66662100313A5475726E4F6E20323AC0
S113257E6261636B000A4C616D70312C526F6F6D2A
S113258E32206973206F6E206E6F7721000A4C61C2
S113259E6D70322C526F6F6D32206973204F6666E8
S11325AE206E6F7721000A4C616D70322C526F6F62
S11325BE6D32206973206F6E206E6F7721000A4C86
S11325CE616D70332C526F6F6D32206973204F66BC
S11325DE66206E6F7721000A4C616D70332C526F3A
S11325EE6F6D32206973206F6E206E6F77210057E6
S11325FE726F6E672063686F6963652100313A52AA
S113260E4F4F4D3120323A524F4F4D3200333A4DE7
S113261E61696E20444F4F520057726F6E672043AC
S113262E686F6963652100446F6F7220697320635C
S113263E6C6F736564210070726573732031206F43
S113264E70656E00707265737320302072657475D8
S113265E726E006F70656E696E6720646F6F7200C4
S113266E0A4D61696E20646F6F72206F70656E65BE
S113267E64210052657475726E20746F206D656EE0
S113268E752100446F6F72206973206F70656E65DB
S113269E6421007072657373203120636C6F7365EF
S11326AE00636C6F73696E6720646F6F72000A4DFE
S11326BE61696E20646F6F7220636C6F7365642141
S11326CE00333A416972436F6E646974696F6E6563
S11326DE72000A4C616D70312C526F6F6D3120692E
S11326EE73204F6666206E6F7721000A4C616D7001
S11326FE312C526F6F6D31206973206F6E206E6FA7
S113270E7721000A4C616D70322C526F6F6D31203F
S113271E6973204F6666206E6F7721000A4C616DD7
S113272E70322C526F6F6D31206973206F6E206E74
S113273E6F7721004169722D436F6E642069732097
S113274E4F6E21000A41697220636F6E6469746969
S113275E6F6E65722C526F6F6D31206973204F66E8
S113276E66206E6F7721004169722D436F6E64206F
S113277E6973204F666621005365742054656D702D
S113278E3A5F5F000A41697220636F6E646974690F
S113279E6F6E65722C526F6F6D31206973206F6E80
S11327AE206E6F7721000A0A536D6172742D486F83
S11327BE6D652050726F6A6563740A41646D696E4B
S11327CE206D6F64650A00526F6F6D310A313129C5
S11327DE4C616D70310A3232294C616D70320A339C
S11327EE33294169722D436F6E646974696F6E6526
S11327FE720A0A000A526F6F6D320A3434294C6120
S113280E6D70310A3535294C616D70320A363629B0
S113281E4C616D70330A37294D61696E2D446F6FAB
S113282E720A3829557365722D4D6F6465000A4C12
S113283E616D70205475726E6564204F6666210A50
S113284E000A4C616D70205475726E6564206F6E53
S113285E210A000A41697220636F6E646974696F9C
S113286E6E6572205475726E6564204F6666210A19
S113287E000A41697220636F6E646974696F6E65D4
S113288E72205475726E6564206F6E210A000A4FB1
S113289E70656E696E67204D61696E20446F6F724C
S11328AE210A000A436C6F73696E67204D61696E6D
S11328BE20446F6F72210A000A0A0A0A0A0A0A0AD7
S11128CE55736572206D6F6465204F6E210096
S9030000FC
